{
  "_format": "hh-sol-artifact-1",
  "contractName": "BabyLFarming",
  "sourceName": "contracts/BabyLFarming.sol",
  "abi": [
    {
      "inputs": [
        {
          "internalType": "address",
          "name": "_babyLToken",
          "type": "address"
        },
        {
          "internalType": "address",
          "name": "_dataStorage",
          "type": "address"
        },
        {
          "internalType": "address",
          "name": "_swapAddress",
          "type": "address"
        },
        {
          "internalType": "address payable",
          "name": "_babyLMint",
          "type": "address"
        },
        {
          "internalType": "address",
          "name": "_owner",
          "type": "address"
        }
      ],
      "stateMutability": "nonpayable",
      "type": "constructor"
    },
    {
      "inputs": [],
      "name": "InvalidOwner",
      "type": "error"
    },
    {
      "inputs": [],
      "name": "Unauthorized",
      "type": "error"
    },
    {
      "anonymous": false,
      "inputs": [
        {
          "indexed": false,
          "internalType": "uint256",
          "name": "dragonId",
          "type": "uint256"
        },
        {
          "indexed": false,
          "internalType": "uint256",
          "name": "expectedEndTime",
          "type": "uint256"
        }
      ],
      "name": "DragonFramingStart",
      "type": "event"
    },
    {
      "anonymous": false,
      "inputs": [
        {
          "indexed": true,
          "internalType": "address",
          "name": "sender",
          "type": "address"
        },
        {
          "indexed": false,
          "internalType": "uint256",
          "name": "block",
          "type": "uint256"
        },
        {
          "indexed": false,
          "internalType": "uint256",
          "name": "amount",
          "type": "uint256"
        },
        {
          "indexed": false,
          "internalType": "uint256",
          "name": "taxAmount",
          "type": "uint256"
        }
      ],
      "name": "ExtractTokenResult",
      "type": "event"
    },
    {
      "anonymous": false,
      "inputs": [
        {
          "indexed": true,
          "internalType": "uint256",
          "name": "_dragonId",
          "type": "uint256"
        },
        {
          "indexed": false,
          "internalType": "uint256",
          "name": "success",
          "type": "uint256"
        },
        {
          "indexed": false,
          "internalType": "uint256",
          "name": "reward",
          "type": "uint256"
        }
      ],
      "name": "FarmingResultEvent",
      "type": "event"
    },
    {
      "anonymous": false,
      "inputs": [
        {
          "indexed": true,
          "internalType": "address",
          "name": "user",
          "type": "address"
        },
        {
          "indexed": true,
          "internalType": "address",
          "name": "newOwner",
          "type": "address"
        }
      ],
      "name": "OwnershipTransferred",
      "type": "event"
    },
    {
      "anonymous": false,
      "inputs": [
        {
          "indexed": true,
          "internalType": "uint256",
          "name": "_dragonId",
          "type": "uint256"
        },
        {
          "indexed": false,
          "internalType": "address",
          "name": "user",
          "type": "address"
        }
      ],
      "name": "RedeemDragonResult",
      "type": "event"
    },
    {
      "anonymous": false,
      "inputs": [
        {
          "indexed": true,
          "internalType": "uint256",
          "name": "_dragonId",
          "type": "uint256"
        },
        {
          "indexed": false,
          "internalType": "uint256",
          "name": "reduceTime",
          "type": "uint256"
        }
      ],
      "name": "ReduceSleepingTimeResult",
      "type": "event"
    },
    {
      "inputs": [],
      "name": "babyLInstance",
      "outputs": [
        {
          "internalType": "contract LittleDragon",
          "name": "",
          "type": "address"
        }
      ],
      "stateMutability": "view",
      "type": "function"
    },
    {
      "inputs": [],
      "name": "babyLMintInstance",
      "outputs": [
        {
          "internalType": "contract BabyLMint",
          "name": "",
          "type": "address"
        }
      ],
      "stateMutability": "view",
      "type": "function"
    },
    {
      "inputs": [],
      "name": "bigDragonSleepTime",
      "outputs": [
        {
          "internalType": "uint256",
          "name": "",
          "type": "uint256"
        }
      ],
      "stateMutability": "view",
      "type": "function"
    },
    {
      "inputs": [],
      "name": "claimLongTokenBlindBox",
      "outputs": [
        {
          "internalType": "uint256",
          "name": "",
          "type": "uint256"
        }
      ],
      "stateMutability": "nonpayable",
      "type": "function"
    },
    {
      "inputs": [],
      "name": "dataInstance",
      "outputs": [
        {
          "internalType": "contract DataStorage",
          "name": "",
          "type": "address"
        }
      ],
      "stateMutability": "view",
      "type": "function"
    },
    {
      "inputs": [],
      "name": "dayTime",
      "outputs": [
        {
          "internalType": "uint256",
          "name": "",
          "type": "uint256"
        }
      ],
      "stateMutability": "view",
      "type": "function"
    },
    {
      "inputs": [
        {
          "internalType": "uint256",
          "name": "",
          "type": "uint256"
        },
        {
          "internalType": "uint256",
          "name": "",
          "type": "uint256"
        }
      ],
      "name": "dragonFarmings",
      "outputs": [
        {
          "internalType": "uint256",
          "name": "dragonId",
          "type": "uint256"
        },
        {
          "internalType": "uint256",
          "name": "farmingEndTime",
          "type": "uint256"
        },
        {
          "internalType": "uint256",
          "name": "farmingReward",
          "type": "uint256"
        },
        {
          "internalType": "uint256",
          "name": "farmingResult",
          "type": "uint256"
        }
      ],
      "stateMutability": "view",
      "type": "function"
    },
    {
      "inputs": [
        {
          "internalType": "uint256",
          "name": "_dragonId",
          "type": "uint256"
        }
      ],
      "name": "dragonFraming",
      "outputs": [],
      "stateMutability": "nonpayable",
      "type": "function"
    },
    {
      "inputs": [
        {
          "internalType": "uint256",
          "name": "",
          "type": "uint256"
        }
      ],
      "name": "dragons",
      "outputs": [
        {
          "internalType": "uint256",
          "name": "dragonId",
          "type": "uint256"
        },
        {
          "internalType": "address",
          "name": "dragonOwner",
          "type": "address"
        },
        {
          "internalType": "uint256",
          "name": "lastFarmingTime",
          "type": "uint256"
        },
        {
          "internalType": "uint256",
          "name": "farmingEndTime",
          "type": "uint256"
        },
        {
          "internalType": "uint256",
          "name": "sleepEndTime",
          "type": "uint256"
        },
        {
          "internalType": "bool",
          "name": "farmingStatus",
          "type": "bool"
        }
      ],
      "stateMutability": "view",
      "type": "function"
    },
    {
      "inputs": [
        {
          "internalType": "uint256",
          "name": "_amount",
          "type": "uint256"
        }
      ],
      "name": "extractFarmingTokenAmount",
      "outputs": [],
      "stateMutability": "nonpayable",
      "type": "function"
    },
    {
      "inputs": [],
      "name": "generateRandomAddress",
      "outputs": [
        {
          "internalType": "address",
          "name": "",
          "type": "address"
        }
      ],
      "stateMutability": "view",
      "type": "function"
    },
    {
      "inputs": [
        {
          "internalType": "uint256",
          "name": "_dragonId",
          "type": "uint256"
        }
      ],
      "name": "getDragonFarmingResult",
      "outputs": [
        {
          "components": [
            {
              "internalType": "uint256",
              "name": "dragonId",
              "type": "uint256"
            },
            {
              "internalType": "uint256",
              "name": "farmingEndTime",
              "type": "uint256"
            },
            {
              "internalType": "uint256",
              "name": "farmingReward",
              "type": "uint256"
            },
            {
              "internalType": "uint256",
              "name": "farmingResult",
              "type": "uint256"
            }
          ],
          "internalType": "struct IFarming.Farming",
          "name": "",
          "type": "tuple"
        }
      ],
      "stateMutability": "nonpayable",
      "type": "function"
    },
    {
      "inputs": [],
      "name": "getDragonFramingList",
      "outputs": [
        {
          "components": [
            {
              "internalType": "uint256",
              "name": "dragonId",
              "type": "uint256"
            },
            {
              "internalType": "uint256",
              "name": "farmingEndTime",
              "type": "uint256"
            },
            {
              "internalType": "uint256",
              "name": "sleepEndTime",
              "type": "uint256"
            },
            {
              "internalType": "bool",
              "name": "farmingStatus",
              "type": "bool"
            }
          ],
          "internalType": "struct IFarming.DragonInfo[]",
          "name": "",
          "type": "tuple[]"
        }
      ],
      "stateMutability": "view",
      "type": "function"
    },
    {
      "inputs": [],
      "name": "getFarmingTokenAmount",
      "outputs": [
        {
          "components": [
            {
              "internalType": "uint256",
              "name": "farmingTokenAmount",
              "type": "uint256"
            },
            {
              "internalType": "uint256",
              "name": "extractAmount",
              "type": "uint256"
            },
            {
              "internalType": "uint256",
              "name": "toBeExtractedAmount",
              "type": "uint256"
            },
            {
              "internalType": "uint256",
              "name": "toBeExtractedUnlockingAmount",
              "type": "uint256"
            },
            {
              "internalType": "uint256",
              "name": "taxationAmount",
              "type": "uint256"
            }
          ],
          "internalType": "struct IFarming.FarmingTokenStatistics",
          "name": "",
          "type": "tuple"
        }
      ],
      "stateMutability": "view",
      "type": "function"
    },
    {
      "inputs": [],
      "name": "getTimeReductionCardNum",
      "outputs": [
        {
          "internalType": "uint256",
          "name": "",
          "type": "uint256"
        }
      ],
      "stateMutability": "view",
      "type": "function"
    },
    {
      "inputs": [],
      "name": "getUserDragons",
      "outputs": [
        {
          "internalType": "uint256[]",
          "name": "",
          "type": "uint256[]"
        }
      ],
      "stateMutability": "view",
      "type": "function"
    },
    {
      "inputs": [],
      "name": "getUserUnopenedBlindBox",
      "outputs": [
        {
          "components": [
            {
              "internalType": "uint256",
              "name": "ethBlindBox",
              "type": "uint256"
            },
            {
              "internalType": "uint256",
              "name": "longTokenBlindBox",
              "type": "uint256"
            },
            {
              "internalType": "uint256",
              "name": "equipBlindBox",
              "type": "uint256"
            },
            {
              "internalType": "uint256",
              "name": "aUBlindBox",
              "type": "uint256"
            }
          ],
          "internalType": "struct IFarming.UnopenedBlindBox",
          "name": "",
          "type": "tuple"
        }
      ],
      "stateMutability": "view",
      "type": "function"
    },
    {
      "inputs": [],
      "name": "owner",
      "outputs": [
        {
          "internalType": "address",
          "name": "",
          "type": "address"
        }
      ],
      "stateMutability": "view",
      "type": "function"
    },
    {
      "inputs": [
        {
          "internalType": "uint256",
          "name": "_dragonId",
          "type": "uint256"
        }
      ],
      "name": "redeemDragon",
      "outputs": [],
      "stateMutability": "nonpayable",
      "type": "function"
    },
    {
      "inputs": [
        {
          "internalType": "uint256",
          "name": "_dragonId",
          "type": "uint256"
        }
      ],
      "name": "reduceSleepingTime",
      "outputs": [],
      "stateMutability": "nonpayable",
      "type": "function"
    },
    {
      "inputs": [],
      "name": "releasePercentage",
      "outputs": [
        {
          "internalType": "uint256",
          "name": "",
          "type": "uint256"
        }
      ],
      "stateMutability": "view",
      "type": "function"
    },
    {
      "inputs": [],
      "name": "revokeOwnership",
      "outputs": [],
      "stateMutability": "nonpayable",
      "type": "function"
    },
    {
      "inputs": [
        {
          "internalType": "address",
          "name": "_babyLToken",
          "type": "address"
        }
      ],
      "name": "setBabyLInstanceAddr",
      "outputs": [],
      "stateMutability": "nonpayable",
      "type": "function"
    },
    {
      "inputs": [
        {
          "internalType": "address payable",
          "name": "_babyLMint",
          "type": "address"
        }
      ],
      "name": "setBabyLMintInstanceAddr",
      "outputs": [],
      "stateMutability": "nonpayable",
      "type": "function"
    },
    {
      "inputs": [
        {
          "internalType": "address",
          "name": "_dataStorage",
          "type": "address"
        }
      ],
      "name": "setDataInstanceAddr",
      "outputs": [],
      "stateMutability": "nonpayable",
      "type": "function"
    },
    {
      "inputs": [
        {
          "internalType": "address",
          "name": "_swapAddress",
          "type": "address"
        }
      ],
      "name": "setSwapAddress",
      "outputs": [],
      "stateMutability": "nonpayable",
      "type": "function"
    },
    {
      "inputs": [],
      "name": "sleepTimeReductionPerInvite",
      "outputs": [
        {
          "internalType": "uint256",
          "name": "",
          "type": "uint256"
        }
      ],
      "stateMutability": "view",
      "type": "function"
    },
    {
      "inputs": [],
      "name": "smallDragonFarmingGetTokenProbability",
      "outputs": [
        {
          "internalType": "uint256",
          "name": "",
          "type": "uint256"
        }
      ],
      "stateMutability": "view",
      "type": "function"
    },
    {
      "inputs": [],
      "name": "smallDragonFarmingMaxToken",
      "outputs": [
        {
          "internalType": "uint256",
          "name": "",
          "type": "uint256"
        }
      ],
      "stateMutability": "view",
      "type": "function"
    },
    {
      "inputs": [],
      "name": "smallDragonFarmingMinToken",
      "outputs": [
        {
          "internalType": "uint256",
          "name": "",
          "type": "uint256"
        }
      ],
      "stateMutability": "view",
      "type": "function"
    },
    {
      "inputs": [],
      "name": "smallDragonFarmingTime",
      "outputs": [
        {
          "internalType": "uint256",
          "name": "",
          "type": "uint256"
        }
      ],
      "stateMutability": "view",
      "type": "function"
    },
    {
      "inputs": [],
      "name": "smallDragonSleepTime",
      "outputs": [
        {
          "internalType": "uint256",
          "name": "",
          "type": "uint256"
        }
      ],
      "stateMutability": "view",
      "type": "function"
    },
    {
      "inputs": [],
      "name": "swapAddress",
      "outputs": [
        {
          "internalType": "address",
          "name": "",
          "type": "address"
        }
      ],
      "stateMutability": "view",
      "type": "function"
    },
    {
      "inputs": [],
      "name": "taxReductionPerDay",
      "outputs": [
        {
          "internalType": "uint256",
          "name": "",
          "type": "uint256"
        }
      ],
      "stateMutability": "view",
      "type": "function"
    },
    {
      "inputs": [],
      "name": "theProbabilityOfEncounteringEvilSpirits",
      "outputs": [
        {
          "internalType": "uint256",
          "name": "",
          "type": "uint256"
        }
      ],
      "stateMutability": "view",
      "type": "function"
    },
    {
      "inputs": [
        {
          "internalType": "address",
          "name": "_owner",
          "type": "address"
        }
      ],
      "name": "transferOwnership",
      "outputs": [],
      "stateMutability": "nonpayable",
      "type": "function"
    },
    {
      "inputs": [
        {
          "internalType": "address",
          "name": "",
          "type": "address"
        }
      ],
      "name": "userAuBlindBox",
      "outputs": [
        {
          "internalType": "uint256",
          "name": "",
          "type": "uint256"
        }
      ],
      "stateMutability": "view",
      "type": "function"
    },
    {
      "inputs": [
        {
          "internalType": "address",
          "name": "",
          "type": "address"
        },
        {
          "internalType": "uint256",
          "name": "",
          "type": "uint256"
        }
      ],
      "name": "userDragonFarmings",
      "outputs": [
        {
          "internalType": "uint256",
          "name": "getTime",
          "type": "uint256"
        },
        {
          "internalType": "uint256",
          "name": "farmingTokenReward",
          "type": "uint256"
        },
        {
          "internalType": "uint256",
          "name": "extractAmount",
          "type": "uint256"
        },
        {
          "internalType": "bool",
          "name": "extractFlag",
          "type": "bool"
        }
      ],
      "stateMutability": "view",
      "type": "function"
    },
    {
      "inputs": [
        {
          "internalType": "address",
          "name": "",
          "type": "address"
        },
        {
          "internalType": "uint256",
          "name": "",
          "type": "uint256"
        }
      ],
      "name": "userDragonIds",
      "outputs": [
        {
          "internalType": "uint256",
          "name": "",
          "type": "uint256"
        }
      ],
      "stateMutability": "view",
      "type": "function"
    },
    {
      "inputs": [
        {
          "internalType": "address",
          "name": "",
          "type": "address"
        }
      ],
      "name": "userExtractAmount",
      "outputs": [
        {
          "internalType": "uint256",
          "name": "",
          "type": "uint256"
        }
      ],
      "stateMutability": "view",
      "type": "function"
    },
    {
      "inputs": [
        {
          "internalType": "address",
          "name": "",
          "type": "address"
        }
      ],
      "name": "userFarmingAmount",
      "outputs": [
        {
          "internalType": "uint256",
          "name": "",
          "type": "uint256"
        }
      ],
      "stateMutability": "view",
      "type": "function"
    },
    {
      "inputs": [
        {
          "internalType": "address",
          "name": "",
          "type": "address"
        },
        {
          "internalType": "uint256",
          "name": "",
          "type": "uint256"
        }
      ],
      "name": "userFarmings",
      "outputs": [
        {
          "internalType": "uint256",
          "name": "dragonId",
          "type": "uint256"
        },
        {
          "internalType": "uint256",
          "name": "farmingEndTime",
          "type": "uint256"
        },
        {
          "internalType": "uint256",
          "name": "farmingReward",
          "type": "uint256"
        },
        {
          "internalType": "uint256",
          "name": "farmingResult",
          "type": "uint256"
        }
      ],
      "stateMutability": "view",
      "type": "function"
    },
    {
      "inputs": [
        {
          "internalType": "address",
          "name": "",
          "type": "address"
        }
      ],
      "name": "userSleepCardUsage",
      "outputs": [
        {
          "internalType": "uint256",
          "name": "",
          "type": "uint256"
        }
      ],
      "stateMutability": "view",
      "type": "function"
    },
    {
      "inputs": [
        {
          "internalType": "address",
          "name": "",
          "type": "address"
        }
      ],
      "name": "userTaxationAmount",
      "outputs": [
        {
          "internalType": "uint256",
          "name": "",
          "type": "uint256"
        }
      ],
      "stateMutability": "view",
      "type": "function"
    },
    {
      "inputs": [
        {
          "internalType": "address",
          "name": "",
          "type": "address"
        }
      ],
      "name": "userTokenBlindBox",
      "outputs": [
        {
          "internalType": "uint256",
          "name": "",
          "type": "uint256"
        }
      ],
      "stateMutability": "view",
      "type": "function"
    },
    {
      "inputs": [
        {
          "internalType": "address",
          "name": "",
          "type": "address"
        }
      ],
      "name": "userUnlockingIndex",
      "outputs": [
        {
          "internalType": "uint256",
          "name": "",
          "type": "uint256"
        }
      ],
      "stateMutability": "view",
      "type": "function"
    }
  ],
  "bytecode": "0x60806040526170806011556103e8601255611388601355600c601455600f601555600a601655602360175562278d006018556213c6806019556203f480601a5562015180601b553480156200005357600080fd5b50604051620057533803806200575383398181016040528101906200007991906200033b565b80600073ffffffffffffffffffffffffffffffffffffffff168173ffffffffffffffffffffffffffffffffffffffff1603620000e1576040517f49e27cff00000000000000000000000000000000000000000000000000000000815260040160405180910390fd5b806000806101000a81548173ffffffffffffffffffffffffffffffffffffffff021916908373ffffffffffffffffffffffffffffffffffffffff1602179055508073ffffffffffffffffffffffffffffffffffffffff16600073ffffffffffffffffffffffffffffffffffffffff167f8be0079c531659141344cd1fd0a4f28419497f9722a3daafe3b4186f6b6457e060405160405180910390a35082600460006101000a81548173ffffffffffffffffffffffffffffffffffffffff021916908373ffffffffffffffffffffffffffffffffffffffff16021790555084600160006101000a81548173ffffffffffffffffffffffffffffffffffffffff021916908373ffffffffffffffffffffffffffffffffffffffff16021790555083600260006101000a81548173ffffffffffffffffffffffffffffffffffffffff021916908373ffffffffffffffffffffffffffffffffffffffff16021790555081600360006101000a81548173ffffffffffffffffffffffffffffffffffffffff021916908373ffffffffffffffffffffffffffffffffffffffff1602179055505050505050620003c3565b600080fd5b600073ffffffffffffffffffffffffffffffffffffffff82169050919050565b6000620002be8262000291565b9050919050565b620002d081620002b1565b8114620002dc57600080fd5b50565b600081519050620002f081620002c5565b92915050565b6000620003038262000291565b9050919050565b6200031581620002f6565b81146200032157600080fd5b50565b60008151905062000335816200030a565b92915050565b600080600080600060a086880312156200035a57620003596200028c565b5b60006200036a88828901620002df565b95505060206200037d88828901620002df565b94505060406200039088828901620002df565b9350506060620003a38882890162000324565b9250506080620003b688828901620002df565b9150509295509295909350565b61538080620003d36000396000f3fe608060405234801561001057600080fd5b506004361061028a5760003560e01c80638da5cb5b1161015c578063d2a59d69116100ce578063f48e3c6111610087578063f48e3c61146107f1578063f508ab8b14610821578063f5f85ea514610851578063f6ee6d401461086f578063f6f6dc7a1461088d578063fee4383e146108a95761028a565b8063d2a59d691461072a578063dddec9921461075f578063e19926501461077d578063e60a3c7314610799578063ed228acf146107b7578063f2fde38b146107d55761028a565b8063b467ce4a11610120578063b467ce4a1461062a578063c14f8aad1461065d578063c9105edd1461067b578063cdf68667146106ae578063cfb39754146106de578063d077f791146106fa5761028a565b80638da5cb5b14610584578063905a6e75146105a2578063916cb337146105c057806392439012146105de5780639d8b95d1146105fa5761028a565b80633a162bd5116102005780636c843e93116101b95780636c843e93146104c05780637dc4b9cc146104de57806380c0976e146104fa57806380e470351461051857806380f6d7821461053657806383904c48146105545761028a565b80633a162bd5146103e757806346aa1f90146104055780634b2cc004146104235780634eb2a76514610456578063651640fd1461048657806367185db4146104a25761028a565b806314756fe61161025257806314756fe614610335578063165e593414610353578063184f66881461037157806318537ca4146103a1578063243e23aa146103bf5780632b968958146103dd5761028a565b806301edee4f1461028f5780630c3924d4146102ab5780630c5c0860146102c95780631113b2af146102e7578063124f713c14610305575b600080fd5b6102a960048036038101906102a49190613d5f565b6108c5565b005b6102b36114b0565b6040516102c09190613e03565b60405180910390f35b6102d16117cd565b6040516102de9190613e2d565b60405180910390f35b6102ef6117d3565b6040516102fc9190613ec7565b60405180910390f35b61031f600480360381019061031a9190613f20565b6117f9565b60405161032c9190613e2d565b60405180910390f35b61033d61182a565b60405161034a9190613f93565b60405180910390f35b61035b611850565b6040516103689190613e2d565b60405180910390f35b61038b60048036038101906103869190613fae565b611856565b6040516103989190613e2d565b60405180910390f35b6103a961186e565b6040516103b69190613e2d565b60405180910390f35b6103c7611ad3565b6040516103d49190613e2d565b60405180910390f35b6103e5611ad9565b005b6103ef611bfc565b6040516103fc9190613ffc565b60405180910390f35b61040d611c22565b60405161041a91906140c6565b60405180910390f35b61043d600480360381019061043891906140e8565b611cd6565b60405161044d9493929190614128565b60405180910390f35b610470600480360381019061046b9190613fae565b611d23565b60405161047d9190613e2d565b60405180910390f35b6104a0600480360381019061049b9190613d5f565b611d3b565b005b6104aa612139565b6040516104b79190613e2d565b60405180910390f35b6104c861213f565b6040516104d5919061417c565b60405180910390f35b6104f860048036038101906104f39190613fae565b612184565b005b61050261224d565b60405161050f9190613e2d565b60405180910390f35b610520612253565b60405161052d9190613e2d565b60405180910390f35b61053e612259565b60405161054b919061417c565b60405180910390f35b61056e60048036038101906105699190613fae565b61227f565b60405161057b9190613e2d565b60405180910390f35b61058c612297565b604051610599919061417c565b60405180910390f35b6105aa6122bb565b6040516105b79190613e2d565b60405180910390f35b6105c86122c1565b6040516105d59190613e2d565b60405180910390f35b6105f860048036038101906105f391906141d5565b6122c7565b005b610614600480360381019061060f9190613fae565b612390565b6040516106219190613e2d565b60405180910390f35b610644600480360381019061063f9190613f20565b6123a8565b6040516106549493929190614128565b60405180910390f35b6106656123f5565b6040516106729190613e2d565b60405180910390f35b61069560048036038101906106909190613f20565b6123fb565b6040516106a5949392919061421d565b60405180910390f35b6106c860048036038101906106c39190613fae565b612455565b6040516106d59190613e2d565b60405180910390f35b6106f860048036038101906106f39190613d5f565b61246d565b005b610714600480360381019061070f9190613d5f565b61282d565b60405161072191906142b7565b60405180910390f35b610744600480360381019061073f9190613d5f565b612f60565b604051610756969594939291906142d2565b60405180910390f35b610767612fc9565b6040516107749190613e2d565b60405180910390f35b61079760048036038101906107929190613fae565b612fcf565b005b6107a1613098565b6040516107ae9190614446565b60405180910390f35b6107bf6132a0565b6040516107cc91906144bd565b60405180910390f35b6107ef60048036038101906107ea9190613fae565b61334f565b005b61080b60048036038101906108069190613fae565b6134d7565b6040516108189190613e2d565b60405180910390f35b61083b60048036038101906108369190613fae565b6134ef565b6040516108489190613e2d565b60405180910390f35b610859613507565b6040516108669190613e2d565b60405180910390f35b61087761350d565b6040516108849190613e2d565b60405180910390f35b6108a760048036038101906108a29190613fae565b613617565b005b6108c360048036038101906108be9190613d5f565b6136e0565b005b6000339050600042905060008390506000600560008573ffffffffffffffffffffffffffffffffffffffff1673ffffffffffffffffffffffffffffffffffffffff1681526020019081526020016000205490506000600660008673ffffffffffffffffffffffffffffffffffffffff1673ffffffffffffffffffffffffffffffffffffffff1681526020019081526020016000205490506000600760008773ffffffffffffffffffffffffffffffffffffffff1673ffffffffffffffffffffffffffffffffffffffff16815260200190815260200160002054905060008183856109af9190614507565b6109b99190614507565b9050878110156109fe576040517f08c379a00000000000000000000000000000000000000000000000000000000081526004016109f590614598565b60405180910390fd5b6000600d60008973ffffffffffffffffffffffffffffffffffffffff1673ffffffffffffffffffffffffffffffffffffffff168152602001908152602001600020905060005b8180549050811015610d435760008a1115610d435787828281548110610a6d57610a6c6145b8565b5b906000526020600020906004020160000154108015610abb5750818181548110610a9a57610a996145b8565b5b906000526020600020906004020160030160009054906101000a900460ff16155b15610d30576000610af089848481548110610ad957610ad86145b8565b5b906000526020600020906004020160000154613b99565b9050600080600a8310610b2957848481548110610b1057610b0f6145b8565b5b9060005260206000209060040201600101549150610b75565b606483601654878781548110610b4257610b416145b8565b5b906000526020600020906004020160010154610b5e91906145e7565b610b6891906145e7565b610b729190614658565b91505b6000858581548110610b8a57610b896145b8565b5b90600052602060002090600402016002015483610ba79190614507565b90508d8111610bc657808e610bbc9190614507565b9d50809150610bce565b8d915060009d505b6000868681548110610be357610be26145b8565b5b90600052602060002090600402016002015483610c009190614689565b9050868681548110610c1557610c146145b8565b5b906000526020600020906004020160010154811115610c69576040517f08c379a0000000000000000000000000000000000000000000000000000000008152600401610c6090614709565b60405180910390fd5b868681548110610c7c57610c7b6145b8565b5b906000526020600020906004020160010154811015610cc35780878781548110610ca957610ca86145b8565b5b906000526020600020906004020160020181905550610d2a565b80878781548110610cd757610cd66145b8565b5b9060005260206000209060040201600201819055506001878781548110610d0157610d006145b8565b5b906000526020600020906004020160030160006101000a81548160ff0219169083151502179055505b50505050505b8080610d3b90614729565b915050610a44565b506000808a106110415760005b828054905081101561103f5760008b111561103f5788838281548110610d7957610d786145b8565b5b906000526020600020906004020160000154108015610dc75750828181548110610da657610da56145b8565b5b906000526020600020906004020160030160009054906101000a900460ff16155b1561102c576000610dfc8a858481548110610de557610de46145b8565b5b906000526020600020906004020160000154613b99565b9050600080600a831015610e1a5782600a610e179190614507565b90505b6000868581548110610e2f57610e2e6145b8565b5b906000526020600020906004020160020154878681548110610e5457610e536145b8565b5b906000526020600020906004020160010154610e709190614507565b90508e8111610e8f57808f610e859190614507565b9e50809250610e97565b8e925060009e505b6000878681548110610eac57610eab6145b8565b5b90600052602060002090600402016002015484610ec99190614689565b9050878681548110610ede57610edd6145b8565b5b906000526020600020906004020160010154811115610f32576040517f08c379a0000000000000000000000000000000000000000000000000000000008152600401610f2990614709565b60405180910390fd5b878681548110610f4557610f446145b8565b5b906000526020600020906004020160010154811015610f8c5780888781548110610f7257610f716145b8565b5b906000526020600020906004020160020181905550610ff3565b80888781548110610fa057610f9f6145b8565b5b9060005260206000209060040201600201819055506001888781548110610fca57610fc96145b8565b5b906000526020600020906004020160030160006101000a81548160ff0219169083151502179055505b6103e8836017548661100591906145e7565b61100f91906145e7565b6110199190614658565b876110249190614689565b965050505050505b808061103790614729565b915050610d50565b505b86600660008b73ffffffffffffffffffffffffffffffffffffffff1673ffffffffffffffffffffffffffffffffffffffff16815260200190815260200160002060008282546110909190614689565b9250508190555080600760008b73ffffffffffffffffffffffffffffffffffffffff1673ffffffffffffffffffffffffffffffffffffffff16815260200190815260200160002060008282546110e69190614689565b92505081905550600081886110fb9190614507565b9050600160009054906101000a900473ffffffffffffffffffffffffffffffffffffffff1673ffffffffffffffffffffffffffffffffffffffff166323b872dd600460009054906101000a900473ffffffffffffffffffffffffffffffffffffffff168c600260009054906101000a900473ffffffffffffffffffffffffffffffffffffffff1673ffffffffffffffffffffffffffffffffffffffff166319af2823866040518263ffffffff1660e01b81526004016111ba9190613e2d565b602060405180830381865afa1580156111d7573d6000803e3d6000fd5b505050506040513d601f19601f820116820180604052508101906111fb9190614786565b6040518463ffffffff1660e01b8152600401611219939291906147b3565b600060405180830381600087803b15801561123357600080fd5b505af1925050508015611244575060015b61131b576112506147f7565b806308c379a0036112ac575061126461488a565b8061126f57506112ae565b806040517f08c379a00000000000000000000000000000000000000000000000000000000081526004016112a39190614988565b60405180910390fd5b505b3d80600081146112da576040519150601f19603f3d011682016040523d82523d6000602084013e6112df565b606091505b506040517f08c379a0000000000000000000000000000000000000000000000000000000008152600401611312906149f6565b60405180910390fd5b8973ffffffffffffffffffffffffffffffffffffffff167fa3f98d5dc6b06ac2bb075b43a9b4e6435b6014d1119ee56239152469cdd0d04e43600260009054906101000a900473ffffffffffffffffffffffffffffffffffffffff1673ffffffffffffffffffffffffffffffffffffffff166319af2823856040518263ffffffff1660e01b81526004016113af9190613e2d565b602060405180830381865afa1580156113cc573d6000803e3d6000fd5b505050506040513d601f19601f820116820180604052508101906113f09190614786565b600260009054906101000a900473ffffffffffffffffffffffffffffffffffffffff1673ffffffffffffffffffffffffffffffffffffffff166319af2823876040518263ffffffff1660e01b815260040161144b9190613e2d565b602060405180830381865afa158015611468573d6000803e3d6000fd5b505050506040513d601f19601f8201168201806040525081019061148c9190614786565b60405161149b93929190614a16565b60405180910390a25050505050505050505050565b6114b8613c42565b600033905060004290506000600560008473ffffffffffffffffffffffffffffffffffffffff1673ffffffffffffffffffffffffffffffffffffffff1681526020019081526020016000205490506000600660008573ffffffffffffffffffffffffffffffffffffffff1673ffffffffffffffffffffffffffffffffffffffff1681526020019081526020016000205490506000600760008673ffffffffffffffffffffffffffffffffffffffff1673ffffffffffffffffffffffffffffffffffffffff168152602001908152602001600020549050600081838561159d9190614507565b6115a79190614507565b90506000600d60008873ffffffffffffffffffffffffffffffffffffffff1673ffffffffffffffffffffffffffffffffffffffff168152602001908152602001600020805480602002602001604051908101604052809291908181526020016000905b8282101561167557838290600052602060002090600402016040518060800160405290816000820154815260200160018201548152602001600282015481526020016003820160009054906101000a900460ff1615151515815250508152602001906001019061160a565b5050505090506000805b8251811015611779578783828151811061169c5761169b6145b8565b5b60200260200101516000015110156117665760006116d8898584815181106116c7576116c66145b8565b5b602002602001015160000151613b99565b9050600a8110611713578382815181106116f5576116f46145b8565b5b6020026020010151602001518361170c9190614689565b9250611764565b60648160165486858151811061172c5761172b6145b8565b5b60200260200101516020015161174291906145e7565b61174c91906145e7565b6117569190614658565b836117619190614689565b92505b505b808061177190614729565b91505061167f565b508385826117879190614507565b6117919190614507565b905060006040518060a0016040528088815260200187815260200185815260200183815260200186815250905080995050505050505050505090565b60155481565b600360009054906101000a900473ffffffffffffffffffffffffffffffffffffffff1681565b6010602052816000526040600020818154811061181557600080fd5b90600052602060002001600091509150505481565b600260009054906101000a900473ffffffffffffffffffffffffffffffffffffffff1681565b60165481565b600c6020528060005260406000206000915090505481565b60008033905060004290506000600b60008473ffffffffffffffffffffffffffffffffffffffff1673ffffffffffffffffffffffffffffffffffffffff16815260200190815260200160002054905060008111611900576040517f08c379a00000000000000000000000000000000000000000000000000000000081526004016118f790614abf565b60405180910390fd5b600061190a613c00565b9050600060125460016012546013546119239190614507565b61192d9190614689565b836119389190614adf565b6119429190614689565b905061194c613c71565b84816000018181525050818160200181815250506000816060019015159081151581525050600d60008773ffffffffffffffffffffffffffffffffffffffff1673ffffffffffffffffffffffffffffffffffffffff16815260200190815260200160002081908060018154018082558091505060019003906000526020600020906004020160009091909190915060008201518160000155602082015181600101556040820151816002015560608201518160030160006101000a81548160ff021916908315150217905550505081600560008873ffffffffffffffffffffffffffffffffffffffff1673ffffffffffffffffffffffffffffffffffffffff1681526020019081526020016000206000828254611a699190614689565b925050819055506001600b60008873ffffffffffffffffffffffffffffffffffffffff1673ffffffffffffffffffffffffffffffffffffffff1681526020019081526020016000206000828254611ac09190614507565b9250508190555081965050505050505090565b60125481565b60008054906101000a900473ffffffffffffffffffffffffffffffffffffffff1673ffffffffffffffffffffffffffffffffffffffff163373ffffffffffffffffffffffffffffffffffffffff1614611b5e576040517f82b4290000000000000000000000000000000000000000000000000000000000815260040160405180910390fd5b60008060006101000a81548173ffffffffffffffffffffffffffffffffffffffff021916908373ffffffffffffffffffffffffffffffffffffffff160217905550600073ffffffffffffffffffffffffffffffffffffffff163373ffffffffffffffffffffffffffffffffffffffff167f8be0079c531659141344cd1fd0a4f28419497f9722a3daafe3b4186f6b6457e060405160405180910390a3565b600160009054906101000a900473ffffffffffffffffffffffffffffffffffffffff1681565b606060003390506000600160009054906101000a900473ffffffffffffffffffffffffffffffffffffffff1673ffffffffffffffffffffffffffffffffffffffff16637c688597836040518263ffffffff1660e01b8152600401611c86919061417c565b600060405180830381865afa158015611ca3573d6000803e3d6000fd5b505050506040513d6000823e3d601f19601f82011682018060405250810190611ccc9190614bf8565b9050809250505090565b60096020528160005260406000208181548110611cf257600080fd5b9060005260206000209060040201600091509150508060000154908060010154908060020154908060030154905084565b60066020528060005260406000206000915090505481565b600033905060004290506000600f600085815260200190815260200160002090508273ffffffffffffffffffffffffffffffffffffffff168160010160009054906101000a900473ffffffffffffffffffffffffffffffffffffffff1673ffffffffffffffffffffffffffffffffffffffff1614611dee576040517f08c379a0000000000000000000000000000000000000000000000000000000008152600401611de590614cb3565b60405180910390fd5b8060050160009054906101000a900460ff1615611e40576040517f08c379a0000000000000000000000000000000000000000000000000000000008152600401611e3790614d45565b60405180910390fd5b81816004015410611e86576040517f08c379a0000000000000000000000000000000000000000000000000000000008152600401611e7d90614dd7565b60405180910390fd5b600160009054906101000a900473ffffffffffffffffffffffffffffffffffffffff1673ffffffffffffffffffffffffffffffffffffffff166323b872dd3085876040518463ffffffff1660e01b8152600401611ee5939291906147b3565b600060405180830381600087803b158015611eff57600080fd5b505af1925050508015611f10575060015b611f8457611f1c6147f7565b806308c379a003611f785750611f3061488a565b80611f3b5750611f7a565b806040517f08c379a0000000000000000000000000000000000000000000000000000000008152600401611f6f9190614988565b60405180910390fd5b505b3d6000803e3d6000fd5b600f60008581526020019081526020016000206000808201600090556001820160006101000a81549073ffffffffffffffffffffffffffffffffffffffff02191690556002820160009055600382016000905560048201600090556005820160006101000a81549060ff021916905550506000601060008573ffffffffffffffffffffffffffffffffffffffff1673ffffffffffffffffffffffffffffffffffffffff168152602001908152602001600020905060005b81805490508110156120f9578582828154811061205b5761205a6145b8565b5b9060005260206000200154036120e657816001838054905061207d9190614507565b8154811061208e5761208d6145b8565b5b90600052602060002001548282815481106120ac576120ab6145b8565b5b9060005260206000200181905550818054806120cb576120ca614df7565b5b600190038181906000526020600020016000905590556120f9565b80806120f190614729565b91505061203b565b50847f04d5de10c5fe7611da7ca95c1692517b7d1a8b45d22053338fe087c1f95978b78560405161212a919061417c565b60405180910390a25050505050565b60195481565b600080306001436121509190614507565b40604051602001612162929190614e99565b6040516020818303038152906040528051906020012090508060001c91505090565b60008054906101000a900473ffffffffffffffffffffffffffffffffffffffff1673ffffffffffffffffffffffffffffffffffffffff163373ffffffffffffffffffffffffffffffffffffffff1614612209576040517f82b4290000000000000000000000000000000000000000000000000000000000815260040160405180910390fd5b80600460006101000a81548173ffffffffffffffffffffffffffffffffffffffff021916908373ffffffffffffffffffffffffffffffffffffffff16021790555050565b601b5481565b60145481565b600460009054906101000a900473ffffffffffffffffffffffffffffffffffffffff1681565b600e6020528060005260406000206000915090505481565b60008054906101000a900473ffffffffffffffffffffffffffffffffffffffff1681565b60175481565b60135481565b60008054906101000a900473ffffffffffffffffffffffffffffffffffffffff1673ffffffffffffffffffffffffffffffffffffffff163373ffffffffffffffffffffffffffffffffffffffff161461234c576040517f82b4290000000000000000000000000000000000000000000000000000000000815260040160405180910390fd5b80600360006101000a81548173ffffffffffffffffffffffffffffffffffffffff021916908373ffffffffffffffffffffffffffffffffffffffff16021790555050565b60056020528060005260406000206000915090505481565b600a60205281600052604060002081815481106123c457600080fd5b9060005260206000209060040201600091509150508060000154908060010154908060020154908060030154905084565b601a5481565b600d602052816000526040600020818154811061241757600080fd5b9060005260206000209060040201600091509150508060000154908060010154908060020154908060030160009054906101000a900460ff16905084565b600b6020528060005260406000206000915090505481565b60003390506000600360009054906101000a900473ffffffffffffffffffffffffffffffffffffffff1673ffffffffffffffffffffffffffffffffffffffff16634eb7d190836040518263ffffffff1660e01b81526004016124cf919061417c565b600060405180830381865afa1580156124ec573d6000803e3d6000fd5b505050506040513d6000823e3d601f19601f820116820180604052508101906125159190614f9d565b90506000815190506000600860008573ffffffffffffffffffffffffffffffffffffffff1673ffffffffffffffffffffffffffffffffffffffff168152602001908152602001600020548261256a9190614507565b9050600081116125af576040517f08c379a00000000000000000000000000000000000000000000000000000000081526004016125a690615032565b60405180910390fd5b6000600f600087815260200190815260200160002090508473ffffffffffffffffffffffffffffffffffffffff168160010160009054906101000a900473ffffffffffffffffffffffffffffffffffffffff1673ffffffffffffffffffffffffffffffffffffffff1614612658576040517f08c379a000000000000000000000000000000000000000000000000000000000815260040161264f9061509e565b60405180910390fd5b6000429050808260040154116126a3576040517f08c379a000000000000000000000000000000000000000000000000000000000815260040161269a90615130565b60405180910390fd5b601a548260040160008282546126b99190614507565b925050819055506001600860008873ffffffffffffffffffffffffffffffffffffffff1673ffffffffffffffffffffffffffffffffffffffff16815260200190815260200160002060008282546127109190614689565b9250508190555081600f6000898152602001908152602001600020600082015481600001556001820160009054906101000a900473ffffffffffffffffffffffffffffffffffffffff168160010160006101000a81548173ffffffffffffffffffffffffffffffffffffffff021916908373ffffffffffffffffffffffffffffffffffffffff1602179055506002820154816002015560038201548160030155600482015481600401556005820160009054906101000a900460ff168160050160006101000a81548160ff021916908315150217905550905050867f8ee2087cb07bba967083d109af9bc795250912ab6e8ea1469cde6c49b80045e2601a5460405161281c9190613e2d565b60405180910390a250505050505050565b612835613c9b565b600033905060004290506000600f600086815260200190815260200160002090506000601154826002015461286a9190614689565b90508160050160009054906101000a900460ff1615801561288b5750828110155b6128ca576040517f08c379a00000000000000000000000000000000000000000000000000000000081526004016128c19061519c565b60405180910390fd5b60006040518060800160405280888152602001858152602001600060058111156128f7576128f66151bc565b5b8152602001600060038111156129105761290f6151bc565b5b815250905060006064612921613c00565b61292b9190614adf565b9050601454811015612bb25760038081111561294a576129496151bc565b5b82606001818152505060096000898152602001908152602001600020829080600181540180825580915050600190039060005260206000209060040201600090919091909150600082015181600001556020820151816001015560408201518160020155606082015181600301555050600a60008773ffffffffffffffffffffffffffffffffffffffff1673ffffffffffffffffffffffffffffffffffffffff16815260200190815260200160002082908060018154018082558091505060019003906000526020600020906004020160009091909190915060008201518160000155602082015181600101556040820151816002015560608201518160030155505060195485612a5b9190614689565b846004018190555060008460050160006101000a81548160ff02191690831515021790555083600f60008a8152602001908152602001600020600082015481600001556001820160009054906101000a900473ffffffffffffffffffffffffffffffffffffffff168160010160006101000a81548173ffffffffffffffffffffffffffffffffffffffff021916908373ffffffffffffffffffffffffffffffffffffffff1602179055506002820154816002015560038201548160030155600482015481600401556005820160009054906101000a900460ff168160050160006101000a81548160ff021916908315150217905550905050877fec506780a0336f02b9731f0e8752c1ff5d4099e2935bdfa72839c29be1b482f0836060015160006005811115612b8e57612b8d6151bc565b5b604051612b9c9291906151eb565b60405180910390a2819650505050505050612f5b565b6000806003811115612bc757612bc66151bc565b5b90506000806005811115612bde57612bdd6151bc565b5b905060006064612bec613c00565b612bf69190614adf565b9050601554811015612c8a5760016003811115612c1657612c156151bc565b5b925060036005811115612c2c57612c2b6151bc565b5b91506001600b60008b73ffffffffffffffffffffffffffffffffffffffff1673ffffffffffffffffffffffffffffffffffffffff1681526020019081526020016000206000828254612c7e9190614689565b92505081905550612d0d565b60016003811115612c9e57612c9d6151bc565b5b9250600580811115612cb357612cb26151bc565b5b91506001600c60008b73ffffffffffffffffffffffffffffffffffffffff1673ffffffffffffffffffffffffffffffffffffffff1681526020019081526020016000206000828254612d059190614689565b925050819055505b8285606001818152505081856040018181525050600960008c8152602001908152602001600020859080600181540180825580915050600190039060005260206000209060040201600090919091909150600082015181600001556020820151816001015560408201518160020155606082015181600301555050600a60008a73ffffffffffffffffffffffffffffffffffffffff1673ffffffffffffffffffffffffffffffffffffffff16815260200190815260200160002085908060018154018082558091505060019003906000526020600020906004020160009091909190915060008201518160000155602082015181600101556040820151816002015560608201518160030155505060008760050160006101000a81548160ff02191690831515021790555087876002018190555086600f60008d8152602001908152602001600020600082015481600001556001820160009054906101000a900473ffffffffffffffffffffffffffffffffffffffff168160010160006101000a81548173ffffffffffffffffffffffffffffffffffffffff021916908373ffffffffffffffffffffffffffffffffffffffff1602179055506002820154816002015560038201548160030155600482015481600401556005820160009054906101000a900460ff168160050160006101000a81548160ff0219169083151502179055509050508a7fec506780a0336f02b9731f0e8752c1ff5d4099e2935bdfa72839c29be1b482f08484604051612f469291906151eb565b60405180910390a28499505050505050505050505b919050565b600f6020528060005260406000206000915090508060000154908060010160009054906101000a900473ffffffffffffffffffffffffffffffffffffffff16908060020154908060030154908060040154908060050160009054906101000a900460ff16905086565b60115481565b60008054906101000a900473ffffffffffffffffffffffffffffffffffffffff1673ffffffffffffffffffffffffffffffffffffffff163373ffffffffffffffffffffffffffffffffffffffff1614613054576040517f82b4290000000000000000000000000000000000000000000000000000000000815260040160405180910390fd5b80600160006101000a81548173ffffffffffffffffffffffffffffffffffffffff021916908373ffffffffffffffffffffffffffffffffffffffff16021790555050565b606060003390506000601060008373ffffffffffffffffffffffffffffffffffffffff1673ffffffffffffffffffffffffffffffffffffffff16815260200190815260200160002090506000818054905067ffffffffffffffff8111156131025761310161482a565b5b60405190808252806020026020018201604052801561313b57816020015b613128613cc3565b8152602001906001900390816131205790505b50905060005b8280549050811015613296576000838281548110613162576131616145b8565b5b906000526020600020015490506000600f60008381526020019081526020016000206040518060c0016040529081600082015481526020016001820160009054906101000a900473ffffffffffffffffffffffffffffffffffffffff1673ffffffffffffffffffffffffffffffffffffffff1673ffffffffffffffffffffffffffffffffffffffff1681526020016002820154815260200160038201548152602001600482015481526020016005820160009054906101000a900460ff1615151515815250509050600060405180608001604052808360000151815260200183606001518152602001836080015181526020018360a001511515815250905080858581518110613275576132746145b8565b5b6020026020010181905250505050808061328e90614729565b915050613141565b5080935050505090565b6132a8613ced565b60003390506132b5613ced565b600b60008373ffffffffffffffffffffffffffffffffffffffff1673ffffffffffffffffffffffffffffffffffffffff16815260200190815260200160002054816020018181525050600c60008373ffffffffffffffffffffffffffffffffffffffff1673ffffffffffffffffffffffffffffffffffffffff16815260200190815260200160002054816060018181525050809250505090565b60008054906101000a900473ffffffffffffffffffffffffffffffffffffffff1673ffffffffffffffffffffffffffffffffffffffff163373ffffffffffffffffffffffffffffffffffffffff16146133d4576040517f82b4290000000000000000000000000000000000000000000000000000000000815260040160405180910390fd5b600073ffffffffffffffffffffffffffffffffffffffff168173ffffffffffffffffffffffffffffffffffffffff160361343a576040517f49e27cff00000000000000000000000000000000000000000000000000000000815260040160405180910390fd5b806000806101000a81548173ffffffffffffffffffffffffffffffffffffffff021916908373ffffffffffffffffffffffffffffffffffffffff1602179055508073ffffffffffffffffffffffffffffffffffffffff163373ffffffffffffffffffffffffffffffffffffffff167f8be0079c531659141344cd1fd0a4f28419497f9722a3daafe3b4186f6b6457e060405160405180910390a350565b60086020528060005260406000206000915090505481565b60076020528060005260406000206000915090505481565b60185481565b6000803390506000600360009054906101000a900473ffffffffffffffffffffffffffffffffffffffff1673ffffffffffffffffffffffffffffffffffffffff16634eb7d190836040518263ffffffff1660e01b8152600401613570919061417c565b600060405180830381865afa15801561358d573d6000803e3d6000fd5b505050506040513d6000823e3d601f19601f820116820180604052508101906135b69190614f9d565b90506000815190506000600860008573ffffffffffffffffffffffffffffffffffffffff1673ffffffffffffffffffffffffffffffffffffffff168152602001908152602001600020548261360b9190614507565b90508094505050505090565b60008054906101000a900473ffffffffffffffffffffffffffffffffffffffff1673ffffffffffffffffffffffffffffffffffffffff163373ffffffffffffffffffffffffffffffffffffffff161461369c576040517f82b4290000000000000000000000000000000000000000000000000000000000815260040160405180910390fd5b80600260006101000a81548173ffffffffffffffffffffffffffffffffffffffff021916908373ffffffffffffffffffffffffffffffffffffffff16021790555050565b60003390506000600f6000848152602001908152602001600020905060008160000154036139a957600160009054906101000a900473ffffffffffffffffffffffffffffffffffffffff1673ffffffffffffffffffffffffffffffffffffffff166323b872dd8330866040518463ffffffff1660e01b8152600401613767939291906147b3565b600060405180830381600087803b15801561378157600080fd5b505af1925050508015613792575060015b6138065761379e6147f7565b806308c379a0036137fa57506137b261488a565b806137bd57506137fc565b806040517f08c379a00000000000000000000000000000000000000000000000000000000081526004016137f19190614988565b60405180910390fd5b505b3d6000803e3d6000fd5b828160000181905550818160010160006101000a81548173ffffffffffffffffffffffffffffffffffffffff021916908373ffffffffffffffffffffffffffffffffffffffff16021790555060008160050160006101000a81548160ff02191690831515021790555080600f6000858152602001908152602001600020600082015481600001556001820160009054906101000a900473ffffffffffffffffffffffffffffffffffffffff168160010160006101000a81548173ffffffffffffffffffffffffffffffffffffffff021916908373ffffffffffffffffffffffffffffffffffffffff1602179055506002820154816002015560038201548160030155600482015481600401556005820160009054906101000a900460ff168160050160006101000a81548160ff021916908315150217905550905050601060008373ffffffffffffffffffffffffffffffffffffffff1673ffffffffffffffffffffffffffffffffffffffff1681526020019081526020016000208390806001815401808255809150506001900390600052602060002001600090919091909150555b60004290508160050160009054906101000a900460ff1615613a00576040517f08c379a00000000000000000000000000000000000000000000000000000000081526004016139f790615260565b60405180910390fd5b8082600401541115613a47576040517f08c379a0000000000000000000000000000000000000000000000000000000008152600401613a3e906152cc565b60405180910390fd5b80826002018190555060018260050160006101000a81548160ff02191690831515021790555060115481613a7b9190614689565b826003018190555081600f6000868152602001908152602001600020600082015481600001556001820160009054906101000a900473ffffffffffffffffffffffffffffffffffffffff168160010160006101000a81548173ffffffffffffffffffffffffffffffffffffffff021916908373ffffffffffffffffffffffffffffffffffffffff1602179055506002820154816002015560038201548160030155600482015481600401556005820160009054906101000a900460ff168160050160006101000a81548160ff0219169083151502179055509050507f61c069f0d3725169cbfddaf1a5389632f551f2a7aeb84e785c4b94043e53ec23848360030154604051613b8b9291906151eb565b60405180910390a150505050565b600080620151808385613bac9190614507565b613bb69190614658565b90506000620151808486613bca9190614507565b613bd49190614adf565b14613be957600181613be69190614689565b90505b600a8110613bf657600a90505b8091505092915050565b6000600143613c0f9190614507565b404243604051602001613c249392919061530d565b6040516020818303038152906040528051906020012060001c905090565b6040518060a0016040528060008152602001600081526020016000815260200160008152602001600081525090565b60405180608001604052806000815260200160008152602001600081526020016000151581525090565b6040518060800160405280600081526020016000815260200160008152602001600081525090565b60405180608001604052806000815260200160008152602001600081526020016000151581525090565b6040518060800160405280600081526020016000815260200160008152602001600081525090565b6000604051905090565b600080fd5b600080fd5b6000819050919050565b613d3c81613d29565b8114613d4757600080fd5b50565b600081359050613d5981613d33565b92915050565b600060208284031215613d7557613d74613d1f565b5b6000613d8384828501613d4a565b91505092915050565b613d9581613d29565b82525050565b60a082016000820151613db16000850182613d8c565b506020820151613dc46020850182613d8c565b506040820151613dd76040850182613d8c565b506060820151613dea6060850182613d8c565b506080820151613dfd6080850182613d8c565b50505050565b600060a082019050613e186000830184613d9b565b92915050565b613e2781613d29565b82525050565b6000602082019050613e426000830184613e1e565b92915050565b600073ffffffffffffffffffffffffffffffffffffffff82169050919050565b6000819050919050565b6000613e8d613e88613e8384613e48565b613e68565b613e48565b9050919050565b6000613e9f82613e72565b9050919050565b6000613eb182613e94565b9050919050565b613ec181613ea6565b82525050565b6000602082019050613edc6000830184613eb8565b92915050565b6000613eed82613e48565b9050919050565b613efd81613ee2565b8114613f0857600080fd5b50565b600081359050613f1a81613ef4565b92915050565b60008060408385031215613f3757613f36613d1f565b5b6000613f4585828601613f0b565b9250506020613f5685828601613d4a565b9150509250929050565b6000613f6b82613e72565b9050919050565b6000613f7d82613f60565b9050919050565b613f8d81613f72565b82525050565b6000602082019050613fa86000830184613f84565b92915050565b600060208284031215613fc457613fc3613d1f565b5b6000613fd284828501613f0b565b91505092915050565b6000613fe682613f60565b9050919050565b613ff681613fdb565b82525050565b60006020820190506140116000830184613fed565b92915050565b600081519050919050565b600082825260208201905092915050565b6000819050602082019050919050565b600061404f8383613d8c565b60208301905092915050565b6000602082019050919050565b600061407382614017565b61407d8185614022565b935061408883614033565b8060005b838110156140b95781516140a08882614043565b97506140ab8361405b565b92505060018101905061408c565b5085935050505092915050565b600060208201905081810360008301526140e08184614068565b905092915050565b600080604083850312156140ff576140fe613d1f565b5b600061410d85828601613d4a565b925050602061411e85828601613d4a565b9150509250929050565b600060808201905061413d6000830187613e1e565b61414a6020830186613e1e565b6141576040830185613e1e565b6141646060830184613e1e565b95945050505050565b61417681613ee2565b82525050565b6000602082019050614191600083018461416d565b92915050565b60006141a282613e48565b9050919050565b6141b281614197565b81146141bd57600080fd5b50565b6000813590506141cf816141a9565b92915050565b6000602082840312156141eb576141ea613d1f565b5b60006141f9848285016141c0565b91505092915050565b60008115159050919050565b61421781614202565b82525050565b60006080820190506142326000830187613e1e565b61423f6020830186613e1e565b61424c6040830185613e1e565b614259606083018461420e565b95945050505050565b6080820160008201516142786000850182613d8c565b50602082015161428b6020850182613d8c565b50604082015161429e6040850182613d8c565b5060608201516142b16060850182613d8c565b50505050565b60006080820190506142cc6000830184614262565b92915050565b600060c0820190506142e76000830189613e1e565b6142f4602083018861416d565b6143016040830187613e1e565b61430e6060830186613e1e565b61431b6080830185613e1e565b61432860a083018461420e565b979650505050505050565b600081519050919050565b600082825260208201905092915050565b6000819050602082019050919050565b61436881614202565b82525050565b6080820160008201516143846000850182613d8c565b5060208201516143976020850182613d8c565b5060408201516143aa6040850182613d8c565b5060608201516143bd606085018261435f565b50505050565b60006143cf838361436e565b60808301905092915050565b6000602082019050919050565b60006143f382614333565b6143fd818561433e565b93506144088361434f565b8060005b8381101561443957815161442088826143c3565b975061442b836143db565b92505060018101905061440c565b5085935050505092915050565b6000602082019050818103600083015261446081846143e8565b905092915050565b60808201600082015161447e6000850182613d8c565b5060208201516144916020850182613d8c565b5060408201516144a46040850182613d8c565b5060608201516144b76060850182613d8c565b50505050565b60006080820190506144d26000830184614468565b92915050565b7f4e487b7100000000000000000000000000000000000000000000000000000000600052601160045260246000fd5b600061451282613d29565b915061451d83613d29565b9250828203905081811115614535576145346144d8565b5b92915050565b600082825260208201905092915050565b7f596f75722062616c616e636520697320696e73756666696369656e7400000000600082015250565b6000614582601c8361453b565b915061458d8261454c565b602082019050919050565b600060208201905081810360008301526145b181614575565b9050919050565b7f4e487b7100000000000000000000000000000000000000000000000000000000600052603260045260246000fd5b60006145f282613d29565b91506145fd83613d29565b925082820261460b81613d29565b91508282048414831517614622576146216144d8565b5b5092915050565b7f4e487b7100000000000000000000000000000000000000000000000000000000600052601260045260246000fd5b600061466382613d29565b915061466e83613d29565b92508261467e5761467d614629565b5b828204905092915050565b600061469482613d29565b915061469f83613d29565b92508282019050808211156146b7576146b66144d8565b5b92915050565b7f436f6d7075746174696f6e206572726f72730000000000000000000000000000600082015250565b60006146f360128361453b565b91506146fe826146bd565b602082019050919050565b60006020820190508181036000830152614722816146e6565b9050919050565b600061473482613d29565b91507fffffffffffffffffffffffffffffffffffffffffffffffffffffffffffffffff8203614766576147656144d8565b5b600182019050919050565b60008151905061478081613d33565b92915050565b60006020828403121561479c5761479b613d1f565b5b60006147aa84828501614771565b91505092915050565b60006060820190506147c8600083018661416d565b6147d5602083018561416d565b6147e26040830184613e1e565b949350505050565b60008160e01c9050919050565b600060033d11156148165760046000803e6148136000516147ea565b90505b90565b6000601f19601f8301169050919050565b7f4e487b7100000000000000000000000000000000000000000000000000000000600052604160045260246000fd5b61486282614819565b810181811067ffffffffffffffff821117156148815761488061482a565b5b80604052505050565b600060443d106149175761489c613d15565b60043d036004823e80513d602482011167ffffffffffffffff821117156148c4575050614917565b808201805167ffffffffffffffff8111156148e25750505050614917565b80602083010160043d0385018111156148ff575050505050614917565b61490e82602001850186614859565b82955050505050505b90565b600081519050919050565b60005b83811015614943578082015181840152602081019050614928565b60008484015250505050565b600061495a8261491a565b614964818561453b565b9350614974818560208601614925565b61497d81614819565b840191505092915050565b600060208201905081810360008301526149a2818461494f565b905092915050565b7f636c61696d207472616e7366657220746f2075736572206661696c6564000000600082015250565b60006149e0601d8361453b565b91506149eb826149aa565b602082019050919050565b60006020820190508181036000830152614a0f816149d3565b9050919050565b6000606082019050614a2b6000830186613e1e565b614a386020830185613e1e565b614a456040830184613e1e565b949350505050565b7f596f757220626c696e6420626f78207175616e7469747920697320696e73756660008201527f66696369656e7400000000000000000000000000000000000000000000000000602082015250565b6000614aa960278361453b565b9150614ab482614a4d565b604082019050919050565b60006020820190508181036000830152614ad881614a9c565b9050919050565b6000614aea82613d29565b9150614af583613d29565b925082614b0557614b04614629565b5b828206905092915050565b600080fd5b6000614b1f613d15565b9050614b2b8282614859565b919050565b600067ffffffffffffffff821115614b4b57614b4a61482a565b5b602082029050602081019050919050565b600080fd5b6000614b74614b6f84614b30565b614b15565b90508083825260208201905060208402830185811115614b9757614b96614b5c565b5b835b81811015614bc05780614bac8882614771565b845260208401935050602081019050614b99565b5050509392505050565b600082601f830112614bdf57614bde614b10565b5b8151614bef848260208601614b61565b91505092915050565b600060208284031215614c0e57614c0d613d1f565b5b600082015167ffffffffffffffff811115614c2c57614c2b613d24565b5b614c3884828501614bca565b91505092915050565b7f54686973206973206e6f7420796f757220647261676f6e20616e642063616e6e60008201527f6f742062652072656465656d6564000000000000000000000000000000000000602082015250565b6000614c9d602e8361453b565b9150614ca882614c41565b604082019050919050565b60006020820190508181036000830152614ccc81614c90565b9050919050565b7f596f757220647261676f6e206973206f6e20616e20616476656e74757265206160008201527f6e642063616e6e6f742062652072656465656d65640000000000000000000000602082015250565b6000614d2f60358361453b565b9150614d3a82614cd3565b604082019050919050565b60006020820190508181036000830152614d5e81614d22565b9050919050565b7f596f757220647261676f6e20697320736c656570696e6720616e642063616e6e60008201527f6f742062652072656465656d6564000000000000000000000000000000000000602082015250565b6000614dc1602e8361453b565b9150614dcc82614d65565b604082019050919050565b60006020820190508181036000830152614df081614db4565b9050919050565b7f4e487b7100000000000000000000000000000000000000000000000000000000600052603160045260246000fd5b60008160601b9050919050565b6000614e3e82614e26565b9050919050565b6000614e5082614e33565b9050919050565b614e68614e6382613ee2565b614e45565b82525050565b6000819050919050565b6000819050919050565b614e93614e8e82614e6e565b614e78565b82525050565b6000614ea58285614e57565b601482019150614eb58284614e82565b6020820191508190509392505050565b600067ffffffffffffffff821115614ee057614edf61482a565b5b602082029050602081019050919050565b600081519050614f0081613ef4565b92915050565b6000614f19614f1484614ec5565b614b15565b90508083825260208201905060208402830185811115614f3c57614f3b614b5c565b5b835b81811015614f655780614f518882614ef1565b845260208401935050602081019050614f3e565b5050509392505050565b600082601f830112614f8457614f83614b10565b5b8151614f94848260208601614f06565b91505092915050565b600060208284031215614fb357614fb2613d1f565b5b600082015167ffffffffffffffff811115614fd157614fd0613d24565b5b614fdd84828501614f6f565b91505092915050565b7f496e73756666696369656e74206d696e74207175616e74697479000000000000600082015250565b600061501c601a8361453b565b915061502782614fe6565b602082019050919050565b6000602082019050818103600083015261504b8161500f565b9050919050565b7f5468697320647261676f6e206973206e6f7420796f7572730000000000000000600082015250565b600061508860188361453b565b915061509382615052565b602082019050919050565b600060208201905081810360008301526150b78161507b565b9050919050565b7f5468697320647261676f6e20646f6573206e6f7420726571756972652074686560008201527f20757365206f66206120736c6565702063617264000000000000000000000000602082015250565b600061511a60348361453b565b9150615125826150be565b604082019050919050565b600060208201905081810360008301526151498161510d565b9050919050565b7f647261676f6e20646964206e6f742066696e697368206661726d696e67000000600082015250565b6000615186601d8361453b565b915061519182615150565b602082019050919050565b600060208201905081810360008301526151b581615179565b9050919050565b7f4e487b7100000000000000000000000000000000000000000000000000000000600052602160045260246000fd5b60006040820190506152006000830185613e1e565b61520d6020830184613e1e565b9392505050565b7f447261676f6e206973206661726d696e67000000000000000000000000000000600082015250565b600061524a60118361453b565b915061525582615214565b602082019050919050565b600060208201905081810360008301526152798161523d565b9050919050565b7f447261676f6e206973207374696c6c20736c656570696e670000000000000000600082015250565b60006152b660188361453b565b91506152c182615280565b602082019050919050565b600060208201905081810360008301526152e5816152a9565b9050919050565b6000819050919050565b61530761530282613d29565b6152ec565b82525050565b60006153198286614e82565b60208201915061532982856152f6565b60208201915061533982846152f6565b60208201915081905094935050505056fea26469706673582212204bc85bff592dc61703d20cb32e0edb7609667999a22ef37ff787228954230bb564736f6c63430008140033",
  "linkReferences": {},
  "deployedLinkReferences": {}
}