{
  "_format": "hh-sol-artifact-1",
  "contractName": "BabyLFarming",
  "sourceName": "contracts/BabyLFarming.sol",
  "abi": [
    {
      "inputs": [
        {
          "internalType": "address",
          "name": "_farmingDataStrongAddr",
          "type": "address"
        },
        {
          "internalType": "address",
          "name": "_owner",
          "type": "address"
        }
      ],
      "stateMutability": "nonpayable",
      "type": "constructor"
    },
    {
      "inputs": [],
      "name": "InvalidOwner",
      "type": "error"
    },
    {
      "inputs": [],
      "name": "Unauthorized",
      "type": "error"
    },
    {
      "anonymous": false,
      "inputs": [
        {
          "indexed": true,
          "internalType": "address",
          "name": "sender",
          "type": "address"
        },
        {
          "indexed": false,
          "internalType": "uint256",
          "name": "weiAmount",
          "type": "uint256"
        }
      ],
      "name": "ClaimEthBlindBoxResult",
      "type": "event"
    },
    {
      "anonymous": false,
      "inputs": [
        {
          "indexed": true,
          "internalType": "address",
          "name": "sender",
          "type": "address"
        },
        {
          "indexed": false,
          "internalType": "uint256",
          "name": "greatLToken",
          "type": "uint256"
        },
        {
          "indexed": false,
          "internalType": "uint256",
          "name": "babyLToken",
          "type": "uint256"
        }
      ],
      "name": "ClaimLongTokenBlindBoxResult",
      "type": "event"
    },
    {
      "anonymous": false,
      "inputs": [
        {
          "indexed": false,
          "internalType": "uint256",
          "name": "dragonId",
          "type": "uint256"
        },
        {
          "indexed": false,
          "internalType": "uint256",
          "name": "expectedEndTime",
          "type": "uint256"
        }
      ],
      "name": "DragonFramingStart",
      "type": "event"
    },
    {
      "anonymous": false,
      "inputs": [
        {
          "indexed": true,
          "internalType": "address",
          "name": "sender",
          "type": "address"
        },
        {
          "indexed": false,
          "internalType": "uint256",
          "name": "amount",
          "type": "uint256"
        }
      ],
      "name": "EthTransferResult",
      "type": "event"
    },
    {
      "anonymous": false,
      "inputs": [
        {
          "indexed": true,
          "internalType": "address",
          "name": "sender",
          "type": "address"
        },
        {
          "indexed": false,
          "internalType": "uint256",
          "name": "block",
          "type": "uint256"
        },
        {
          "indexed": false,
          "internalType": "uint256",
          "name": "amount",
          "type": "uint256"
        },
        {
          "indexed": false,
          "internalType": "uint256",
          "name": "taxAmount",
          "type": "uint256"
        }
      ],
      "name": "ExtractTokenResult",
      "type": "event"
    },
    {
      "anonymous": false,
      "inputs": [
        {
          "indexed": true,
          "internalType": "uint256",
          "name": "dragonId",
          "type": "uint256"
        },
        {
          "indexed": false,
          "internalType": "uint256",
          "name": "farmingResult",
          "type": "uint256"
        },
        {
          "indexed": false,
          "internalType": "uint256",
          "name": "farmingReward",
          "type": "uint256"
        }
      ],
      "name": "FarmingResultEvent",
      "type": "event"
    },
    {
      "anonymous": false,
      "inputs": [
        {
          "indexed": true,
          "internalType": "address",
          "name": "user",
          "type": "address"
        },
        {
          "indexed": true,
          "internalType": "address",
          "name": "newOwner",
          "type": "address"
        }
      ],
      "name": "OwnershipTransferred",
      "type": "event"
    },
    {
      "anonymous": false,
      "inputs": [
        {
          "indexed": true,
          "internalType": "uint256",
          "name": "_dragonId",
          "type": "uint256"
        },
        {
          "indexed": false,
          "internalType": "address",
          "name": "user",
          "type": "address"
        }
      ],
      "name": "RedeemDragonResult",
      "type": "event"
    },
    {
      "anonymous": false,
      "inputs": [
        {
          "indexed": true,
          "internalType": "uint256",
          "name": "_dragonId",
          "type": "uint256"
        },
        {
          "indexed": false,
          "internalType": "uint256",
          "name": "reduceTime",
          "type": "uint256"
        }
      ],
      "name": "ReduceSleepingTimeResult",
      "type": "event"
    },
    {
      "inputs": [],
      "name": "babyLFarmingMaxToken",
      "outputs": [
        {
          "internalType": "uint256",
          "name": "",
          "type": "uint256"
        }
      ],
      "stateMutability": "view",
      "type": "function"
    },
    {
      "inputs": [],
      "name": "babyLFarmingMinToken",
      "outputs": [
        {
          "internalType": "uint256",
          "name": "",
          "type": "uint256"
        }
      ],
      "stateMutability": "view",
      "type": "function"
    },
    {
      "inputs": [],
      "name": "babyLFarmingTime",
      "outputs": [
        {
          "internalType": "uint256",
          "name": "",
          "type": "uint256"
        }
      ],
      "stateMutability": "view",
      "type": "function"
    },
    {
      "inputs": [],
      "name": "babyLGetTokenProbability",
      "outputs": [
        {
          "internalType": "uint256",
          "name": "",
          "type": "uint256"
        }
      ],
      "stateMutability": "view",
      "type": "function"
    },
    {
      "inputs": [],
      "name": "babyLSleepTime",
      "outputs": [
        {
          "internalType": "uint256",
          "name": "",
          "type": "uint256"
        }
      ],
      "stateMutability": "view",
      "type": "function"
    },
    {
      "inputs": [],
      "name": "claimLongTokenBlindBox",
      "outputs": [],
      "stateMutability": "nonpayable",
      "type": "function"
    },
    {
      "inputs": [
        {
          "internalType": "uint256",
          "name": "",
          "type": "uint256"
        },
        {
          "internalType": "uint256",
          "name": "",
          "type": "uint256"
        }
      ],
      "name": "dragonFarmings",
      "outputs": [
        {
          "internalType": "uint256",
          "name": "dragonId",
          "type": "uint256"
        },
        {
          "internalType": "uint256",
          "name": "farmingEndTime",
          "type": "uint256"
        },
        {
          "internalType": "uint256",
          "name": "farmingReward",
          "type": "uint256"
        },
        {
          "internalType": "uint256",
          "name": "farmingResult",
          "type": "uint256"
        }
      ],
      "stateMutability": "view",
      "type": "function"
    },
    {
      "inputs": [
        {
          "internalType": "uint256",
          "name": "_dragonId",
          "type": "uint256"
        }
      ],
      "name": "dragonFraming",
      "outputs": [],
      "stateMutability": "nonpayable",
      "type": "function"
    },
    {
      "inputs": [
        {
          "internalType": "uint256",
          "name": "",
          "type": "uint256"
        }
      ],
      "name": "dragons",
      "outputs": [
        {
          "internalType": "uint256",
          "name": "dragonId",
          "type": "uint256"
        },
        {
          "internalType": "address",
          "name": "dragonOwner",
          "type": "address"
        },
        {
          "internalType": "uint256",
          "name": "lastFarmingTime",
          "type": "uint256"
        },
        {
          "internalType": "uint256",
          "name": "farmingEndTime",
          "type": "uint256"
        },
        {
          "internalType": "uint256",
          "name": "sleepEndTime",
          "type": "uint256"
        },
        {
          "internalType": "bool",
          "name": "farmingStatus",
          "type": "bool"
        }
      ],
      "stateMutability": "view",
      "type": "function"
    },
    {
      "inputs": [],
      "name": "encounterEvilSpiritsProbability",
      "outputs": [
        {
          "internalType": "uint256",
          "name": "",
          "type": "uint256"
        }
      ],
      "stateMutability": "view",
      "type": "function"
    },
    {
      "inputs": [
        {
          "internalType": "uint256",
          "name": "_amount",
          "type": "uint256"
        }
      ],
      "name": "extractFarmingTokenAmount",
      "outputs": [],
      "stateMutability": "nonpayable",
      "type": "function"
    },
    {
      "inputs": [],
      "name": "fDStrongInstance",
      "outputs": [
        {
          "internalType": "contract FarmingDataStrong",
          "name": "",
          "type": "address"
        }
      ],
      "stateMutability": "view",
      "type": "function"
    },
    {
      "inputs": [
        {
          "internalType": "uint256",
          "name": "_dragonId",
          "type": "uint256"
        }
      ],
      "name": "getDragonFarmingResult",
      "outputs": [],
      "stateMutability": "nonpayable",
      "type": "function"
    },
    {
      "inputs": [],
      "name": "getDragonFramingList",
      "outputs": [
        {
          "components": [
            {
              "internalType": "uint256",
              "name": "dragonId",
              "type": "uint256"
            },
            {
              "internalType": "uint256",
              "name": "farmingEndTime",
              "type": "uint256"
            },
            {
              "internalType": "uint256",
              "name": "sleepEndTime",
              "type": "uint256"
            },
            {
              "internalType": "bool",
              "name": "farmingStatus",
              "type": "bool"
            }
          ],
          "internalType": "struct IFarming.DragonInfo[]",
          "name": "",
          "type": "tuple[]"
        }
      ],
      "stateMutability": "view",
      "type": "function"
    },
    {
      "inputs": [],
      "name": "getFarmingTokenAmount",
      "outputs": [
        {
          "components": [
            {
              "internalType": "uint256",
              "name": "farmingTokenAmount",
              "type": "uint256"
            },
            {
              "internalType": "uint256",
              "name": "extractAmount",
              "type": "uint256"
            },
            {
              "internalType": "uint256",
              "name": "toBeExtractedAmount",
              "type": "uint256"
            },
            {
              "internalType": "uint256",
              "name": "toBeExtractedUnlockingAmount",
              "type": "uint256"
            },
            {
              "internalType": "uint256",
              "name": "taxationAmount",
              "type": "uint256"
            }
          ],
          "internalType": "struct IFarming.FarmingTokenStatistics",
          "name": "",
          "type": "tuple"
        }
      ],
      "stateMutability": "view",
      "type": "function"
    },
    {
      "inputs": [],
      "name": "getTimeReductionCardNum",
      "outputs": [
        {
          "internalType": "uint256",
          "name": "",
          "type": "uint256"
        }
      ],
      "stateMutability": "view",
      "type": "function"
    },
    {
      "inputs": [],
      "name": "getUserDragons",
      "outputs": [
        {
          "internalType": "uint256[]",
          "name": "",
          "type": "uint256[]"
        }
      ],
      "stateMutability": "view",
      "type": "function"
    },
    {
      "inputs": [],
      "name": "getUserUnopenedBlindBox",
      "outputs": [
        {
          "components": [
            {
              "internalType": "uint256",
              "name": "ethBlindBox",
              "type": "uint256"
            },
            {
              "internalType": "uint256",
              "name": "longTokenBlindBox",
              "type": "uint256"
            },
            {
              "internalType": "uint256",
              "name": "equipBlindBox",
              "type": "uint256"
            },
            {
              "internalType": "uint256",
              "name": "aUBlindBox",
              "type": "uint256"
            }
          ],
          "internalType": "struct IFarming.UnopenedBlindBox",
          "name": "",
          "type": "tuple"
        }
      ],
      "stateMutability": "view",
      "type": "function"
    },
    {
      "inputs": [],
      "name": "owner",
      "outputs": [
        {
          "internalType": "address",
          "name": "",
          "type": "address"
        }
      ],
      "stateMutability": "view",
      "type": "function"
    },
    {
      "inputs": [
        {
          "internalType": "uint256",
          "name": "_dragonId",
          "type": "uint256"
        }
      ],
      "name": "redeemDragon",
      "outputs": [],
      "stateMutability": "nonpayable",
      "type": "function"
    },
    {
      "inputs": [
        {
          "internalType": "uint256",
          "name": "_dragonId",
          "type": "uint256"
        }
      ],
      "name": "reduceSleepingTime",
      "outputs": [],
      "stateMutability": "nonpayable",
      "type": "function"
    },
    {
      "inputs": [],
      "name": "releasePercentage",
      "outputs": [
        {
          "internalType": "uint256",
          "name": "",
          "type": "uint256"
        }
      ],
      "stateMutability": "view",
      "type": "function"
    },
    {
      "inputs": [],
      "name": "revokeOwnership",
      "outputs": [],
      "stateMutability": "nonpayable",
      "type": "function"
    },
    {
      "inputs": [
        {
          "internalType": "address",
          "name": "_farmingDataStrongAddr",
          "type": "address"
        }
      ],
      "name": "setFarmingDataStrongAddr",
      "outputs": [],
      "stateMutability": "nonpayable",
      "type": "function"
    },
    {
      "inputs": [],
      "name": "sleepTimeReductionPerInvite",
      "outputs": [
        {
          "internalType": "uint256",
          "name": "",
          "type": "uint256"
        }
      ],
      "stateMutability": "view",
      "type": "function"
    },
    {
      "inputs": [],
      "name": "taxReductionPerDay",
      "outputs": [
        {
          "internalType": "uint256",
          "name": "",
          "type": "uint256"
        }
      ],
      "stateMutability": "view",
      "type": "function"
    },
    {
      "inputs": [
        {
          "internalType": "address",
          "name": "_owner",
          "type": "address"
        }
      ],
      "name": "transferOwnership",
      "outputs": [],
      "stateMutability": "nonpayable",
      "type": "function"
    },
    {
      "inputs": [
        {
          "internalType": "address",
          "name": "",
          "type": "address"
        }
      ],
      "name": "userAuBlindBox",
      "outputs": [
        {
          "internalType": "uint256",
          "name": "",
          "type": "uint256"
        }
      ],
      "stateMutability": "view",
      "type": "function"
    },
    {
      "inputs": [
        {
          "internalType": "address",
          "name": "",
          "type": "address"
        }
      ],
      "name": "userExtractAmount",
      "outputs": [
        {
          "internalType": "uint256",
          "name": "",
          "type": "uint256"
        }
      ],
      "stateMutability": "view",
      "type": "function"
    },
    {
      "inputs": [
        {
          "internalType": "address",
          "name": "",
          "type": "address"
        }
      ],
      "name": "userFarmingAmount",
      "outputs": [
        {
          "internalType": "uint256",
          "name": "",
          "type": "uint256"
        }
      ],
      "stateMutability": "view",
      "type": "function"
    },
    {
      "inputs": [
        {
          "internalType": "address",
          "name": "",
          "type": "address"
        },
        {
          "internalType": "uint256",
          "name": "",
          "type": "uint256"
        }
      ],
      "name": "userFarmings",
      "outputs": [
        {
          "internalType": "uint256",
          "name": "dragonId",
          "type": "uint256"
        },
        {
          "internalType": "uint256",
          "name": "farmingEndTime",
          "type": "uint256"
        },
        {
          "internalType": "uint256",
          "name": "farmingReward",
          "type": "uint256"
        },
        {
          "internalType": "uint256",
          "name": "farmingResult",
          "type": "uint256"
        }
      ],
      "stateMutability": "view",
      "type": "function"
    },
    {
      "inputs": [
        {
          "internalType": "address",
          "name": "",
          "type": "address"
        },
        {
          "internalType": "uint256",
          "name": "",
          "type": "uint256"
        }
      ],
      "name": "userLFarmingTokens",
      "outputs": [
        {
          "internalType": "uint256",
          "name": "getTime",
          "type": "uint256"
        },
        {
          "internalType": "uint256",
          "name": "farmingTokenReward",
          "type": "uint256"
        },
        {
          "internalType": "uint256",
          "name": "extractAmount",
          "type": "uint256"
        },
        {
          "internalType": "bool",
          "name": "extractFlag",
          "type": "bool"
        }
      ],
      "stateMutability": "view",
      "type": "function"
    },
    {
      "inputs": [
        {
          "internalType": "address",
          "name": "",
          "type": "address"
        }
      ],
      "name": "userSleepCardUsage",
      "outputs": [
        {
          "internalType": "uint256",
          "name": "",
          "type": "uint256"
        }
      ],
      "stateMutability": "view",
      "type": "function"
    },
    {
      "inputs": [
        {
          "internalType": "address",
          "name": "",
          "type": "address"
        }
      ],
      "name": "userTaxationAmount",
      "outputs": [
        {
          "internalType": "uint256",
          "name": "",
          "type": "uint256"
        }
      ],
      "stateMutability": "view",
      "type": "function"
    },
    {
      "inputs": [
        {
          "internalType": "address",
          "name": "",
          "type": "address"
        }
      ],
      "name": "userTokenBlindBox",
      "outputs": [
        {
          "internalType": "uint256",
          "name": "",
          "type": "uint256"
        }
      ],
      "stateMutability": "view",
      "type": "function"
    }
  ],
  "bytecode": "0x608060405260b4600c556103e8600d55611388600e55600c600f55600f601055600a60115560236012556213c6806013556203f4806014553480156200004457600080fd5b5060405162004de238038062004de283398181016040528101906200006a919062000221565b80600073ffffffffffffffffffffffffffffffffffffffff168173ffffffffffffffffffffffffffffffffffffffff1603620000d2576040517f49e27cff00000000000000000000000000000000000000000000000000000000815260040160405180910390fd5b806000806101000a81548173ffffffffffffffffffffffffffffffffffffffff021916908373ffffffffffffffffffffffffffffffffffffffff1602179055508073ffffffffffffffffffffffffffffffffffffffff16600073ffffffffffffffffffffffffffffffffffffffff167f8be0079c531659141344cd1fd0a4f28419497f9722a3daafe3b4186f6b6457e060405160405180910390a35081600160006101000a81548173ffffffffffffffffffffffffffffffffffffffff021916908373ffffffffffffffffffffffffffffffffffffffff160217905550505062000268565b600080fd5b600073ffffffffffffffffffffffffffffffffffffffff82169050919050565b6000620001e982620001bc565b9050919050565b620001fb81620001dc565b81146200020757600080fd5b50565b6000815190506200021b81620001f0565b92915050565b600080604083850312156200023b576200023a620001b7565b5b60006200024b858286016200020a565b92505060206200025e858286016200020a565b9150509250929050565b614b6a80620002786000396000f3fe608060405234801561001057600080fd5b50600436106102115760003560e01c8063a95ba2ce11610125578063d8ad9dde116100ad578063f48e3c611161007c578063f48e3c6114610604578063f508ab8b14610634578063f6ee6d4014610664578063fce969f414610682578063fee4383e146106a057610211565b8063d8ad9dde1461058e578063e60a3c73146105ac578063ed228acf146105ca578063f2fde38b146105e857610211565b8063cd4b72ba116100f4578063cd4b72ba146104be578063cdf68667146104f1578063cfb3975414610521578063d077f7911461053d578063d2a59d691461055957610211565b8063a95ba2ce14610431578063b467ce4a1461044f578063c14f8aad14610482578063c739c1eb146104a057610211565b806349684da4116101a85780636ea2f4c3116101775780636ea2f4c31461038b5780638da5cb5b146103a9578063905a6e75146103c75780639d8b95d1146103e5578063a4d650e91461041557610211565b806349684da4146102ee5780634b2cc0041461030c5780634eb2a7651461033f578063651640fd1461036f57610211565b806318537ca4116101e457806318537ca41461029e5780632b968958146102a85780633562f594146102b257806346aa1f90146102d057610211565b806301edee4f146102165780630c3924d414610232578063165e593414610250578063184f66881461026e575b600080fd5b610230600480360381019061022b91906138a5565b6106bc565b005b61023a6112ad565b6040516102479190613949565b60405180910390f35b61025861165e565b6040516102659190613973565b60405180910390f35b610288600480360381019061028391906139ec565b611664565b6040516102959190613973565b60405180910390f35b6102a661167c565b005b6102b06119b6565b005b6102ba611ad9565b6040516102c79190613973565b60405180910390f35b6102d8611adf565b6040516102e59190613ac8565b60405180910390f35b6102f6611b8d565b6040516103039190613b49565b60405180910390f35b61032660048036038101906103219190613b64565b611bb3565b6040516103369493929190613ba4565b60405180910390f35b610359600480360381019061035491906139ec565b611c00565b6040516103669190613973565b60405180910390f35b610389600480360381019061038491906138a5565b611c18565b005b610393611f0e565b6040516103a09190613973565b60405180910390f35b6103b1611f14565b6040516103be9190613bf8565b60405180910390f35b6103cf611f38565b6040516103dc9190613973565b60405180910390f35b6103ff60048036038101906103fa91906139ec565b611f3e565b60405161040c9190613973565b60405180910390f35b61042f600480360381019061042a91906139ec565b611f56565b005b61043961201f565b6040516104469190613973565b60405180910390f35b61046960048036038101906104649190613c13565b612025565b6040516104799493929190613ba4565b60405180910390f35b61048a612072565b6040516104979190613973565b60405180910390f35b6104a8612078565b6040516104b59190613973565b60405180910390f35b6104d860048036038101906104d39190613c13565b61207e565b6040516104e89493929190613c6e565b60405180910390f35b61050b600480360381019061050691906139ec565b6120d8565b6040516105189190613973565b60405180910390f35b61053b600480360381019061053691906138a5565b6120f0565b005b610557600480360381019061055291906138a5565b6124a4565b005b610573600480360381019061056e91906138a5565b612d24565b60405161058596959493929190613cb3565b60405180910390f35b610596612d8d565b6040516105a39190613973565b60405180910390f35b6105b4612d93565b6040516105c19190613e27565b60405180910390f35b6105d2612ff4565b6040516105df9190613e9e565b60405180910390f35b61060260048036038101906105fd91906139ec565b6130a3565b005b61061e600480360381019061061991906139ec565b61322b565b60405161062b9190613973565b60405180910390f35b61064e600480360381019061064991906139ec565b613243565b60405161065b9190613973565b60405180910390f35b61066c61325b565b6040516106799190613973565b60405180910390f35b61068a613359565b6040516106979190613973565b60405180910390f35b6106ba60048036038101906106b591906138a5565b61335f565b005b6000339050600042905060008390506000600260008573ffffffffffffffffffffffffffffffffffffffff1673ffffffffffffffffffffffffffffffffffffffff1681526020019081526020016000205490506000600360008673ffffffffffffffffffffffffffffffffffffffff1673ffffffffffffffffffffffffffffffffffffffff1681526020019081526020016000205490506000600460008773ffffffffffffffffffffffffffffffffffffffff1673ffffffffffffffffffffffffffffffffffffffff16815260200190815260200160002054905060008183856107a69190613ee8565b6107b09190613ee8565b9050878110156107f5576040517f08c379a00000000000000000000000000000000000000000000000000000000081526004016107ec90613f79565b60405180910390fd5b6000600a60008973ffffffffffffffffffffffffffffffffffffffff1673ffffffffffffffffffffffffffffffffffffffff168152602001908152602001600020905060005b8180549050811015610bce5760008a1115610bce578782828154811061086457610863613f99565b5b9060005260206000209060040201600001541080156108b2575081818154811061089157610890613f99565b5b906000526020600020906004020160030160009054906101000a900460ff16155b15610bbb576000600160009054906101000a900473ffffffffffffffffffffffffffffffffffffffff1673ffffffffffffffffffffffffffffffffffffffff1663f0eebe478a85858154811061090b5761090a613f99565b5b9060005260206000209060040201600001546040518363ffffffff1660e01b815260040161093a929190613fc8565b602060405180830381865afa158015610957573d6000803e3d6000fd5b505050506040513d601f19601f8201168201806040525081019061097b9190614006565b9050600080600a83106109b45784848154811061099b5761099a613f99565b5b9060005260206000209060040201600101549150610a00565b6064836011548787815481106109cd576109cc613f99565b5b9060005260206000209060040201600101546109e99190614033565b6109f39190614033565b6109fd91906140a4565b91505b6000858581548110610a1557610a14613f99565b5b90600052602060002090600402016002015483610a329190613ee8565b90508d8111610a5157808e610a479190613ee8565b9d50809150610a59565b8d915060009d505b6000868681548110610a6e57610a6d613f99565b5b90600052602060002090600402016002015483610a8b91906140d5565b9050868681548110610aa057610a9f613f99565b5b906000526020600020906004020160010154811115610af4576040517f08c379a0000000000000000000000000000000000000000000000000000000008152600401610aeb90614155565b60405180910390fd5b868681548110610b0757610b06613f99565b5b906000526020600020906004020160010154811015610b4e5780878781548110610b3457610b33613f99565b5b906000526020600020906004020160020181905550610bb5565b80878781548110610b6257610b61613f99565b5b9060005260206000209060040201600201819055506001878781548110610b8c57610b8b613f99565b5b906000526020600020906004020160030160006101000a81548160ff0219169083151502179055505b50505050505b8080610bc690614175565b91505061083b565b506000808a10610f605760005b8280549050811015610f5e5760008b1115610f5e5788838281548110610c0457610c03613f99565b5b906000526020600020906004020160000154108015610c525750828181548110610c3157610c30613f99565b5b906000526020600020906004020160030160009054906101000a900460ff16155b15610f4b576000600160009054906101000a900473ffffffffffffffffffffffffffffffffffffffff1673ffffffffffffffffffffffffffffffffffffffff1663f0eebe478b868581548110610cab57610caa613f99565b5b9060005260206000209060040201600001546040518363ffffffff1660e01b8152600401610cda929190613fc8565b602060405180830381865afa158015610cf7573d6000803e3d6000fd5b505050506040513d601f19601f82011682018060405250810190610d1b9190614006565b9050600080600a831015610d395782600a610d369190613ee8565b90505b6000868581548110610d4e57610d4d613f99565b5b906000526020600020906004020160020154878681548110610d7357610d72613f99565b5b906000526020600020906004020160010154610d8f9190613ee8565b90508e8111610dae57808f610da49190613ee8565b9e50809250610db6565b8e925060009e505b6000878681548110610dcb57610dca613f99565b5b90600052602060002090600402016002015484610de891906140d5565b9050878681548110610dfd57610dfc613f99565b5b906000526020600020906004020160010154811115610e51576040517f08c379a0000000000000000000000000000000000000000000000000000000008152600401610e4890614155565b60405180910390fd5b878681548110610e6457610e63613f99565b5b906000526020600020906004020160010154811015610eab5780888781548110610e9157610e90613f99565b5b906000526020600020906004020160020181905550610f12565b80888781548110610ebf57610ebe613f99565b5b9060005260206000209060040201600201819055506001888781548110610ee957610ee8613f99565b5b906000526020600020906004020160030160006101000a81548160ff0219169083151502179055505b6103e88360125486610f249190614033565b610f2e9190614033565b610f3891906140a4565b87610f4391906140d5565b965050505050505b8080610f5690614175565b915050610bdb565b505b86600360008b73ffffffffffffffffffffffffffffffffffffffff1673ffffffffffffffffffffffffffffffffffffffff1681526020019081526020016000206000828254610faf91906140d5565b9250508190555080600460008b73ffffffffffffffffffffffffffffffffffffffff1673ffffffffffffffffffffffffffffffffffffffff168152602001908152602001600020600082825461100591906140d5565b925050819055506000818861101a9190613ee8565b9050600160009054906101000a900473ffffffffffffffffffffffffffffffffffffffff1673ffffffffffffffffffffffffffffffffffffffff166380f36e008b836040518363ffffffff1660e01b81526004016110799291906141bd565b600060405180830381600087803b15801561109357600080fd5b505af19250505080156110a4575060015b611118576110b06141f3565b806308c379a00361110c57506110c4614286565b806110cf575061110e565b806040517f08c379a00000000000000000000000000000000000000000000000000000000081526004016111039190614384565b60405180910390fd5b505b3d6000803e3d6000fd5b8973ffffffffffffffffffffffffffffffffffffffff167fa3f98d5dc6b06ac2bb075b43a9b4e6435b6014d1119ee56239152469cdd0d04e43600160009054906101000a900473ffffffffffffffffffffffffffffffffffffffff1673ffffffffffffffffffffffffffffffffffffffff166319af2823856040518263ffffffff1660e01b81526004016111ac9190613973565b602060405180830381865afa1580156111c9573d6000803e3d6000fd5b505050506040513d601f19601f820116820180604052508101906111ed9190614006565b600160009054906101000a900473ffffffffffffffffffffffffffffffffffffffff1673ffffffffffffffffffffffffffffffffffffffff166319af2823876040518263ffffffff1660e01b81526004016112489190613973565b602060405180830381865afa158015611265573d6000803e3d6000fd5b505050506040513d601f19601f820116820180604052508101906112899190614006565b604051611298939291906143a6565b60405180910390a25050505050505050505050565b6112b56137b0565b600033905060004290506000600260008473ffffffffffffffffffffffffffffffffffffffff1673ffffffffffffffffffffffffffffffffffffffff1681526020019081526020016000205490506000600360008573ffffffffffffffffffffffffffffffffffffffff1673ffffffffffffffffffffffffffffffffffffffff1681526020019081526020016000205490506000600460008673ffffffffffffffffffffffffffffffffffffffff1673ffffffffffffffffffffffffffffffffffffffff168152602001908152602001600020549050600081838561139a9190613ee8565b6113a49190613ee8565b90506000600a60008873ffffffffffffffffffffffffffffffffffffffff1673ffffffffffffffffffffffffffffffffffffffff168152602001908152602001600020805480602002602001604051908101604052809291908181526020016000905b8282101561147257838290600052602060002090600402016040518060800160405290816000820154815260200160018201548152602001600282015481526020016003820160009054906101000a900460ff16151515158152505081526020019060010190611407565b5050505090506000805b825181101561160a578783828151811061149957611498613f99565b5b60200260200101516000015110156115f7576000600160009054906101000a900473ffffffffffffffffffffffffffffffffffffffff1673ffffffffffffffffffffffffffffffffffffffff1663f0eebe478a8685815181106114ff576114fe613f99565b5b6020026020010151600001516040518363ffffffff1660e01b8152600401611528929190613fc8565b602060405180830381865afa158015611545573d6000803e3d6000fd5b505050506040513d601f19601f820116820180604052508101906115699190614006565b9050600a81106115a45783828151811061158657611585613f99565b5b6020026020010151602001518361159d91906140d5565b92506115f5565b6064816011548685815181106115bd576115bc613f99565b5b6020026020010151602001516115d39190614033565b6115dd9190614033565b6115e791906140a4565b836115f291906140d5565b92505b505b808061160290614175565b91505061147c565b508385826116189190613ee8565b6116229190613ee8565b905060006040518060a0016040528088815260200187815260200185815260200183815260200186815250905080995050505050505050505090565b60115481565b60096020528060005260406000206000915090505481565b600033905060004290506000600860008473ffffffffffffffffffffffffffffffffffffffff1673ffffffffffffffffffffffffffffffffffffffff1681526020019081526020016000205490506000811161170d576040517f08c379a00000000000000000000000000000000000000000000000000000000081526004016117049061444f565b60405180910390fd5b6000600160009054906101000a900473ffffffffffffffffffffffffffffffffffffffff1673ffffffffffffffffffffffffffffffffffffffff1663773a11546040518163ffffffff1660e01b8152600401602060405180830381865afa15801561177c573d6000803e3d6000fd5b505050506040513d601f19601f820116820180604052508101906117a09190614006565b90506000600d546001600d54600e546117b99190613ee8565b6117c391906140d5565b836117ce919061446f565b6117d891906140d5565b90506117e26137df565b84816000018181525050818160200181815250506000816060019015159081151581525050600a60008773ffffffffffffffffffffffffffffffffffffffff1673ffffffffffffffffffffffffffffffffffffffff16815260200190815260200160002081908060018154018082558091505060019003906000526020600020906004020160009091909190915060008201518160000155602082015181600101556040820151816002015560608201518160030160006101000a81548160ff021916908315150217905550505081600260008873ffffffffffffffffffffffffffffffffffffffff1673ffffffffffffffffffffffffffffffffffffffff16815260200190815260200160002060008282546118ff91906140d5565b925050819055506001600860008873ffffffffffffffffffffffffffffffffffffffff1673ffffffffffffffffffffffffffffffffffffffff16815260200190815260200160002060008282546119569190613ee8565b925050819055508573ffffffffffffffffffffffffffffffffffffffff167f1a54beab22fb3cc70097401e86eb6ddcf6fca3c13a11db2da8f8475ef83676dd6000846040516119a69291906144db565b60405180910390a2505050505050565b60008054906101000a900473ffffffffffffffffffffffffffffffffffffffff1673ffffffffffffffffffffffffffffffffffffffff163373ffffffffffffffffffffffffffffffffffffffff1614611a3b576040517f82b4290000000000000000000000000000000000000000000000000000000000815260040160405180910390fd5b60008060006101000a81548173ffffffffffffffffffffffffffffffffffffffff021916908373ffffffffffffffffffffffffffffffffffffffff160217905550600073ffffffffffffffffffffffffffffffffffffffff163373ffffffffffffffffffffffffffffffffffffffff167f8be0079c531659141344cd1fd0a4f28419497f9722a3daafe3b4186f6b6457e060405160405180910390a3565b60105481565b60606000339050600160009054906101000a900473ffffffffffffffffffffffffffffffffffffffff1673ffffffffffffffffffffffffffffffffffffffff16639feab4eb826040518263ffffffff1660e01b8152600401611b419190613bf8565b600060405180830381865afa158015611b5e573d6000803e3d6000fd5b505050506040513d6000823e3d601f19601f82011682018060405250810190611b8791906145ec565b91505090565b600160009054906101000a900473ffffffffffffffffffffffffffffffffffffffff1681565b60066020528160005260406000208181548110611bcf57600080fd5b9060005260206000209060040201600091509150508060000154908060010154908060020154908060030154905084565b60036020528060005260406000206000915090505481565b600033905060004290506000600b600085815260200190815260200160002090508273ffffffffffffffffffffffffffffffffffffffff168160010160009054906101000a900473ffffffffffffffffffffffffffffffffffffffff1673ffffffffffffffffffffffffffffffffffffffff1614611ccb576040517f08c379a0000000000000000000000000000000000000000000000000000000008152600401611cc2906146a7565b60405180910390fd5b8060050160009054906101000a900460ff1615611d1d576040517f08c379a0000000000000000000000000000000000000000000000000000000008152600401611d1490614739565b60405180910390fd5b81816004015410611d63576040517f08c379a0000000000000000000000000000000000000000000000000000000008152600401611d5a906147cb565b60405180910390fd5b600160009054906101000a900473ffffffffffffffffffffffffffffffffffffffff1673ffffffffffffffffffffffffffffffffffffffff1663d272d00f84866040518363ffffffff1660e01b8152600401611dc09291906141bd565b600060405180830381600087803b158015611dda57600080fd5b505af1925050508015611deb575060015b611e5f57611df76141f3565b806308c379a003611e535750611e0b614286565b80611e165750611e55565b806040517f08c379a0000000000000000000000000000000000000000000000000000000008152600401611e4a9190614384565b60405180910390fd5b505b3d6000803e3d6000fd5b600b60008581526020019081526020016000206000808201600090556001820160006101000a81549073ffffffffffffffffffffffffffffffffffffffff02191690556002820160009055600382016000905560048201600090556005820160006101000a81549060ff02191690555050837f04d5de10c5fe7611da7ca95c1692517b7d1a8b45d22053338fe087c1f95978b784604051611f009190613bf8565b60405180910390a250505050565b600f5481565b60008054906101000a900473ffffffffffffffffffffffffffffffffffffffff1681565b60125481565b60026020528060005260406000206000915090505481565b60008054906101000a900473ffffffffffffffffffffffffffffffffffffffff1673ffffffffffffffffffffffffffffffffffffffff163373ffffffffffffffffffffffffffffffffffffffff1614611fdb576040517f82b4290000000000000000000000000000000000000000000000000000000000815260040160405180910390fd5b80600160006101000a81548173ffffffffffffffffffffffffffffffffffffffff021916908373ffffffffffffffffffffffffffffffffffffffff16021790555050565b600e5481565b6007602052816000526040600020818154811061204157600080fd5b9060005260206000209060040201600091509150508060000154908060010154908060020154908060030154905084565b60145481565b600c5481565b600a602052816000526040600020818154811061209a57600080fd5b9060005260206000209060040201600091509150508060000154908060010154908060020154908060030160009054906101000a900460ff16905084565b60086020528060005260406000206000915090505481565b60003390506000600160009054906101000a900473ffffffffffffffffffffffffffffffffffffffff1673ffffffffffffffffffffffffffffffffffffffff1663e661a9d2836040518263ffffffff1660e01b81526004016121529190613bf8565b602060405180830381865afa15801561216f573d6000803e3d6000fd5b505050506040513d601f19601f820116820180604052508101906121939190614006565b90506000600560008473ffffffffffffffffffffffffffffffffffffffff1673ffffffffffffffffffffffffffffffffffffffff16815260200190815260200160002054826121e29190613ee8565b905060008111612227576040517f08c379a000000000000000000000000000000000000000000000000000000000815260040161221e90614837565b60405180910390fd5b6000600b600086815260200190815260200160002090508373ffffffffffffffffffffffffffffffffffffffff168160010160009054906101000a900473ffffffffffffffffffffffffffffffffffffffff1673ffffffffffffffffffffffffffffffffffffffff16146122d0576040517f08c379a00000000000000000000000000000000000000000000000000000000081526004016122c7906148a3565b60405180910390fd5b60004290508082600401541161231b576040517f08c379a000000000000000000000000000000000000000000000000000000000815260040161231290614935565b60405180910390fd5b6014548260040160008282546123319190613ee8565b925050819055506001600560008773ffffffffffffffffffffffffffffffffffffffff1673ffffffffffffffffffffffffffffffffffffffff168152602001908152602001600020600082825461238891906140d5565b9250508190555081600b6000888152602001908152602001600020600082015481600001556001820160009054906101000a900473ffffffffffffffffffffffffffffffffffffffff168160010160006101000a81548173ffffffffffffffffffffffffffffffffffffffff021916908373ffffffffffffffffffffffffffffffffffffffff1602179055506002820154816002015560038201548160030155600482015481600401556005820160009054906101000a900460ff168160050160006101000a81548160ff021916908315150217905550905050857f8ee2087cb07bba967083d109af9bc795250912ab6e8ea1469cde6c49b80045e26014546040516124949190613973565b60405180910390a2505050505050565b600033905060004290506000600b6000858152602001908152602001600020905060008160000154141580156124dd5750838160000154145b61251c576040517f08c379a0000000000000000000000000000000000000000000000000000000008152600401612513906149a1565b60405180910390fd5b6000600c54826002015461253091906140d5565b90508160050160009054906101000a900460ff1680156125505750828111155b61258f576040517f08c379a000000000000000000000000000000000000000000000000000000000815260040161258690614a0d565b60405180910390fd5b60006040518060800160405280878152602001858152602001600060058111156125bc576125bb614a2d565b5b8152602001600060038111156125d5576125d4614a2d565b5b815250905060006064600160009054906101000a900473ffffffffffffffffffffffffffffffffffffffff1673ffffffffffffffffffffffffffffffffffffffff1663773a11546040518163ffffffff1660e01b8152600401602060405180830381865afa15801561264b573d6000803e3d6000fd5b505050506040513d601f19601f8201168201806040525081019061266f9190614006565b612679919061446f565b9050600f548110156128f35760038081111561269857612697614a2d565b5b82606001818152505060066000888152602001908152602001600020829080600181540180825580915050600190039060005260206000209060040201600090919091909150600082015181600001556020820151816001015560408201518160020155606082015181600301555050600760008773ffffffffffffffffffffffffffffffffffffffff1673ffffffffffffffffffffffffffffffffffffffff168152602001908152602001600020829080600181540180825580915050600190039060005260206000209060040201600090919091909150600082015181600001556020820151816001015560408201518160020155606082015181600301555050601354856127a991906140d5565b846004018190555060008460050160006101000a81548160ff02191690831515021790555083600b6000898152602001908152602001600020600082015481600001556001820160009054906101000a900473ffffffffffffffffffffffffffffffffffffffff168160010160006101000a81548173ffffffffffffffffffffffffffffffffffffffff021916908373ffffffffffffffffffffffffffffffffffffffff1602179055506002820154816002015560038201548160030155600482015481600401556005820160009054906101000a900460ff168160050160006101000a81548160ff021916908315150217905550905050867fec506780a0336f02b9731f0e8752c1ff5d4099e2935bdfa72839c29be1b482f08360600151600060058111156128dc576128db614a2d565b5b6040516128ea929190613fc8565b60405180910390a25b600080600381111561290857612907614a2d565b5b9050600080600581111561291f5761291e614a2d565b5b905060006064600160009054906101000a900473ffffffffffffffffffffffffffffffffffffffff1673ffffffffffffffffffffffffffffffffffffffff1663773a11546040518163ffffffff1660e01b8152600401602060405180830381865afa158015612992573d6000803e3d6000fd5b505050506040513d601f19601f820116820180604052508101906129b69190614006565b6129c0919061446f565b9050601054811015612a5457600160038111156129e0576129df614a2d565b5b9250600360058111156129f6576129f5614a2d565b5b91506001600860008b73ffffffffffffffffffffffffffffffffffffffff1673ffffffffffffffffffffffffffffffffffffffff1681526020019081526020016000206000828254612a4891906140d5565b92505081905550612ad7565b60016003811115612a6857612a67614a2d565b5b9250600580811115612a7d57612a7c614a2d565b5b91506001600960008b73ffffffffffffffffffffffffffffffffffffffff1673ffffffffffffffffffffffffffffffffffffffff1681526020019081526020016000206000828254612acf91906140d5565b925050819055505b8285606001818152505081856040018181525050600660008b8152602001908152602001600020859080600181540180825580915050600190039060005260206000209060040201600090919091909150600082015181600001556020820151816001015560408201518160020155606082015181600301555050600760008a73ffffffffffffffffffffffffffffffffffffffff1673ffffffffffffffffffffffffffffffffffffffff16815260200190815260200160002085908060018154018082558091505060019003906000526020600020906004020160009091909190915060008201518160000155602082015181600101556040820151816002015560608201518160030155505060008760050160006101000a81548160ff02191690831515021790555087876002018190555086600b60008c8152602001908152602001600020600082015481600001556001820160009054906101000a900473ffffffffffffffffffffffffffffffffffffffff168160010160006101000a81548173ffffffffffffffffffffffffffffffffffffffff021916908373ffffffffffffffffffffffffffffffffffffffff1602179055506002820154816002015560038201548160030155600482015481600401556005820160009054906101000a900460ff168160050160006101000a81548160ff021916908315150217905550905050897fec506780a0336f02b9731f0e8752c1ff5d4099e2935bdfa72839c29be1b482f08484604051612d10929190613fc8565b60405180910390a250505050505050505050565b600b6020528060005260406000206000915090508060000154908060010160009054906101000a900473ffffffffffffffffffffffffffffffffffffffff16908060020154908060030154908060040154908060050160009054906101000a900460ff16905086565b600d5481565b606060003390506000600160009054906101000a900473ffffffffffffffffffffffffffffffffffffffff1673ffffffffffffffffffffffffffffffffffffffff166344741cc3836040518263ffffffff1660e01b8152600401612df79190613bf8565b600060405180830381865afa158015612e14573d6000803e3d6000fd5b505050506040513d6000823e3d601f19601f82011682018060405250810190612e3d91906145ec565b90506000815167ffffffffffffffff811115612e5c57612e5b614226565b5b604051908082528060200260200182016040528015612e9557816020015b612e82613809565b815260200190600190039081612e7a5790505b50905060005b8251811015612fea576000838281518110612eb957612eb8613f99565b5b602002602001015190506000600b60008381526020019081526020016000206040518060c0016040529081600082015481526020016001820160009054906101000a900473ffffffffffffffffffffffffffffffffffffffff1673ffffffffffffffffffffffffffffffffffffffff1673ffffffffffffffffffffffffffffffffffffffff1681526020016002820154815260200160038201548152602001600482015481526020016005820160009054906101000a900460ff1615151515815250509050600060405180608001604052808360000151815260200183606001518152602001836080015181526020018360a001511515815250905080858581518110612fc957612fc8613f99565b5b60200260200101819052505050508080612fe290614175565b915050612e9b565b5080935050505090565b612ffc613833565b6000339050613009613833565b600860008373ffffffffffffffffffffffffffffffffffffffff1673ffffffffffffffffffffffffffffffffffffffff16815260200190815260200160002054816020018181525050600960008373ffffffffffffffffffffffffffffffffffffffff1673ffffffffffffffffffffffffffffffffffffffff16815260200190815260200160002054816060018181525050809250505090565b60008054906101000a900473ffffffffffffffffffffffffffffffffffffffff1673ffffffffffffffffffffffffffffffffffffffff163373ffffffffffffffffffffffffffffffffffffffff1614613128576040517f82b4290000000000000000000000000000000000000000000000000000000000815260040160405180910390fd5b600073ffffffffffffffffffffffffffffffffffffffff168173ffffffffffffffffffffffffffffffffffffffff160361318e576040517f49e27cff00000000000000000000000000000000000000000000000000000000815260040160405180910390fd5b806000806101000a81548173ffffffffffffffffffffffffffffffffffffffff021916908373ffffffffffffffffffffffffffffffffffffffff1602179055508073ffffffffffffffffffffffffffffffffffffffff163373ffffffffffffffffffffffffffffffffffffffff167f8be0079c531659141344cd1fd0a4f28419497f9722a3daafe3b4186f6b6457e060405160405180910390a350565b60056020528060005260406000206000915090505481565b60046020528060005260406000206000915090505481565b6000803390506000600160009054906101000a900473ffffffffffffffffffffffffffffffffffffffff1673ffffffffffffffffffffffffffffffffffffffff1663e661a9d2836040518263ffffffff1660e01b81526004016132be9190613bf8565b602060405180830381865afa1580156132db573d6000803e3d6000fd5b505050506040513d601f19601f820116820180604052508101906132ff9190614006565b90506000600560008473ffffffffffffffffffffffffffffffffffffffff1673ffffffffffffffffffffffffffffffffffffffff168152602001908152602001600020548261334e9190613ee8565b905080935050505090565b60135481565b60003390506000600b6000848152602001908152602001600020905060008160000154036135c057600160009054906101000a900473ffffffffffffffffffffffffffffffffffffffff1673ffffffffffffffffffffffffffffffffffffffff166371830a7683856040518363ffffffff1660e01b81526004016133e49291906141bd565b600060405180830381600087803b1580156133fe57600080fd5b505af192505050801561340f575060015b6134835761341b6141f3565b806308c379a003613477575061342f614286565b8061343a5750613479565b806040517f08c379a000000000000000000000000000000000000000000000000000000000815260040161346e9190614384565b60405180910390fd5b505b3d6000803e3d6000fd5b828160000181905550818160010160006101000a81548173ffffffffffffffffffffffffffffffffffffffff021916908373ffffffffffffffffffffffffffffffffffffffff16021790555060008160050160006101000a81548160ff02191690831515021790555080600b6000858152602001908152602001600020600082015481600001556001820160009054906101000a900473ffffffffffffffffffffffffffffffffffffffff168160010160006101000a81548173ffffffffffffffffffffffffffffffffffffffff021916908373ffffffffffffffffffffffffffffffffffffffff1602179055506002820154816002015560038201548160030155600482015481600401556005820160009054906101000a900460ff168160050160006101000a81548160ff0219169083151502179055509050505b60004290508160050160009054906101000a900460ff1615613617576040517f08c379a000000000000000000000000000000000000000000000000000000000815260040161360e90614aa8565b60405180910390fd5b808260040154111561365e576040517f08c379a000000000000000000000000000000000000000000000000000000000815260040161365590614b14565b60405180910390fd5b80826002018190555060018260050160006101000a81548160ff021916908315150217905550600c548161369291906140d5565b826003018190555081600b6000868152602001908152602001600020600082015481600001556001820160009054906101000a900473ffffffffffffffffffffffffffffffffffffffff168160010160006101000a81548173ffffffffffffffffffffffffffffffffffffffff021916908373ffffffffffffffffffffffffffffffffffffffff1602179055506002820154816002015560038201548160030155600482015481600401556005820160009054906101000a900460ff168160050160006101000a81548160ff0219169083151502179055509050507f61c069f0d3725169cbfddaf1a5389632f551f2a7aeb84e785c4b94043e53ec238483600301546040516137a2929190613fc8565b60405180910390a150505050565b6040518060a0016040528060008152602001600081526020016000815260200160008152602001600081525090565b60405180608001604052806000815260200160008152602001600081526020016000151581525090565b60405180608001604052806000815260200160008152602001600081526020016000151581525090565b6040518060800160405280600081526020016000815260200160008152602001600081525090565b6000604051905090565b600080fd5b600080fd5b6000819050919050565b6138828161386f565b811461388d57600080fd5b50565b60008135905061389f81613879565b92915050565b6000602082840312156138bb576138ba613865565b5b60006138c984828501613890565b91505092915050565b6138db8161386f565b82525050565b60a0820160008201516138f760008501826138d2565b50602082015161390a60208501826138d2565b50604082015161391d60408501826138d2565b50606082015161393060608501826138d2565b50608082015161394360808501826138d2565b50505050565b600060a08201905061395e60008301846138e1565b92915050565b61396d8161386f565b82525050565b60006020820190506139886000830184613964565b92915050565b600073ffffffffffffffffffffffffffffffffffffffff82169050919050565b60006139b98261398e565b9050919050565b6139c9816139ae565b81146139d457600080fd5b50565b6000813590506139e6816139c0565b92915050565b600060208284031215613a0257613a01613865565b5b6000613a10848285016139d7565b91505092915050565b600081519050919050565b600082825260208201905092915050565b6000819050602082019050919050565b6000613a5183836138d2565b60208301905092915050565b6000602082019050919050565b6000613a7582613a19565b613a7f8185613a24565b9350613a8a83613a35565b8060005b83811015613abb578151613aa28882613a45565b9750613aad83613a5d565b925050600181019050613a8e565b5085935050505092915050565b60006020820190508181036000830152613ae28184613a6a565b905092915050565b6000819050919050565b6000613b0f613b0a613b058461398e565b613aea565b61398e565b9050919050565b6000613b2182613af4565b9050919050565b6000613b3382613b16565b9050919050565b613b4381613b28565b82525050565b6000602082019050613b5e6000830184613b3a565b92915050565b60008060408385031215613b7b57613b7a613865565b5b6000613b8985828601613890565b9250506020613b9a85828601613890565b9150509250929050565b6000608082019050613bb96000830187613964565b613bc66020830186613964565b613bd36040830185613964565b613be06060830184613964565b95945050505050565b613bf2816139ae565b82525050565b6000602082019050613c0d6000830184613be9565b92915050565b60008060408385031215613c2a57613c29613865565b5b6000613c38858286016139d7565b9250506020613c4985828601613890565b9150509250929050565b60008115159050919050565b613c6881613c53565b82525050565b6000608082019050613c836000830187613964565b613c906020830186613964565b613c9d6040830185613964565b613caa6060830184613c5f565b95945050505050565b600060c082019050613cc86000830189613964565b613cd56020830188613be9565b613ce26040830187613964565b613cef6060830186613964565b613cfc6080830185613964565b613d0960a0830184613c5f565b979650505050505050565b600081519050919050565b600082825260208201905092915050565b6000819050602082019050919050565b613d4981613c53565b82525050565b608082016000820151613d6560008501826138d2565b506020820151613d7860208501826138d2565b506040820151613d8b60408501826138d2565b506060820151613d9e6060850182613d40565b50505050565b6000613db08383613d4f565b60808301905092915050565b6000602082019050919050565b6000613dd482613d14565b613dde8185613d1f565b9350613de983613d30565b8060005b83811015613e1a578151613e018882613da4565b9750613e0c83613dbc565b925050600181019050613ded565b5085935050505092915050565b60006020820190508181036000830152613e418184613dc9565b905092915050565b608082016000820151613e5f60008501826138d2565b506020820151613e7260208501826138d2565b506040820151613e8560408501826138d2565b506060820151613e9860608501826138d2565b50505050565b6000608082019050613eb36000830184613e49565b92915050565b7f4e487b7100000000000000000000000000000000000000000000000000000000600052601160045260246000fd5b6000613ef38261386f565b9150613efe8361386f565b9250828203905081811115613f1657613f15613eb9565b5b92915050565b600082825260208201905092915050565b7f596f75722062616c616e636520697320696e73756666696369656e7400000000600082015250565b6000613f63601c83613f1c565b9150613f6e82613f2d565b602082019050919050565b60006020820190508181036000830152613f9281613f56565b9050919050565b7f4e487b7100000000000000000000000000000000000000000000000000000000600052603260045260246000fd5b6000604082019050613fdd6000830185613964565b613fea6020830184613964565b9392505050565b60008151905061400081613879565b92915050565b60006020828403121561401c5761401b613865565b5b600061402a84828501613ff1565b91505092915050565b600061403e8261386f565b91506140498361386f565b92508282026140578161386f565b9150828204841483151761406e5761406d613eb9565b5b5092915050565b7f4e487b7100000000000000000000000000000000000000000000000000000000600052601260045260246000fd5b60006140af8261386f565b91506140ba8361386f565b9250826140ca576140c9614075565b5b828204905092915050565b60006140e08261386f565b91506140eb8361386f565b925082820190508082111561410357614102613eb9565b5b92915050565b7f436f6d7075746174696f6e206572726f72730000000000000000000000000000600082015250565b600061413f601283613f1c565b915061414a82614109565b602082019050919050565b6000602082019050818103600083015261416e81614132565b9050919050565b60006141808261386f565b91507fffffffffffffffffffffffffffffffffffffffffffffffffffffffffffffffff82036141b2576141b1613eb9565b5b600182019050919050565b60006040820190506141d26000830185613be9565b6141df6020830184613964565b9392505050565b60008160e01c9050919050565b600060033d11156142125760046000803e61420f6000516141e6565b90505b90565b6000601f19601f8301169050919050565b7f4e487b7100000000000000000000000000000000000000000000000000000000600052604160045260246000fd5b61425e82614215565b810181811067ffffffffffffffff8211171561427d5761427c614226565b5b80604052505050565b600060443d106143135761429861385b565b60043d036004823e80513d602482011167ffffffffffffffff821117156142c0575050614313565b808201805167ffffffffffffffff8111156142de5750505050614313565b80602083010160043d0385018111156142fb575050505050614313565b61430a82602001850186614255565b82955050505050505b90565b600081519050919050565b60005b8381101561433f578082015181840152602081019050614324565b60008484015250505050565b600061435682614316565b6143608185613f1c565b9350614370818560208601614321565b61437981614215565b840191505092915050565b6000602082019050818103600083015261439e818461434b565b905092915050565b60006060820190506143bb6000830186613964565b6143c86020830185613964565b6143d56040830184613964565b949350505050565b7f596f757220626c696e6420626f78207175616e7469747920697320696e73756660008201527f66696369656e7400000000000000000000000000000000000000000000000000602082015250565b6000614439602783613f1c565b9150614444826143dd565b604082019050919050565b600060208201905081810360008301526144688161442c565b9050919050565b600061447a8261386f565b91506144858361386f565b92508261449557614494614075565b5b828206905092915050565b6000819050919050565b60006144c56144c06144bb846144a0565b613aea565b61386f565b9050919050565b6144d5816144aa565b82525050565b60006040820190506144f060008301856144cc565b6144fd6020830184613964565b9392505050565b600080fd5b600061451361385b565b905061451f8282614255565b919050565b600067ffffffffffffffff82111561453f5761453e614226565b5b602082029050602081019050919050565b600080fd5b600061456861456384614524565b614509565b9050808382526020820190506020840283018581111561458b5761458a614550565b5b835b818110156145b457806145a08882613ff1565b84526020840193505060208101905061458d565b5050509392505050565b600082601f8301126145d3576145d2614504565b5b81516145e3848260208601614555565b91505092915050565b60006020828403121561460257614601613865565b5b600082015167ffffffffffffffff8111156146205761461f61386a565b5b61462c848285016145be565b91505092915050565b7f54686973206973206e6f7420796f757220647261676f6e20616e642063616e6e60008201527f6f742062652072656465656d6564000000000000000000000000000000000000602082015250565b6000614691602e83613f1c565b915061469c82614635565b604082019050919050565b600060208201905081810360008301526146c081614684565b9050919050565b7f596f757220647261676f6e206973206f6e20616e20616476656e74757265206160008201527f6e642063616e6e6f742062652072656465656d65640000000000000000000000602082015250565b6000614723603583613f1c565b915061472e826146c7565b604082019050919050565b6000602082019050818103600083015261475281614716565b9050919050565b7f596f757220647261676f6e20697320736c656570696e6720616e642063616e6e60008201527f6f742062652072656465656d6564000000000000000000000000000000000000602082015250565b60006147b5602e83613f1c565b91506147c082614759565b604082019050919050565b600060208201905081810360008301526147e4816147a8565b9050919050565b7f496e73756666696369656e74206d696e74207175616e74697479000000000000600082015250565b6000614821601a83613f1c565b915061482c826147eb565b602082019050919050565b6000602082019050818103600083015261485081614814565b9050919050565b7f5468697320647261676f6e206973206e6f7420796f7572730000000000000000600082015250565b600061488d601883613f1c565b915061489882614857565b602082019050919050565b600060208201905081810360008301526148bc81614880565b9050919050565b7f5468697320647261676f6e20646f6573206e6f7420726571756972652074686560008201527f20757365206f66206120736c6565702063617264000000000000000000000000602082015250565b600061491f603483613f1c565b915061492a826148c3565b604082019050919050565b6000602082019050818103600083015261494e81614912565b9050919050565b7f647261676f6e206e6f7420657869737400000000000000000000000000000000600082015250565b600061498b601083613f1c565b915061499682614955565b602082019050919050565b600060208201905081810360008301526149ba8161497e565b9050919050565b7f647261676f6e20646964206e6f742066696e697368206661726d696e67000000600082015250565b60006149f7601d83613f1c565b9150614a02826149c1565b602082019050919050565b60006020820190508181036000830152614a26816149ea565b9050919050565b7f4e487b7100000000000000000000000000000000000000000000000000000000600052602160045260246000fd5b7f447261676f6e206973206661726d696e67000000000000000000000000000000600082015250565b6000614a92601183613f1c565b9150614a9d82614a5c565b602082019050919050565b60006020820190508181036000830152614ac181614a85565b9050919050565b7f447261676f6e206973207374696c6c20736c656570696e670000000000000000600082015250565b6000614afe601883613f1c565b9150614b0982614ac8565b602082019050919050565b60006020820190508181036000830152614b2d81614af1565b905091905056fea26469706673582212201beb16851fa2aa248add6d4dd2b828609a261b90065858e20bf522e664375ee664736f6c63430008140033",
  "linkReferences": {},
  "deployedLinkReferences": {}
}