{
  "_format": "hh-sol-artifact-1",
  "contractName": "GreatLFarming",
  "sourceName": "contracts/GreatLFarming.sol",
  "abi": [
    {
      "inputs": [
        {
          "internalType": "address",
          "name": "_adultL",
          "type": "address"
        },
        {
          "internalType": "address",
          "name": "_dataStorage",
          "type": "address"
        },
        {
          "internalType": "address",
          "name": "_swapAddress",
          "type": "address"
        },
        {
          "internalType": "address payable",
          "name": "_greatLMint",
          "type": "address"
        },
        {
          "internalType": "address",
          "name": "_owner",
          "type": "address"
        }
      ],
      "stateMutability": "nonpayable",
      "type": "constructor"
    },
    {
      "inputs": [],
      "name": "InvalidOwner",
      "type": "error"
    },
    {
      "inputs": [],
      "name": "Unauthorized",
      "type": "error"
    },
    {
      "anonymous": false,
      "inputs": [
        {
          "indexed": false,
          "internalType": "uint256",
          "name": "dragonId",
          "type": "uint256"
        },
        {
          "indexed": false,
          "internalType": "uint256",
          "name": "expectedEndTime",
          "type": "uint256"
        }
      ],
      "name": "DragonFramingStart",
      "type": "event"
    },
    {
      "anonymous": false,
      "inputs": [
        {
          "indexed": true,
          "internalType": "address",
          "name": "sender",
          "type": "address"
        },
        {
          "indexed": false,
          "internalType": "uint256",
          "name": "block",
          "type": "uint256"
        },
        {
          "indexed": false,
          "internalType": "uint256",
          "name": "amount",
          "type": "uint256"
        },
        {
          "indexed": false,
          "internalType": "uint256",
          "name": "taxAmount",
          "type": "uint256"
        }
      ],
      "name": "ExtractTokenResult",
      "type": "event"
    },
    {
      "anonymous": false,
      "inputs": [
        {
          "indexed": true,
          "internalType": "uint256",
          "name": "_dragonId",
          "type": "uint256"
        },
        {
          "indexed": false,
          "internalType": "uint256",
          "name": "success",
          "type": "uint256"
        },
        {
          "indexed": false,
          "internalType": "uint256",
          "name": "reward",
          "type": "uint256"
        }
      ],
      "name": "FarmingResultEvent",
      "type": "event"
    },
    {
      "anonymous": false,
      "inputs": [
        {
          "indexed": true,
          "internalType": "address",
          "name": "user",
          "type": "address"
        },
        {
          "indexed": true,
          "internalType": "address",
          "name": "newOwner",
          "type": "address"
        }
      ],
      "name": "OwnershipTransferred",
      "type": "event"
    },
    {
      "anonymous": false,
      "inputs": [
        {
          "indexed": true,
          "internalType": "uint256",
          "name": "_dragonId",
          "type": "uint256"
        },
        {
          "indexed": false,
          "internalType": "address",
          "name": "user",
          "type": "address"
        }
      ],
      "name": "RedeemDragonResult",
      "type": "event"
    },
    {
      "anonymous": false,
      "inputs": [
        {
          "indexed": true,
          "internalType": "uint256",
          "name": "_dragonId",
          "type": "uint256"
        },
        {
          "indexed": false,
          "internalType": "uint256",
          "name": "reduceTime",
          "type": "uint256"
        }
      ],
      "name": "ReduceSleepingTimeResult",
      "type": "event"
    },
    {
      "inputs": [],
      "name": "bigDragonFarmingMaxEth",
      "outputs": [
        {
          "internalType": "uint256",
          "name": "",
          "type": "uint256"
        }
      ],
      "stateMutability": "view",
      "type": "function"
    },
    {
      "inputs": [],
      "name": "bigDragonFarmingMaxToken",
      "outputs": [
        {
          "internalType": "uint256",
          "name": "",
          "type": "uint256"
        }
      ],
      "stateMutability": "view",
      "type": "function"
    },
    {
      "inputs": [],
      "name": "bigDragonFarmingMinEth",
      "outputs": [
        {
          "internalType": "uint256",
          "name": "",
          "type": "uint256"
        }
      ],
      "stateMutability": "view",
      "type": "function"
    },
    {
      "inputs": [],
      "name": "bigDragonFarmingMinToken",
      "outputs": [
        {
          "internalType": "uint256",
          "name": "",
          "type": "uint256"
        }
      ],
      "stateMutability": "view",
      "type": "function"
    },
    {
      "inputs": [],
      "name": "bigDragonFarmingTime",
      "outputs": [
        {
          "internalType": "uint256",
          "name": "",
          "type": "uint256"
        }
      ],
      "stateMutability": "view",
      "type": "function"
    },
    {
      "inputs": [],
      "name": "bigDragonSleepTime",
      "outputs": [
        {
          "internalType": "uint256",
          "name": "",
          "type": "uint256"
        }
      ],
      "stateMutability": "view",
      "type": "function"
    },
    {
      "inputs": [],
      "name": "claimEthBlindBox",
      "outputs": [
        {
          "internalType": "uint256",
          "name": "",
          "type": "uint256"
        }
      ],
      "stateMutability": "nonpayable",
      "type": "function"
    },
    {
      "inputs": [],
      "name": "claimLongTokenBlindBox",
      "outputs": [
        {
          "internalType": "uint256",
          "name": "",
          "type": "uint256"
        }
      ],
      "stateMutability": "nonpayable",
      "type": "function"
    },
    {
      "inputs": [],
      "name": "dataInstance",
      "outputs": [
        {
          "internalType": "contract DataStorage",
          "name": "",
          "type": "address"
        }
      ],
      "stateMutability": "view",
      "type": "function"
    },
    {
      "inputs": [],
      "name": "dayTime",
      "outputs": [
        {
          "internalType": "uint256",
          "name": "",
          "type": "uint256"
        }
      ],
      "stateMutability": "view",
      "type": "function"
    },
    {
      "inputs": [
        {
          "internalType": "uint256",
          "name": "",
          "type": "uint256"
        },
        {
          "internalType": "uint256",
          "name": "",
          "type": "uint256"
        }
      ],
      "name": "dragonFarmings",
      "outputs": [
        {
          "internalType": "uint256",
          "name": "dragonId",
          "type": "uint256"
        },
        {
          "internalType": "uint256",
          "name": "farmingEndTime",
          "type": "uint256"
        },
        {
          "internalType": "uint256",
          "name": "farmingReward",
          "type": "uint256"
        },
        {
          "internalType": "uint256",
          "name": "farmingResult",
          "type": "uint256"
        }
      ],
      "stateMutability": "view",
      "type": "function"
    },
    {
      "inputs": [
        {
          "internalType": "uint256",
          "name": "_dragonId",
          "type": "uint256"
        }
      ],
      "name": "dragonFraming",
      "outputs": [],
      "stateMutability": "nonpayable",
      "type": "function"
    },
    {
      "inputs": [
        {
          "internalType": "uint256",
          "name": "",
          "type": "uint256"
        }
      ],
      "name": "dragons",
      "outputs": [
        {
          "internalType": "uint256",
          "name": "dragonId",
          "type": "uint256"
        },
        {
          "internalType": "address",
          "name": "dragonOwner",
          "type": "address"
        },
        {
          "internalType": "uint256",
          "name": "lastFarmingTime",
          "type": "uint256"
        },
        {
          "internalType": "uint256",
          "name": "farmingEndTime",
          "type": "uint256"
        },
        {
          "internalType": "uint256",
          "name": "sleepEndTime",
          "type": "uint256"
        },
        {
          "internalType": "bool",
          "name": "farmingStatus",
          "type": "bool"
        }
      ],
      "stateMutability": "view",
      "type": "function"
    },
    {
      "inputs": [],
      "name": "extractFarmingEthAmount",
      "outputs": [],
      "stateMutability": "nonpayable",
      "type": "function"
    },
    {
      "inputs": [
        {
          "internalType": "uint256",
          "name": "_amount",
          "type": "uint256"
        }
      ],
      "name": "extractFarmingTokenAmount",
      "outputs": [],
      "stateMutability": "nonpayable",
      "type": "function"
    },
    {
      "inputs": [
        {
          "internalType": "uint256",
          "name": "_dragonId",
          "type": "uint256"
        }
      ],
      "name": "getDragonFarmingResult",
      "outputs": [
        {
          "components": [
            {
              "internalType": "uint256",
              "name": "dragonId",
              "type": "uint256"
            },
            {
              "internalType": "uint256",
              "name": "farmingEndTime",
              "type": "uint256"
            },
            {
              "internalType": "uint256",
              "name": "farmingReward",
              "type": "uint256"
            },
            {
              "internalType": "uint256",
              "name": "farmingResult",
              "type": "uint256"
            }
          ],
          "internalType": "struct IFarming.Farming",
          "name": "",
          "type": "tuple"
        }
      ],
      "stateMutability": "nonpayable",
      "type": "function"
    },
    {
      "inputs": [],
      "name": "getDragonFramingList",
      "outputs": [
        {
          "components": [
            {
              "internalType": "uint256",
              "name": "dragonId",
              "type": "uint256"
            },
            {
              "internalType": "uint256",
              "name": "farmingEndTime",
              "type": "uint256"
            },
            {
              "internalType": "uint256",
              "name": "sleepEndTime",
              "type": "uint256"
            },
            {
              "internalType": "bool",
              "name": "farmingStatus",
              "type": "bool"
            }
          ],
          "internalType": "struct IFarming.DragonInfo[]",
          "name": "",
          "type": "tuple[]"
        }
      ],
      "stateMutability": "view",
      "type": "function"
    },
    {
      "inputs": [],
      "name": "getFarmingEthAmount",
      "outputs": [
        {
          "components": [
            {
              "internalType": "uint256",
              "name": "ethAmount",
              "type": "uint256"
            },
            {
              "internalType": "uint256",
              "name": "ethExtractAmount",
              "type": "uint256"
            },
            {
              "internalType": "uint256",
              "name": "ethToBeExtractedAmount",
              "type": "uint256"
            }
          ],
          "internalType": "struct IFarming.FarmingEthStatistics",
          "name": "",
          "type": "tuple"
        }
      ],
      "stateMutability": "view",
      "type": "function"
    },
    {
      "inputs": [],
      "name": "getFarmingTokenAmount",
      "outputs": [
        {
          "components": [
            {
              "internalType": "uint256",
              "name": "farmingTokenAmount",
              "type": "uint256"
            },
            {
              "internalType": "uint256",
              "name": "extractAmount",
              "type": "uint256"
            },
            {
              "internalType": "uint256",
              "name": "toBeExtractedAmount",
              "type": "uint256"
            },
            {
              "internalType": "uint256",
              "name": "toBeExtractedUnlockingAmount",
              "type": "uint256"
            },
            {
              "internalType": "uint256",
              "name": "taxationAmount",
              "type": "uint256"
            }
          ],
          "internalType": "struct IFarming.FarmingTokenStatistics",
          "name": "",
          "type": "tuple"
        }
      ],
      "stateMutability": "view",
      "type": "function"
    },
    {
      "inputs": [],
      "name": "getTalismanNum",
      "outputs": [
        {
          "internalType": "uint256",
          "name": "",
          "type": "uint256"
        }
      ],
      "stateMutability": "view",
      "type": "function"
    },
    {
      "inputs": [],
      "name": "getTimeReductionCardNum",
      "outputs": [
        {
          "internalType": "uint256",
          "name": "",
          "type": "uint256"
        }
      ],
      "stateMutability": "view",
      "type": "function"
    },
    {
      "inputs": [],
      "name": "getUserDragons",
      "outputs": [
        {
          "internalType": "uint256[]",
          "name": "",
          "type": "uint256[]"
        }
      ],
      "stateMutability": "view",
      "type": "function"
    },
    {
      "inputs": [],
      "name": "getUserUnopenedBlindBox",
      "outputs": [
        {
          "components": [
            {
              "internalType": "uint256",
              "name": "ethBlindBox",
              "type": "uint256"
            },
            {
              "internalType": "uint256",
              "name": "longTokenBlindBox",
              "type": "uint256"
            },
            {
              "internalType": "uint256",
              "name": "equipBlindBox",
              "type": "uint256"
            },
            {
              "internalType": "uint256",
              "name": "aUBlindBox",
              "type": "uint256"
            }
          ],
          "internalType": "struct IFarming.UnopenedBlindBox",
          "name": "",
          "type": "tuple"
        }
      ],
      "stateMutability": "view",
      "type": "function"
    },
    {
      "inputs": [],
      "name": "greatDragonFarmingGetEquipmentProbability",
      "outputs": [
        {
          "internalType": "uint256",
          "name": "",
          "type": "uint256"
        }
      ],
      "stateMutability": "view",
      "type": "function"
    },
    {
      "inputs": [],
      "name": "greatDragonFarmingGetEthProbability",
      "outputs": [
        {
          "internalType": "uint256",
          "name": "",
          "type": "uint256"
        }
      ],
      "stateMutability": "view",
      "type": "function"
    },
    {
      "inputs": [],
      "name": "greatDragonFarmingGetTalismanProbability",
      "outputs": [
        {
          "internalType": "uint256",
          "name": "",
          "type": "uint256"
        }
      ],
      "stateMutability": "view",
      "type": "function"
    },
    {
      "inputs": [],
      "name": "greatDragonFarmingGetTokenProbability",
      "outputs": [
        {
          "internalType": "uint256",
          "name": "",
          "type": "uint256"
        }
      ],
      "stateMutability": "view",
      "type": "function"
    },
    {
      "inputs": [],
      "name": "greatLMintInstance",
      "outputs": [
        {
          "internalType": "contract GreatLMint",
          "name": "",
          "type": "address"
        }
      ],
      "stateMutability": "view",
      "type": "function"
    },
    {
      "inputs": [],
      "name": "lInstance",
      "outputs": [
        {
          "internalType": "contract Loong",
          "name": "",
          "type": "address"
        }
      ],
      "stateMutability": "view",
      "type": "function"
    },
    {
      "inputs": [],
      "name": "owner",
      "outputs": [
        {
          "internalType": "address",
          "name": "",
          "type": "address"
        }
      ],
      "stateMutability": "view",
      "type": "function"
    },
    {
      "inputs": [
        {
          "internalType": "uint256",
          "name": "_dragonId",
          "type": "uint256"
        }
      ],
      "name": "redeemDragon",
      "outputs": [],
      "stateMutability": "nonpayable",
      "type": "function"
    },
    {
      "inputs": [
        {
          "internalType": "uint256",
          "name": "_dragonId",
          "type": "uint256"
        }
      ],
      "name": "reduceSleepingTime",
      "outputs": [],
      "stateMutability": "nonpayable",
      "type": "function"
    },
    {
      "inputs": [],
      "name": "releasePercentage",
      "outputs": [
        {
          "internalType": "uint256",
          "name": "",
          "type": "uint256"
        }
      ],
      "stateMutability": "view",
      "type": "function"
    },
    {
      "inputs": [],
      "name": "revokeOwnership",
      "outputs": [],
      "stateMutability": "nonpayable",
      "type": "function"
    },
    {
      "inputs": [
        {
          "internalType": "address payable",
          "name": "_greatLMint",
          "type": "address"
        }
      ],
      "name": "setBabyLMintInstanceAddr",
      "outputs": [],
      "stateMutability": "nonpayable",
      "type": "function"
    },
    {
      "inputs": [
        {
          "internalType": "address",
          "name": "_swapAddress",
          "type": "address"
        }
      ],
      "name": "setSwapAddress",
      "outputs": [],
      "stateMutability": "nonpayable",
      "type": "function"
    },
    {
      "inputs": [],
      "name": "sleepTimeReductionPerInvite",
      "outputs": [
        {
          "internalType": "uint256",
          "name": "",
          "type": "uint256"
        }
      ],
      "stateMutability": "view",
      "type": "function"
    },
    {
      "inputs": [],
      "name": "swapAddress",
      "outputs": [
        {
          "internalType": "address",
          "name": "",
          "type": "address"
        }
      ],
      "stateMutability": "view",
      "type": "function"
    },
    {
      "inputs": [],
      "name": "taxReductionPerDay",
      "outputs": [
        {
          "internalType": "uint256",
          "name": "",
          "type": "uint256"
        }
      ],
      "stateMutability": "view",
      "type": "function"
    },
    {
      "inputs": [],
      "name": "theProbabilityOfEncounteringEvilSpirits",
      "outputs": [
        {
          "internalType": "uint256",
          "name": "",
          "type": "uint256"
        }
      ],
      "stateMutability": "view",
      "type": "function"
    },
    {
      "inputs": [
        {
          "internalType": "address",
          "name": "_owner",
          "type": "address"
        }
      ],
      "name": "transferOwnership",
      "outputs": [],
      "stateMutability": "nonpayable",
      "type": "function"
    },
    {
      "inputs": [
        {
          "internalType": "address",
          "name": "",
          "type": "address"
        }
      ],
      "name": "useTalisman",
      "outputs": [
        {
          "internalType": "uint256",
          "name": "",
          "type": "uint256"
        }
      ],
      "stateMutability": "view",
      "type": "function"
    },
    {
      "inputs": [
        {
          "internalType": "address",
          "name": "",
          "type": "address"
        },
        {
          "internalType": "uint256",
          "name": "",
          "type": "uint256"
        }
      ],
      "name": "userDragonFarmings",
      "outputs": [
        {
          "internalType": "uint256",
          "name": "getTime",
          "type": "uint256"
        },
        {
          "internalType": "uint256",
          "name": "farmingTokenReward",
          "type": "uint256"
        },
        {
          "internalType": "uint256",
          "name": "extractAmount",
          "type": "uint256"
        },
        {
          "internalType": "bool",
          "name": "extractFlag",
          "type": "bool"
        }
      ],
      "stateMutability": "view",
      "type": "function"
    },
    {
      "inputs": [
        {
          "internalType": "address",
          "name": "",
          "type": "address"
        },
        {
          "internalType": "uint256",
          "name": "",
          "type": "uint256"
        }
      ],
      "name": "userDragonIds",
      "outputs": [
        {
          "internalType": "uint256",
          "name": "",
          "type": "uint256"
        }
      ],
      "stateMutability": "view",
      "type": "function"
    },
    {
      "inputs": [
        {
          "internalType": "address",
          "name": "",
          "type": "address"
        }
      ],
      "name": "userEquipBlindBox",
      "outputs": [
        {
          "internalType": "uint256",
          "name": "",
          "type": "uint256"
        }
      ],
      "stateMutability": "view",
      "type": "function"
    },
    {
      "inputs": [
        {
          "internalType": "address",
          "name": "",
          "type": "address"
        }
      ],
      "name": "userEthAmount",
      "outputs": [
        {
          "internalType": "uint256",
          "name": "",
          "type": "uint256"
        }
      ],
      "stateMutability": "view",
      "type": "function"
    },
    {
      "inputs": [
        {
          "internalType": "address",
          "name": "",
          "type": "address"
        }
      ],
      "name": "userEthBlindBox",
      "outputs": [
        {
          "internalType": "uint256",
          "name": "",
          "type": "uint256"
        }
      ],
      "stateMutability": "view",
      "type": "function"
    },
    {
      "inputs": [
        {
          "internalType": "address",
          "name": "",
          "type": "address"
        }
      ],
      "name": "userEthExtractAmount",
      "outputs": [
        {
          "internalType": "uint256",
          "name": "",
          "type": "uint256"
        }
      ],
      "stateMutability": "view",
      "type": "function"
    },
    {
      "inputs": [
        {
          "internalType": "address",
          "name": "",
          "type": "address"
        },
        {
          "internalType": "uint256",
          "name": "",
          "type": "uint256"
        }
      ],
      "name": "userEthRewards",
      "outputs": [
        {
          "internalType": "uint256",
          "name": "ethAmount",
          "type": "uint256"
        },
        {
          "internalType": "bool",
          "name": "claimed",
          "type": "bool"
        }
      ],
      "stateMutability": "view",
      "type": "function"
    },
    {
      "inputs": [
        {
          "internalType": "address",
          "name": "",
          "type": "address"
        }
      ],
      "name": "userExtractAmount",
      "outputs": [
        {
          "internalType": "uint256",
          "name": "",
          "type": "uint256"
        }
      ],
      "stateMutability": "view",
      "type": "function"
    },
    {
      "inputs": [
        {
          "internalType": "address",
          "name": "",
          "type": "address"
        }
      ],
      "name": "userFarmingAmount",
      "outputs": [
        {
          "internalType": "uint256",
          "name": "",
          "type": "uint256"
        }
      ],
      "stateMutability": "view",
      "type": "function"
    },
    {
      "inputs": [
        {
          "internalType": "address",
          "name": "",
          "type": "address"
        },
        {
          "internalType": "uint256",
          "name": "",
          "type": "uint256"
        }
      ],
      "name": "userFarmings",
      "outputs": [
        {
          "internalType": "uint256",
          "name": "dragonId",
          "type": "uint256"
        },
        {
          "internalType": "uint256",
          "name": "farmingEndTime",
          "type": "uint256"
        },
        {
          "internalType": "uint256",
          "name": "farmingReward",
          "type": "uint256"
        },
        {
          "internalType": "uint256",
          "name": "farmingResult",
          "type": "uint256"
        }
      ],
      "stateMutability": "view",
      "type": "function"
    },
    {
      "inputs": [
        {
          "internalType": "address",
          "name": "",
          "type": "address"
        }
      ],
      "name": "userSleepCardUsage",
      "outputs": [
        {
          "internalType": "uint256",
          "name": "",
          "type": "uint256"
        }
      ],
      "stateMutability": "view",
      "type": "function"
    },
    {
      "inputs": [
        {
          "internalType": "address",
          "name": "",
          "type": "address"
        }
      ],
      "name": "userTaxationAmount",
      "outputs": [
        {
          "internalType": "uint256",
          "name": "",
          "type": "uint256"
        }
      ],
      "stateMutability": "view",
      "type": "function"
    },
    {
      "inputs": [
        {
          "internalType": "address",
          "name": "",
          "type": "address"
        }
      ],
      "name": "userTokenBlindBox",
      "outputs": [
        {
          "internalType": "uint256",
          "name": "",
          "type": "uint256"
        }
      ],
      "stateMutability": "view",
      "type": "function"
    },
    {
      "inputs": [
        {
          "internalType": "address",
          "name": "",
          "type": "address"
        }
      ],
      "name": "userUnlockingIndex",
      "outputs": [
        {
          "internalType": "uint256",
          "name": "",
          "type": "uint256"
        }
      ],
      "stateMutability": "view",
      "type": "function"
    }
  ],
  "bytecode": "0x608060405261a8c0601655611388601755614e206018556003601955600a601a55600c601b556005601c556001601d55612710601e55613a98601f55600a602055602360215562278d006022556203f480602355620151806024553480156200006757600080fd5b50604051620063403803806200634083398181016040528101906200008d91906200034f565b80600073ffffffffffffffffffffffffffffffffffffffff168173ffffffffffffffffffffffffffffffffffffffff1603620000f5576040517f49e27cff00000000000000000000000000000000000000000000000000000000815260040160405180910390fd5b806000806101000a81548173ffffffffffffffffffffffffffffffffffffffff021916908373ffffffffffffffffffffffffffffffffffffffff1602179055508073ffffffffffffffffffffffffffffffffffffffff16600073ffffffffffffffffffffffffffffffffffffffff167f8be0079c531659141344cd1fd0a4f28419497f9722a3daafe3b4186f6b6457e060405160405180910390a35082600460006101000a81548173ffffffffffffffffffffffffffffffffffffffff021916908373ffffffffffffffffffffffffffffffffffffffff16021790555084600160006101000a81548173ffffffffffffffffffffffffffffffffffffffff021916908373ffffffffffffffffffffffffffffffffffffffff16021790555083600260006101000a81548173ffffffffffffffffffffffffffffffffffffffff021916908373ffffffffffffffffffffffffffffffffffffffff16021790555081600360006101000a81548173ffffffffffffffffffffffffffffffffffffffff021916908373ffffffffffffffffffffffffffffffffffffffff1602179055505050505050620003d7565b600080fd5b600073ffffffffffffffffffffffffffffffffffffffff82169050919050565b6000620002d282620002a5565b9050919050565b620002e481620002c5565b8114620002f057600080fd5b50565b6000815190506200030481620002d9565b92915050565b60006200031782620002a5565b9050919050565b62000329816200030a565b81146200033557600080fd5b50565b60008151905062000349816200031e565b92915050565b600080600080600060a086880312156200036e576200036d620002a0565b5b60006200037e88828901620002f3565b95505060206200039188828901620002f3565b9450506040620003a488828901620002f3565b9350506060620003b78882890162000338565b9250506080620003ca88828901620002f3565b9150509295509295909350565b615f5980620003e76000396000f3fe608060405234801561001057600080fd5b50600436106103785760003560e01c80638da5cb5b116101d3578063cdf6866711610104578063f0ccff0c116100a2578063f508ab8b1161007c578063f508ab8b14610aa2578063f5f85ea514610ad2578063f6ee6d4014610af0578063fee4383e14610b0e57610378565b8063f0ccff0c14610a38578063f2fde38b14610a56578063f48e3c6114610a7257610378565b8063d2a59d69116100de578063d2a59d6914610997578063e0901932146109cc578063e60a3c73146109fc578063ed228acf14610a1a57610378565b8063cdf686671461091b578063cfb397541461094b578063d077f7911461096757610378565b8063b467ce4a11610171578063c14f8aad1161014b578063c14f8aad1461088e578063c694aa19146108ac578063c7e188c6146108ca578063c9105edd146108e857610378565b8063b467ce4a1461080d578063ba4c301214610840578063bcec89c31461085e57610378565b80639d8b95d1116101ad5780639d8b95d114610785578063a48cbb32146107b5578063ab8028b3146107e5578063b22d88cb1461080357610378565b80638da5cb5b1461072d578063905a6e751461074b578063924390121461076957610378565b806346aa1f90116102ad57806377c0b17e1161024b57806380c0976e1161022557806380c0976e146106a357806380e47035146106c157806380f6d782146106df57806383904c48146106fd57610378565b806377c0b17e146106395780637dc4b9cc146106575780637ef88a861461067357610378565b8063532143c711610287578063532143c7146105c357806360c50d6c146105e1578063651640fd146105ff578063731e7a8b1461061b57610378565b806346aa1f90146105425780634b2cc004146105605780634eb2a7651461059357610378565b806314756fe61161031a57806318537ca4116102f457806318537ca4146104cb57806328d965ba146104e95780632b9689581461050757806331b5f3f91461051157610378565b806314756fe61461047157806315ddd6941461048f578063165e5934146104ad57610378565b80630c3924d4116103565780630c3924d4146103d55780630d69c511146103f3578063124f713c1461041157806312656fe41461044157610378565b806301edee4f1461037d57806308e132041461039957806309057a13146103b7575b600080fd5b610397600480360381019061039291906148ba565b610b2a565b005b6103a16116b2565b6040516103ae91906148f6565b60405180910390f35b6103bf6116b8565b6040516103cc91906148f6565b60405180910390f35b6103dd6116be565b6040516103ea9190614988565b60405180910390f35b6103fb6119db565b60405161040891906148f6565b60405180910390f35b61042b60048036038101906104269190614a01565b6119e1565b60405161043891906148f6565b60405180910390f35b61045b60048036038101906104569190614a41565b611a12565b60405161046891906148f6565b60405180910390f35b610479611a2a565b6040516104869190614acd565b60405180910390f35b610497611a50565b6040516104a491906148f6565b60405180910390f35b6104b5611a56565b6040516104c291906148f6565b60405180910390f35b6104d3611a5c565b6040516104e091906148f6565b60405180910390f35b6104f1611cc1565b6040516104fe91906148f6565b60405180910390f35b61050f611cc7565b005b61052b60048036038101906105269190614a01565b611dea565b604051610539929190614b03565b60405180910390f35b61054a611e38565b6040516105579190614bdb565b60405180910390f35b61057a60048036038101906105759190614bfd565b611ee6565b60405161058a9493929190614c3d565b60405180910390f35b6105ad60048036038101906105a89190614a41565b611f33565b6040516105ba91906148f6565b60405180910390f35b6105cb611f4b565b6040516105d89190614cc4565b60405180910390f35b6105e961201a565b6040516105f691906148f6565b60405180910390f35b610619600480360381019061061491906148ba565b61226c565b005b61062361266a565b6040516106309190614d12565b60405180910390f35b610641612690565b60405161064e91906148f6565b60405180910390f35b610671600480360381019061066c9190614a41565b6126dc565b005b61068d60048036038101906106889190614a41565b6127a5565b60405161069a91906148f6565b60405180910390f35b6106ab6127bd565b6040516106b891906148f6565b60405180910390f35b6106c96127c3565b6040516106d691906148f6565b60405180910390f35b6106e76127c9565b6040516106f49190614d3c565b60405180910390f35b61071760048036038101906107129190614a41565b6127ef565b60405161072491906148f6565b60405180910390f35b610735612807565b6040516107429190614d3c565b60405180910390f35b61075361282b565b60405161076091906148f6565b60405180910390f35b610783600480360381019061077e9190614d95565b612831565b005b61079f600480360381019061079a9190614a41565b6128fa565b6040516107ac91906148f6565b60405180910390f35b6107cf60048036038101906107ca9190614a41565b612912565b6040516107dc91906148f6565b60405180910390f35b6107ed61292a565b6040516107fa91906148f6565b60405180910390f35b61080b612930565b005b61082760048036038101906108229190614a01565b612bae565b6040516108379493929190614c3d565b60405180910390f35b610848612bfb565b6040516108559190614de3565b60405180910390f35b61087860048036038101906108739190614a41565b612c21565b60405161088591906148f6565b60405180910390f35b610896612c39565b6040516108a391906148f6565b60405180910390f35b6108b4612c3f565b6040516108c191906148f6565b60405180910390f35b6108d2612c45565b6040516108df91906148f6565b60405180910390f35b61090260048036038101906108fd9190614a01565b612c4b565b6040516109129493929190614dfe565b60405180910390f35b61093560048036038101906109309190614a41565b612ca5565b60405161094291906148f6565b60405180910390f35b610965600480360381019061096091906148ba565b612cbd565b005b610981600480360381019061097c91906148ba565b61307d565b60405161098e9190614e98565b60405180910390f35b6109b160048036038101906109ac91906148ba565b613bcb565b6040516109c396959493929190614eb3565b60405180910390f35b6109e660048036038101906109e19190614a41565b613c34565b6040516109f391906148f6565b60405180910390f35b610a04613c4c565b604051610a119190615027565b60405180910390f35b610a22613e54565b604051610a2f919061509e565b60405180910390f35b610a40613f4c565b604051610a4d91906148f6565b60405180910390f35b610a706004803603810190610a6b9190614a41565b613f52565b005b610a8c6004803603810190610a879190614a41565b6140da565b604051610a9991906148f6565b60405180910390f35b610abc6004803603810190610ab79190614a41565b6140f2565b604051610ac991906148f6565b60405180910390f35b610ada61410a565b604051610ae791906148f6565b60405180910390f35b610af8614110565b604051610b0591906148f6565b60405180910390f35b610b286004803603810190610b2391906148ba565b61421a565b005b6000339050600042905060008390506000600560008573ffffffffffffffffffffffffffffffffffffffff1673ffffffffffffffffffffffffffffffffffffffff1681526020019081526020016000205490506000600660008673ffffffffffffffffffffffffffffffffffffffff1673ffffffffffffffffffffffffffffffffffffffff1681526020019081526020016000205490506000600760008773ffffffffffffffffffffffffffffffffffffffff1673ffffffffffffffffffffffffffffffffffffffff1681526020019081526020016000205490506000818385610c1491906150e8565b610c1e91906150e8565b905087811015610c63576040517f08c379a0000000000000000000000000000000000000000000000000000000008152600401610c5a90615179565b60405180910390fd5b6000601260008973ffffffffffffffffffffffffffffffffffffffff1673ffffffffffffffffffffffffffffffffffffffff168152602001908152602001600020905060005b8180549050811015610fa85760008a1115610fa85787828281548110610cd257610cd1615199565b5b906000526020600020906004020160000154108015610d205750818181548110610cff57610cfe615199565b5b906000526020600020906004020160030160009054906101000a900460ff16155b15610f95576000610d5589848481548110610d3e57610d3d615199565b5b9060005260206000209060040201600001546146d3565b9050600080600a8310610d8e57848481548110610d7557610d74615199565b5b9060005260206000209060040201600101549150610dda565b606483602054878781548110610da757610da6615199565b5b906000526020600020906004020160010154610dc391906151c8565b610dcd91906151c8565b610dd79190615239565b91505b6000858581548110610def57610dee615199565b5b90600052602060002090600402016002015483610e0c91906150e8565b90508d8111610e2b57808e610e2191906150e8565b9d50809150610e33565b8d915060009d505b6000868681548110610e4857610e47615199565b5b90600052602060002090600402016002015483610e65919061526a565b9050868681548110610e7a57610e79615199565b5b906000526020600020906004020160010154811115610ece576040517f08c379a0000000000000000000000000000000000000000000000000000000008152600401610ec5906152ea565b60405180910390fd5b868681548110610ee157610ee0615199565b5b906000526020600020906004020160010154811015610f285780878781548110610f0e57610f0d615199565b5b906000526020600020906004020160020181905550610f8f565b80878781548110610f3c57610f3b615199565b5b9060005260206000209060040201600201819055506001878781548110610f6657610f65615199565b5b906000526020600020906004020160030160006101000a81548160ff0219169083151502179055505b50505050505b8080610fa09061530a565b915050610ca9565b506000808a106112a65760005b82805490508110156112a45760008b11156112a45788838281548110610fde57610fdd615199565b5b90600052602060002090600402016000015410801561102c575082818154811061100b5761100a615199565b5b906000526020600020906004020160030160009054906101000a900460ff16155b156112915760006110618a85848154811061104a57611049615199565b5b9060005260206000209060040201600001546146d3565b9050600080600a83101561107f5782600a61107c91906150e8565b90505b600086858154811061109457611093615199565b5b9060005260206000209060040201600201548786815481106110b9576110b8615199565b5b9060005260206000209060040201600101546110d591906150e8565b90508e81116110f457808f6110ea91906150e8565b9e508092506110fc565b8e925060009e505b600087868154811061111157611110615199565b5b9060005260206000209060040201600201548461112e919061526a565b905087868154811061114357611142615199565b5b906000526020600020906004020160010154811115611197576040517f08c379a000000000000000000000000000000000000000000000000000000000815260040161118e906152ea565b60405180910390fd5b8786815481106111aa576111a9615199565b5b9060005260206000209060040201600101548110156111f157808887815481106111d7576111d6615199565b5b906000526020600020906004020160020181905550611258565b8088878154811061120557611204615199565b5b906000526020600020906004020160020181905550600188878154811061122f5761122e615199565b5b906000526020600020906004020160030160006101000a81548160ff0219169083151502179055505b6103e8836021548661126a91906151c8565b61127491906151c8565b61127e9190615239565b87611289919061526a565b965050505050505b808061129c9061530a565b915050610fb5565b505b86600660008b73ffffffffffffffffffffffffffffffffffffffff1673ffffffffffffffffffffffffffffffffffffffff16815260200190815260200160002060008282546112f5919061526a565b9250508190555080600760008b73ffffffffffffffffffffffffffffffffffffffff1673ffffffffffffffffffffffffffffffffffffffff168152602001908152602001600020600082825461134b919061526a565b925050819055506000818861136091906150e8565b9050600160009054906101000a900473ffffffffffffffffffffffffffffffffffffffff1673ffffffffffffffffffffffffffffffffffffffff166323b872dd600460009054906101000a900473ffffffffffffffffffffffffffffffffffffffff168c600260009054906101000a900473ffffffffffffffffffffffffffffffffffffffff1673ffffffffffffffffffffffffffffffffffffffff166319af2823866040518263ffffffff1660e01b815260040161141f91906148f6565b602060405180830381865afa15801561143c573d6000803e3d6000fd5b505050506040513d601f19601f820116820180604052508101906114609190615367565b6040518463ffffffff1660e01b815260040161147e93929190615394565b600060405180830381600087803b15801561149857600080fd5b505af19250505080156114a9575060015b61151d576114b56153d8565b806308c379a00361151157506114c961546b565b806114d45750611513565b806040517f08c379a00000000000000000000000000000000000000000000000000000000081526004016115089190615569565b60405180910390fd5b505b3d6000803e3d6000fd5b8973ffffffffffffffffffffffffffffffffffffffff167fa3f98d5dc6b06ac2bb075b43a9b4e6435b6014d1119ee56239152469cdd0d04e43600260009054906101000a900473ffffffffffffffffffffffffffffffffffffffff1673ffffffffffffffffffffffffffffffffffffffff166319af2823856040518263ffffffff1660e01b81526004016115b191906148f6565b602060405180830381865afa1580156115ce573d6000803e3d6000fd5b505050506040513d601f19601f820116820180604052508101906115f29190615367565b600260009054906101000a900473ffffffffffffffffffffffffffffffffffffffff1673ffffffffffffffffffffffffffffffffffffffff166319af2823876040518263ffffffff1660e01b815260040161164d91906148f6565b602060405180830381865afa15801561166a573d6000803e3d6000fd5b505050506040513d601f19601f8201168201806040525081019061168e9190615367565b60405161169d9392919061558b565b60405180910390a25050505050505050505050565b60165481565b601e5481565b6116c661477c565b600033905060004290506000600560008473ffffffffffffffffffffffffffffffffffffffff1673ffffffffffffffffffffffffffffffffffffffff1681526020019081526020016000205490506000600660008573ffffffffffffffffffffffffffffffffffffffff1673ffffffffffffffffffffffffffffffffffffffff1681526020019081526020016000205490506000600760008673ffffffffffffffffffffffffffffffffffffffff1673ffffffffffffffffffffffffffffffffffffffff16815260200190815260200160002054905060008183856117ab91906150e8565b6117b591906150e8565b90506000601260008873ffffffffffffffffffffffffffffffffffffffff1673ffffffffffffffffffffffffffffffffffffffff168152602001908152602001600020805480602002602001604051908101604052809291908181526020016000905b8282101561188357838290600052602060002090600402016040518060800160405290816000820154815260200160018201548152602001600282015481526020016003820160009054906101000a900460ff16151515158152505081526020019060010190611818565b5050505090506000805b825181101561198757878382815181106118aa576118a9615199565b5b60200260200101516000015110156119745760006118e6898584815181106118d5576118d4615199565b5b6020026020010151600001516146d3565b9050600a81106119215783828151811061190357611902615199565b5b6020026020010151602001518361191a919061526a565b9250611972565b60648160205486858151811061193a57611939615199565b5b60200260200101516020015161195091906151c8565b61195a91906151c8565b6119649190615239565b8361196f919061526a565b92505b505b808061197f9061530a565b91505061188d565b5083858261199591906150e8565b61199f91906150e8565b905060006040518060a0016040528088815260200187815260200185815260200183815260200186815250905080995050505050505050505090565b601f5481565b601560205281600052604060002081815481106119fd57600080fd5b90600052602060002001600091509150505481565b600a6020528060005260406000206000915090505481565b600260009054906101000a900473ffffffffffffffffffffffffffffffffffffffff1681565b60175481565b60205481565b60008033905060004290506000600f60008473ffffffffffffffffffffffffffffffffffffffff1673ffffffffffffffffffffffffffffffffffffffff16815260200190815260200160002054905060008111611aee576040517f08c379a0000000000000000000000000000000000000000000000000000000008152600401611ae590615634565b60405180910390fd5b6000611af861473a565b905060006017546001601754601854611b1191906150e8565b611b1b919061526a565b83611b269190615654565b611b30919061526a565b9050611b3a6147ab565b84816000018181525050818160200181815250506000816060019015159081151581525050601260008773ffffffffffffffffffffffffffffffffffffffff1673ffffffffffffffffffffffffffffffffffffffff16815260200190815260200160002081908060018154018082558091505060019003906000526020600020906004020160009091909190915060008201518160000155602082015181600101556040820151816002015560608201518160030160006101000a81548160ff021916908315150217905550505081600560008873ffffffffffffffffffffffffffffffffffffffff1673ffffffffffffffffffffffffffffffffffffffff1681526020019081526020016000206000828254611c57919061526a565b925050819055506001600f60008873ffffffffffffffffffffffffffffffffffffffff1673ffffffffffffffffffffffffffffffffffffffff1681526020019081526020016000206000828254611cae91906150e8565b9250508190555081965050505050505090565b601a5481565b60008054906101000a900473ffffffffffffffffffffffffffffffffffffffff1673ffffffffffffffffffffffffffffffffffffffff163373ffffffffffffffffffffffffffffffffffffffff1614611d4c576040517f82b4290000000000000000000000000000000000000000000000000000000000815260040160405180910390fd5b60008060006101000a81548173ffffffffffffffffffffffffffffffffffffffff021916908373ffffffffffffffffffffffffffffffffffffffff160217905550600073ffffffffffffffffffffffffffffffffffffffff163373ffffffffffffffffffffffffffffffffffffffff167f8be0079c531659141344cd1fd0a4f28419497f9722a3daafe3b4186f6b6457e060405160405180910390a3565b60096020528160005260406000208181548110611e0657600080fd5b9060005260206000209060020201600091509150508060000154908060010160009054906101000a900460ff16905082565b60606000339050600160009054906101000a900473ffffffffffffffffffffffffffffffffffffffff1673ffffffffffffffffffffffffffffffffffffffff16637c688597826040518263ffffffff1660e01b8152600401611e9a9190614d3c565b600060405180830381865afa158015611eb7573d6000803e3d6000fd5b505050506040513d6000823e3d601f19601f82011682018060405250810190611ee0919061576d565b91505090565b600c6020528160005260406000208181548110611f0257600080fd5b9060005260206000209060040201600091509150508060000154908060010154908060020154908060030154905084565b60066020528060005260406000206000915090505481565b611f536147d5565b60003390506000600a60008373ffffffffffffffffffffffffffffffffffffffff1673ffffffffffffffffffffffffffffffffffffffff1681526020019081526020016000205490506000600b60008473ffffffffffffffffffffffffffffffffffffffff1673ffffffffffffffffffffffffffffffffffffffff16815260200190815260200160002054905060008183611fee91906150e8565b905060006040518060600160405280858152602001848152602001838152509050809550505050505090565b6000803390506000600e60008373ffffffffffffffffffffffffffffffffffffffff1673ffffffffffffffffffffffffffffffffffffffff168152602001908152602001600020549050600081116120a7576040517f08c379a000000000000000000000000000000000000000000000000000000000815260040161209e90615634565b60405180910390fd5b60006120b161473a565b905060006019546001601954601a546120ca91906150e8565b6120d4919061526a565b836120df9190615654565b6120e9919061526a565b90506000662386f26fc100008261210091906151c8565b905060006040518060400160405280838152602001600015158152509050600960008773ffffffffffffffffffffffffffffffffffffffff1673ffffffffffffffffffffffffffffffffffffffff1681526020019081526020016000208190806001815401808255809150506001900390600052602060002090600202016000909190919091506000820151816000015560208201518160010160006101000a81548160ff021916908315150217905550505081600a60008873ffffffffffffffffffffffffffffffffffffffff1673ffffffffffffffffffffffffffffffffffffffff1681526020019081526020016000206000828254612202919061526a565b925050819055506001600e60008873ffffffffffffffffffffffffffffffffffffffff1673ffffffffffffffffffffffffffffffffffffffff168152602001908152602001600020600082825461225991906150e8565b9250508190555081965050505050505090565b6000339050600042905060006014600085815260200190815260200160002090508273ffffffffffffffffffffffffffffffffffffffff168160010160009054906101000a900473ffffffffffffffffffffffffffffffffffffffff1673ffffffffffffffffffffffffffffffffffffffff161461231f576040517f08c379a000000000000000000000000000000000000000000000000000000000815260040161231690615828565b60405180910390fd5b8060050160009054906101000a900460ff1615612371576040517f08c379a0000000000000000000000000000000000000000000000000000000008152600401612368906158ba565b60405180910390fd5b818160040154106123b7576040517f08c379a00000000000000000000000000000000000000000000000000000000081526004016123ae9061594c565b60405180910390fd5b600160009054906101000a900473ffffffffffffffffffffffffffffffffffffffff1673ffffffffffffffffffffffffffffffffffffffff166323b872dd3085876040518463ffffffff1660e01b815260040161241693929190615394565b600060405180830381600087803b15801561243057600080fd5b505af1925050508015612441575060015b6124b55761244d6153d8565b806308c379a0036124a9575061246161546b565b8061246c57506124ab565b806040517f08c379a00000000000000000000000000000000000000000000000000000000081526004016124a09190615569565b60405180910390fd5b505b3d6000803e3d6000fd5b601460008581526020019081526020016000206000808201600090556001820160006101000a81549073ffffffffffffffffffffffffffffffffffffffff02191690556002820160009055600382016000905560048201600090556005820160006101000a81549060ff021916905550506000601560008573ffffffffffffffffffffffffffffffffffffffff1673ffffffffffffffffffffffffffffffffffffffff168152602001908152602001600020905060005b818054905081101561262a578582828154811061258c5761258b615199565b5b9060005260206000200154036126175781600183805490506125ae91906150e8565b815481106125bf576125be615199565b5b90600052602060002001548282815481106125dd576125dc615199565b5b9060005260206000200181905550818054806125fc576125fb61596c565b5b6001900381819060005260206000200160009055905561262a565b80806126229061530a565b91505061256c565b50847f04d5de10c5fe7611da7ca95c1692517b7d1a8b45d22053338fe087c1f95978b78560405161265b9190614d3c565b60405180910390a25050505050565b600360009054906101000a900473ffffffffffffffffffffffffffffffffffffffff1681565b600080339050601160008273ffffffffffffffffffffffffffffffffffffffff1673ffffffffffffffffffffffffffffffffffffffff1681526020019081526020016000205491505090565b60008054906101000a900473ffffffffffffffffffffffffffffffffffffffff1673ffffffffffffffffffffffffffffffffffffffff163373ffffffffffffffffffffffffffffffffffffffff1614612761576040517f82b4290000000000000000000000000000000000000000000000000000000000815260040160405180910390fd5b80600460006101000a81548173ffffffffffffffffffffffffffffffffffffffff021916908373ffffffffffffffffffffffffffffffffffffffff16021790555050565b600e6020528060005260406000206000915090505481565b60245481565b601b5481565b600460009054906101000a900473ffffffffffffffffffffffffffffffffffffffff1681565b60136020528060005260406000206000915090505481565b60008054906101000a900473ffffffffffffffffffffffffffffffffffffffff1681565b60215481565b60008054906101000a900473ffffffffffffffffffffffffffffffffffffffff1673ffffffffffffffffffffffffffffffffffffffff163373ffffffffffffffffffffffffffffffffffffffff16146128b6576040517f82b4290000000000000000000000000000000000000000000000000000000000815260040160405180910390fd5b80600360006101000a81548173ffffffffffffffffffffffffffffffffffffffff021916908373ffffffffffffffffffffffffffffffffffffffff16021790555050565b60056020528060005260406000206000915090505481565b60106020528060005260406000206000915090505481565b601c5481565b60003390506000600a60008373ffffffffffffffffffffffffffffffffffffffff1673ffffffffffffffffffffffffffffffffffffffff1681526020019081526020016000205490506000600b60008473ffffffffffffffffffffffffffffffffffffffff1673ffffffffffffffffffffffffffffffffffffffff168152602001908152602001600020549050600081836129cb91906150e8565b90506000600960008673ffffffffffffffffffffffffffffffffffffffff1673ffffffffffffffffffffffffffffffffffffffff16815260200190815260200160002090506000805b8280549050811015612ad957828181548110612a3357612a32615199565b5b906000526020600020906002020160010160009054906101000a900460ff16612ac657828181548110612a6957612a68615199565b5b90600052602060002090600202016000015482612a86919061526a565b91506001838281548110612a9d57612a9c615199565b5b906000526020600020906002020160010160006101000a81548160ff0219169083151502179055505b8080612ad19061530a565b915050612a14565b50828114612b1c576040517f08c379a0000000000000000000000000000000000000000000000000000000008152600401612b13906159e7565b60405180910390fd5b80471015612b5f576040517f08c379a0000000000000000000000000000000000000000000000000000000008152600401612b5690615a53565b60405180910390fd5b8573ffffffffffffffffffffffffffffffffffffffff166108fc829081150290604051600060405180830381858888f19350505050158015612ba5573d6000803e3d6000fd5b50505050505050565b600d6020528160005260406000208181548110612bca57600080fd5b9060005260206000209060040201600091509150508060000154908060010154908060020154908060030154905084565b600160009054906101000a900473ffffffffffffffffffffffffffffffffffffffff1681565b60116020528060005260406000206000915090505481565b60235481565b60185481565b60195481565b60126020528160005260406000208181548110612c6757600080fd5b9060005260206000209060040201600091509150508060000154908060010154908060020154908060030160009054906101000a900460ff16905084565b600f6020528060005260406000206000915090505481565b60003390506000600360009054906101000a900473ffffffffffffffffffffffffffffffffffffffff1673ffffffffffffffffffffffffffffffffffffffff16634eb7d190836040518263ffffffff1660e01b8152600401612d1f9190614d3c565b600060405180830381865afa158015612d3c573d6000803e3d6000fd5b505050506040513d6000823e3d601f19601f82011682018060405250810190612d659190615b4b565b90506000815190506000600860008573ffffffffffffffffffffffffffffffffffffffff1673ffffffffffffffffffffffffffffffffffffffff1681526020019081526020016000205482612dba91906150e8565b905060008111612dff576040517f08c379a0000000000000000000000000000000000000000000000000000000008152600401612df690615be0565b60405180910390fd5b60006014600087815260200190815260200160002090508473ffffffffffffffffffffffffffffffffffffffff168160010160009054906101000a900473ffffffffffffffffffffffffffffffffffffffff1673ffffffffffffffffffffffffffffffffffffffff1614612ea8576040517f08c379a0000000000000000000000000000000000000000000000000000000008152600401612e9f90615c4c565b60405180910390fd5b600042905080826004015411612ef3576040517f08c379a0000000000000000000000000000000000000000000000000000000008152600401612eea90615cde565b60405180910390fd5b602354826004016000828254612f0991906150e8565b925050819055506001600860008873ffffffffffffffffffffffffffffffffffffffff1673ffffffffffffffffffffffffffffffffffffffff1681526020019081526020016000206000828254612f60919061526a565b925050819055508160146000898152602001908152602001600020600082015481600001556001820160009054906101000a900473ffffffffffffffffffffffffffffffffffffffff168160010160006101000a81548173ffffffffffffffffffffffffffffffffffffffff021916908373ffffffffffffffffffffffffffffffffffffffff1602179055506002820154816002015560038201548160030155600482015481600401556005820160009054906101000a900460ff168160050160006101000a81548160ff021916908315150217905550905050867f8ee2087cb07bba967083d109af9bc795250912ab6e8ea1469cde6c49b80045e260235460405161306c91906148f6565b60405180910390a250505050505050565b6130856147f6565b600033905060004290506000601460008681526020019081526020016000209050600060165482600201546130ba919061526a565b90508160050160009054906101000a900460ff161580156130db5750828111155b61311a576040517f08c379a000000000000000000000000000000000000000000000000000000000815260040161311190615d4a565b60405180910390fd5b6131226147f6565b86816000018181525050838160200181815250506000606461314261473a565b61314c9190615654565b9050601b548110156133d35760038081111561316b5761316a615d6a565b5b826060018181525050600c6000898152602001908152602001600020829080600181540180825580915050600190039060005260206000209060040201600090919091909150600082015181600001556020820151816001015560408201518160020155606082015181600301555050600d60008773ffffffffffffffffffffffffffffffffffffffff1673ffffffffffffffffffffffffffffffffffffffff1681526020019081526020016000208290806001815401808255809150506001900390600052602060002090600402016000909190919091506000820151816000015560208201518160010155604082015181600201556060820151816003015550506022548561327c919061526a565b846004018190555060008460050160006101000a81548160ff02191690831515021790555083601460008a8152602001908152602001600020600082015481600001556001820160009054906101000a900473ffffffffffffffffffffffffffffffffffffffff168160010160006101000a81548173ffffffffffffffffffffffffffffffffffffffff021916908373ffffffffffffffffffffffffffffffffffffffff1602179055506002820154816002015560038201548160030155600482015481600401556005820160009054906101000a900460ff168160050160006101000a81548160ff021916908315150217905550905050877fec506780a0336f02b9731f0e8752c1ff5d4099e2935bdfa72839c29be1b482f08360600151600060058111156133af576133ae615d6a565b5b6040516133bd929190615d99565b60405180910390a2819650505050505050613bc6565b600060646133df61473a565b6133e99190615654565b9050601c548110801561343b57506001601160008973ffffffffffffffffffffffffffffffffffffffff1673ffffffffffffffffffffffffffffffffffffffff16815260200190815260200160002054105b15613703576001600581111561345457613453615d6a565b5b8360400181815250506001600381111561347157613470615d6a565b5b836060018181525050600c60008a8152602001908152602001600020839080600181540180825580915050600190039060005260206000209060040201600090919091909150600082015181600001556020820151816001015560408201518160020155606082015181600301555050600d60008873ffffffffffffffffffffffffffffffffffffffff1673ffffffffffffffffffffffffffffffffffffffff16815260200190815260200160002083908060018154018082558091505060019003906000526020600020906004020160009091909190915060008201518160000155602082015181600101556040820151816002015560608201518160030155505060008560050160006101000a81548160ff02191690831515021790555085856002018190555084601460008b8152602001908152602001600020600082015481600001556001820160009054906101000a900473ffffffffffffffffffffffffffffffffffffffff168160010160006101000a81548173ffffffffffffffffffffffffffffffffffffffff021916908373ffffffffffffffffffffffffffffffffffffffff1602179055506002820154816002015560038201548160030155600482015481600401556005820160009054906101000a900460ff168160050160006101000a81548160ff0219169083151502179055509050506001601160008973ffffffffffffffffffffffffffffffffffffffff1673ffffffffffffffffffffffffffffffffffffffff16815260200190815260200160002081905550887fec506780a0336f02b9731f0e8752c1ff5d4099e2935bdfa72839c29be1b482f0846060015185604001516040516136ec929190615d99565b60405180910390a282975050505050505050613bc6565b600080600381111561371857613717615d6a565b5b9050600080600581111561372f5761372e615d6a565b5b90506000620186a061373f61473a565b6137499190615654565b905060008111801561375d5750601d548111155b156137ea576001600381111561377657613775615d6a565b5b92506002600581111561378c5761378b615d6a565b5b91506001600e60008c73ffffffffffffffffffffffffffffffffffffffff1673ffffffffffffffffffffffffffffffffffffffff16815260200190815260200160002060008282546137de919061526a565b92505081905550613977565b601d548111801561380a5750601e54601d54613806919061526a565b8111155b15613897576001600381111561382357613822615d6a565b5b92506004600581111561383957613838615d6a565b5b91506001601060008c73ffffffffffffffffffffffffffffffffffffffff1673ffffffffffffffffffffffffffffffffffffffff168152602001908152602001600020600082825461388b919061526a565b92505081905550613976565b601e54601d546138a7919061526a565b811180156138d15750601f54601e54601d546138c3919061526a565b6138cd919061526a565b8111155b1561395e57600160038111156138ea576138e9615d6a565b5b925060036005811115613900576138ff615d6a565b5b91506001600f60008c73ffffffffffffffffffffffffffffffffffffffff1673ffffffffffffffffffffffffffffffffffffffff1681526020019081526020016000206000828254613952919061526a565b92505081905550613975565b6002600381111561397257613971615d6a565b5b92505b5b5b8286606001818152505081866040018181525050600c60008d8152602001908152602001600020869080600181540180825580915050600190039060005260206000209060040201600090919091909150600082015181600001556020820151816001015560408201518160020155606082015181600301555050600d60008b73ffffffffffffffffffffffffffffffffffffffff1673ffffffffffffffffffffffffffffffffffffffff16815260200190815260200160002086908060018154018082558091505060019003906000526020600020906004020160009091909190915060008201518160000155602082015181600101556040820151816002015560608201518160030155505060008860050160006101000a81548160ff02191690831515021790555088886002018190555087601460008e8152602001908152602001600020600082015481600001556001820160009054906101000a900473ffffffffffffffffffffffffffffffffffffffff168160010160006101000a81548173ffffffffffffffffffffffffffffffffffffffff021916908373ffffffffffffffffffffffffffffffffffffffff1602179055506002820154816002015560038201548160030155600482015481600401556005820160009054906101000a900460ff168160050160006101000a81548160ff0219169083151502179055509050508b7fec506780a0336f02b9731f0e8752c1ff5d4099e2935bdfa72839c29be1b482f08484604051613bb0929190615d99565b60405180910390a2859a50505050505050505050505b919050565b60146020528060005260406000206000915090508060000154908060010160009054906101000a900473ffffffffffffffffffffffffffffffffffffffff16908060020154908060030154908060040154908060050160009054906101000a900460ff16905086565b600b6020528060005260406000206000915090505481565b606060003390506000601560008373ffffffffffffffffffffffffffffffffffffffff1673ffffffffffffffffffffffffffffffffffffffff16815260200190815260200160002090506000818054905067ffffffffffffffff811115613cb657613cb561540b565b5b604051908082528060200260200182016040528015613cef57816020015b613cdc61481e565b815260200190600190039081613cd45790505b50905060005b8280549050811015613e4a576000838281548110613d1657613d15615199565b5b906000526020600020015490506000601460008381526020019081526020016000206040518060c0016040529081600082015481526020016001820160009054906101000a900473ffffffffffffffffffffffffffffffffffffffff1673ffffffffffffffffffffffffffffffffffffffff1673ffffffffffffffffffffffffffffffffffffffff1681526020016002820154815260200160038201548152602001600482015481526020016005820160009054906101000a900460ff1615151515815250509050600060405180608001604052808360000151815260200183606001518152602001836080015181526020018360a001511515815250905080858581518110613e2957613e28615199565b5b60200260200101819052505050508080613e429061530a565b915050613cf5565b5080935050505090565b613e5c614848565b6000339050613e69614848565b600e60008373ffffffffffffffffffffffffffffffffffffffff1673ffffffffffffffffffffffffffffffffffffffff16815260200190815260200160002054816000018181525050600f60008373ffffffffffffffffffffffffffffffffffffffff1673ffffffffffffffffffffffffffffffffffffffff16815260200190815260200160002054816020018181525050601060008373ffffffffffffffffffffffffffffffffffffffff1673ffffffffffffffffffffffffffffffffffffffff16815260200190815260200160002054816040018181525050809250505090565b601d5481565b60008054906101000a900473ffffffffffffffffffffffffffffffffffffffff1673ffffffffffffffffffffffffffffffffffffffff163373ffffffffffffffffffffffffffffffffffffffff1614613fd7576040517f82b4290000000000000000000000000000000000000000000000000000000000815260040160405180910390fd5b600073ffffffffffffffffffffffffffffffffffffffff168173ffffffffffffffffffffffffffffffffffffffff160361403d576040517f49e27cff00000000000000000000000000000000000000000000000000000000815260040160405180910390fd5b806000806101000a81548173ffffffffffffffffffffffffffffffffffffffff021916908373ffffffffffffffffffffffffffffffffffffffff1602179055508073ffffffffffffffffffffffffffffffffffffffff163373ffffffffffffffffffffffffffffffffffffffff167f8be0079c531659141344cd1fd0a4f28419497f9722a3daafe3b4186f6b6457e060405160405180910390a350565b60086020528060005260406000206000915090505481565b60076020528060005260406000206000915090505481565b60225481565b6000803390506000600360009054906101000a900473ffffffffffffffffffffffffffffffffffffffff1673ffffffffffffffffffffffffffffffffffffffff16634eb7d190836040518263ffffffff1660e01b81526004016141739190614d3c565b600060405180830381865afa158015614190573d6000803e3d6000fd5b505050506040513d6000823e3d601f19601f820116820180604052508101906141b99190615b4b565b90506000815190506000600860008573ffffffffffffffffffffffffffffffffffffffff1673ffffffffffffffffffffffffffffffffffffffff168152602001908152602001600020548261420e91906150e8565b90508094505050505090565b6000339050600060146000848152602001908152602001600020905060008160000154036144e357600160009054906101000a900473ffffffffffffffffffffffffffffffffffffffff1673ffffffffffffffffffffffffffffffffffffffff166323b872dd8330866040518463ffffffff1660e01b81526004016142a193929190615394565b600060405180830381600087803b1580156142bb57600080fd5b505af19250505080156142cc575060015b614340576142d86153d8565b806308c379a00361433457506142ec61546b565b806142f75750614336565b806040517f08c379a000000000000000000000000000000000000000000000000000000000815260040161432b9190615569565b60405180910390fd5b505b3d6000803e3d6000fd5b828160000181905550818160010160006101000a81548173ffffffffffffffffffffffffffffffffffffffff021916908373ffffffffffffffffffffffffffffffffffffffff16021790555060008160050160006101000a81548160ff0219169083151502179055508060146000858152602001908152602001600020600082015481600001556001820160009054906101000a900473ffffffffffffffffffffffffffffffffffffffff168160010160006101000a81548173ffffffffffffffffffffffffffffffffffffffff021916908373ffffffffffffffffffffffffffffffffffffffff1602179055506002820154816002015560038201548160030155600482015481600401556005820160009054906101000a900460ff168160050160006101000a81548160ff021916908315150217905550905050601560008373ffffffffffffffffffffffffffffffffffffffff1673ffffffffffffffffffffffffffffffffffffffff1681526020019081526020016000208390806001815401808255809150506001900390600052602060002001600090919091909150555b60004290508160050160009054906101000a900460ff161561453a576040517f08c379a000000000000000000000000000000000000000000000000000000000815260040161453190615e0e565b60405180910390fd5b8082600401541115614581576040517f08c379a000000000000000000000000000000000000000000000000000000000815260040161457890615e7a565b60405180910390fd5b80826002018190555060018260050160006101000a81548160ff021916908315150217905550601654816145b5919061526a565b82600301819055508160146000868152602001908152602001600020600082015481600001556001820160009054906101000a900473ffffffffffffffffffffffffffffffffffffffff168160010160006101000a81548173ffffffffffffffffffffffffffffffffffffffff021916908373ffffffffffffffffffffffffffffffffffffffff1602179055506002820154816002015560038201548160030155600482015481600401556005820160009054906101000a900460ff168160050160006101000a81548160ff0219169083151502179055509050507f61c069f0d3725169cbfddaf1a5389632f551f2a7aeb84e785c4b94043e53ec238483600301546040516146c5929190615d99565b60405180910390a150505050565b6000806201518083856146e691906150e8565b6146f09190615239565b9050600062015180848661470491906150e8565b61470e9190615654565b1461472357600181614720919061526a565b90505b600a811061473057600a90505b8091505092915050565b600060014361474991906150e8565b40424360405160200161475e93929190615ee6565b6040516020818303038152906040528051906020012060001c905090565b6040518060a0016040528060008152602001600081526020016000815260200160008152602001600081525090565b60405180608001604052806000815260200160008152602001600081526020016000151581525090565b60405180606001604052806000815260200160008152602001600081525090565b6040518060800160405280600081526020016000815260200160008152602001600081525090565b60405180608001604052806000815260200160008152602001600081526020016000151581525090565b6040518060800160405280600081526020016000815260200160008152602001600081525090565b6000604051905090565b600080fd5b600080fd5b6000819050919050565b61489781614884565b81146148a257600080fd5b50565b6000813590506148b48161488e565b92915050565b6000602082840312156148d0576148cf61487a565b5b60006148de848285016148a5565b91505092915050565b6148f081614884565b82525050565b600060208201905061490b60008301846148e7565b92915050565b61491a81614884565b82525050565b60a0820160008201516149366000850182614911565b5060208201516149496020850182614911565b50604082015161495c6040850182614911565b50606082015161496f6060850182614911565b5060808201516149826080850182614911565b50505050565b600060a08201905061499d6000830184614920565b92915050565b600073ffffffffffffffffffffffffffffffffffffffff82169050919050565b60006149ce826149a3565b9050919050565b6149de816149c3565b81146149e957600080fd5b50565b6000813590506149fb816149d5565b92915050565b60008060408385031215614a1857614a1761487a565b5b6000614a26858286016149ec565b9250506020614a37858286016148a5565b9150509250929050565b600060208284031215614a5757614a5661487a565b5b6000614a65848285016149ec565b91505092915050565b6000819050919050565b6000614a93614a8e614a89846149a3565b614a6e565b6149a3565b9050919050565b6000614aa582614a78565b9050919050565b6000614ab782614a9a565b9050919050565b614ac781614aac565b82525050565b6000602082019050614ae26000830184614abe565b92915050565b60008115159050919050565b614afd81614ae8565b82525050565b6000604082019050614b1860008301856148e7565b614b256020830184614af4565b9392505050565b600081519050919050565b600082825260208201905092915050565b6000819050602082019050919050565b6000614b648383614911565b60208301905092915050565b6000602082019050919050565b6000614b8882614b2c565b614b928185614b37565b9350614b9d83614b48565b8060005b83811015614bce578151614bb58882614b58565b9750614bc083614b70565b925050600181019050614ba1565b5085935050505092915050565b60006020820190508181036000830152614bf58184614b7d565b905092915050565b60008060408385031215614c1457614c1361487a565b5b6000614c22858286016148a5565b9250506020614c33858286016148a5565b9150509250929050565b6000608082019050614c5260008301876148e7565b614c5f60208301866148e7565b614c6c60408301856148e7565b614c7960608301846148e7565b95945050505050565b606082016000820151614c986000850182614911565b506020820151614cab6020850182614911565b506040820151614cbe6040850182614911565b50505050565b6000606082019050614cd96000830184614c82565b92915050565b6000614cea82614a78565b9050919050565b6000614cfc82614cdf565b9050919050565b614d0c81614cf1565b82525050565b6000602082019050614d276000830184614d03565b92915050565b614d36816149c3565b82525050565b6000602082019050614d516000830184614d2d565b92915050565b6000614d62826149a3565b9050919050565b614d7281614d57565b8114614d7d57600080fd5b50565b600081359050614d8f81614d69565b92915050565b600060208284031215614dab57614daa61487a565b5b6000614db984828501614d80565b91505092915050565b6000614dcd82614a9a565b9050919050565b614ddd81614dc2565b82525050565b6000602082019050614df86000830184614dd4565b92915050565b6000608082019050614e1360008301876148e7565b614e2060208301866148e7565b614e2d60408301856148e7565b614e3a6060830184614af4565b95945050505050565b608082016000820151614e596000850182614911565b506020820151614e6c6020850182614911565b506040820151614e7f6040850182614911565b506060820151614e926060850182614911565b50505050565b6000608082019050614ead6000830184614e43565b92915050565b600060c082019050614ec860008301896148e7565b614ed56020830188614d2d565b614ee260408301876148e7565b614eef60608301866148e7565b614efc60808301856148e7565b614f0960a0830184614af4565b979650505050505050565b600081519050919050565b600082825260208201905092915050565b6000819050602082019050919050565b614f4981614ae8565b82525050565b608082016000820151614f656000850182614911565b506020820151614f786020850182614911565b506040820151614f8b6040850182614911565b506060820151614f9e6060850182614f40565b50505050565b6000614fb08383614f4f565b60808301905092915050565b6000602082019050919050565b6000614fd482614f14565b614fde8185614f1f565b9350614fe983614f30565b8060005b8381101561501a5781516150018882614fa4565b975061500c83614fbc565b925050600181019050614fed565b5085935050505092915050565b600060208201905081810360008301526150418184614fc9565b905092915050565b60808201600082015161505f6000850182614911565b5060208201516150726020850182614911565b5060408201516150856040850182614911565b5060608201516150986060850182614911565b50505050565b60006080820190506150b36000830184615049565b92915050565b7f4e487b7100000000000000000000000000000000000000000000000000000000600052601160045260246000fd5b60006150f382614884565b91506150fe83614884565b9250828203905081811115615116576151156150b9565b5b92915050565b600082825260208201905092915050565b7f596f75722062616c616e636520697320696e73756666696369656e7400000000600082015250565b6000615163601c8361511c565b915061516e8261512d565b602082019050919050565b6000602082019050818103600083015261519281615156565b9050919050565b7f4e487b7100000000000000000000000000000000000000000000000000000000600052603260045260246000fd5b60006151d382614884565b91506151de83614884565b92508282026151ec81614884565b91508282048414831517615203576152026150b9565b5b5092915050565b7f4e487b7100000000000000000000000000000000000000000000000000000000600052601260045260246000fd5b600061524482614884565b915061524f83614884565b92508261525f5761525e61520a565b5b828204905092915050565b600061527582614884565b915061528083614884565b9250828201905080821115615298576152976150b9565b5b92915050565b7f436f6d7075746174696f6e206572726f72730000000000000000000000000000600082015250565b60006152d460128361511c565b91506152df8261529e565b602082019050919050565b60006020820190508181036000830152615303816152c7565b9050919050565b600061531582614884565b91507fffffffffffffffffffffffffffffffffffffffffffffffffffffffffffffffff8203615347576153466150b9565b5b600182019050919050565b6000815190506153618161488e565b92915050565b60006020828403121561537d5761537c61487a565b5b600061538b84828501615352565b91505092915050565b60006060820190506153a96000830186614d2d565b6153b66020830185614d2d565b6153c360408301846148e7565b949350505050565b60008160e01c9050919050565b600060033d11156153f75760046000803e6153f46000516153cb565b90505b90565b6000601f19601f8301169050919050565b7f4e487b7100000000000000000000000000000000000000000000000000000000600052604160045260246000fd5b615443826153fa565b810181811067ffffffffffffffff821117156154625761546161540b565b5b80604052505050565b600060443d106154f85761547d614870565b60043d036004823e80513d602482011167ffffffffffffffff821117156154a55750506154f8565b808201805167ffffffffffffffff8111156154c357505050506154f8565b80602083010160043d0385018111156154e05750505050506154f8565b6154ef8260200185018661543a565b82955050505050505b90565b600081519050919050565b60005b83811015615524578082015181840152602081019050615509565b60008484015250505050565b600061553b826154fb565b615545818561511c565b9350615555818560208601615506565b61555e816153fa565b840191505092915050565b600060208201905081810360008301526155838184615530565b905092915050565b60006060820190506155a060008301866148e7565b6155ad60208301856148e7565b6155ba60408301846148e7565b949350505050565b7f596f757220626c696e6420626f78207175616e7469747920697320696e73756660008201527f66696369656e7400000000000000000000000000000000000000000000000000602082015250565b600061561e60278361511c565b9150615629826155c2565b604082019050919050565b6000602082019050818103600083015261564d81615611565b9050919050565b600061565f82614884565b915061566a83614884565b92508261567a5761567961520a565b5b828206905092915050565b600080fd5b6000615694614870565b90506156a0828261543a565b919050565b600067ffffffffffffffff8211156156c0576156bf61540b565b5b602082029050602081019050919050565b600080fd5b60006156e96156e4846156a5565b61568a565b9050808382526020820190506020840283018581111561570c5761570b6156d1565b5b835b8181101561573557806157218882615352565b84526020840193505060208101905061570e565b5050509392505050565b600082601f83011261575457615753615685565b5b81516157648482602086016156d6565b91505092915050565b6000602082840312156157835761578261487a565b5b600082015167ffffffffffffffff8111156157a1576157a061487f565b5b6157ad8482850161573f565b91505092915050565b7f54686973206973206e6f7420796f757220647261676f6e20616e642063616e6e60008201527f6f742062652072656465656d6564000000000000000000000000000000000000602082015250565b6000615812602e8361511c565b915061581d826157b6565b604082019050919050565b6000602082019050818103600083015261584181615805565b9050919050565b7f596f757220647261676f6e206973206f6e20616e20616476656e74757265206160008201527f6e642063616e6e6f742062652072656465656d65640000000000000000000000602082015250565b60006158a460358361511c565b91506158af82615848565b604082019050919050565b600060208201905081810360008301526158d381615897565b9050919050565b7f596f757220647261676f6e20697320736c656570696e6720616e642063616e6e60008201527f6f742062652072656465656d6564000000000000000000000000000000000000602082015250565b6000615936602e8361511c565b9150615941826158da565b604082019050919050565b6000602082019050818103600083015261596581615929565b9050919050565b7f4e487b7100000000000000000000000000000000000000000000000000000000600052603160045260246000fd5b7f4572726f7220696e2063616c63756c6174696e67204554482062616c616e6365600082015250565b60006159d160208361511c565b91506159dc8261599b565b602082019050919050565b60006020820190508181036000830152615a00816159c4565b9050919050565b7f496e73756666696369656e742062616c616e6365000000000000000000000000600082015250565b6000615a3d60148361511c565b9150615a4882615a07565b602082019050919050565b60006020820190508181036000830152615a6c81615a30565b9050919050565b600067ffffffffffffffff821115615a8e57615a8d61540b565b5b602082029050602081019050919050565b600081519050615aae816149d5565b92915050565b6000615ac7615ac284615a73565b61568a565b90508083825260208201905060208402830185811115615aea57615ae96156d1565b5b835b81811015615b135780615aff8882615a9f565b845260208401935050602081019050615aec565b5050509392505050565b600082601f830112615b3257615b31615685565b5b8151615b42848260208601615ab4565b91505092915050565b600060208284031215615b6157615b6061487a565b5b600082015167ffffffffffffffff811115615b7f57615b7e61487f565b5b615b8b84828501615b1d565b91505092915050565b7f496e73756666696369656e74206d696e74207175616e74697479000000000000600082015250565b6000615bca601a8361511c565b9150615bd582615b94565b602082019050919050565b60006020820190508181036000830152615bf981615bbd565b9050919050565b7f5468697320647261676f6e206973206e6f7420796f7572730000000000000000600082015250565b6000615c3660188361511c565b9150615c4182615c00565b602082019050919050565b60006020820190508181036000830152615c6581615c29565b9050919050565b7f5468697320647261676f6e20646f6573206e6f7420726571756972652074686560008201527f20757365206f66206120736c6565702063617264000000000000000000000000602082015250565b6000615cc860348361511c565b9150615cd382615c6c565b604082019050919050565b60006020820190508181036000830152615cf781615cbb565b9050919050565b7f647261676f6e20646964206e6f742066696e697368206661726d696e67000000600082015250565b6000615d34601d8361511c565b9150615d3f82615cfe565b602082019050919050565b60006020820190508181036000830152615d6381615d27565b9050919050565b7f4e487b7100000000000000000000000000000000000000000000000000000000600052602160045260246000fd5b6000604082019050615dae60008301856148e7565b615dbb60208301846148e7565b9392505050565b7f447261676f6e206973206661726d696e67000000000000000000000000000000600082015250565b6000615df860118361511c565b9150615e0382615dc2565b602082019050919050565b60006020820190508181036000830152615e2781615deb565b9050919050565b7f447261676f6e206973207374696c6c20736c656570696e670000000000000000600082015250565b6000615e6460188361511c565b9150615e6f82615e2e565b602082019050919050565b60006020820190508181036000830152615e9381615e57565b9050919050565b6000819050919050565b6000819050919050565b615ebf615eba82615e9a565b615ea4565b82525050565b6000819050919050565b615ee0615edb82614884565b615ec5565b82525050565b6000615ef28286615eae565b602082019150615f028285615ecf565b602082019150615f128284615ecf565b60208201915081905094935050505056fea2646970667358221220518c816735968f3326bfba6fedf2b00936db4118affbdf2b36535ab6fd9ead6864736f6c63430008140033",
  "linkReferences": {},
  "deployedLinkReferences": {}
}