{
  "_format": "hh-sol-artifact-1",
  "contractName": "GreatLFarming",
  "sourceName": "contracts/GreatLFarming.sol",
  "abi": [
    {
      "inputs": [
        {
          "internalType": "address",
          "name": "_farmingDataStrongAddr",
          "type": "address"
        },
        {
          "internalType": "address",
          "name": "_owner",
          "type": "address"
        }
      ],
      "stateMutability": "nonpayable",
      "type": "constructor"
    },
    {
      "inputs": [],
      "name": "InvalidOwner",
      "type": "error"
    },
    {
      "inputs": [],
      "name": "Unauthorized",
      "type": "error"
    },
    {
      "anonymous": false,
      "inputs": [
        {
          "indexed": true,
          "internalType": "address",
          "name": "sender",
          "type": "address"
        },
        {
          "indexed": false,
          "internalType": "uint256",
          "name": "weiAmount",
          "type": "uint256"
        }
      ],
      "name": "ClaimEthBlindBoxResult",
      "type": "event"
    },
    {
      "anonymous": false,
      "inputs": [
        {
          "indexed": true,
          "internalType": "address",
          "name": "sender",
          "type": "address"
        },
        {
          "indexed": false,
          "internalType": "uint256",
          "name": "greatLToken",
          "type": "uint256"
        },
        {
          "indexed": false,
          "internalType": "uint256",
          "name": "babyLToken",
          "type": "uint256"
        }
      ],
      "name": "ClaimLongTokenBlindBoxResult",
      "type": "event"
    },
    {
      "anonymous": false,
      "inputs": [
        {
          "indexed": false,
          "internalType": "uint256",
          "name": "dragonId",
          "type": "uint256"
        },
        {
          "indexed": false,
          "internalType": "uint256",
          "name": "expectedEndTime",
          "type": "uint256"
        }
      ],
      "name": "DragonFramingStart",
      "type": "event"
    },
    {
      "anonymous": false,
      "inputs": [
        {
          "indexed": true,
          "internalType": "address",
          "name": "sender",
          "type": "address"
        },
        {
          "indexed": false,
          "internalType": "uint256",
          "name": "amount",
          "type": "uint256"
        }
      ],
      "name": "EthTransferResult",
      "type": "event"
    },
    {
      "anonymous": false,
      "inputs": [
        {
          "indexed": true,
          "internalType": "address",
          "name": "sender",
          "type": "address"
        },
        {
          "indexed": false,
          "internalType": "uint256",
          "name": "block",
          "type": "uint256"
        },
        {
          "indexed": false,
          "internalType": "uint256",
          "name": "amount",
          "type": "uint256"
        },
        {
          "indexed": false,
          "internalType": "uint256",
          "name": "taxAmount",
          "type": "uint256"
        }
      ],
      "name": "ExtractTokenResult",
      "type": "event"
    },
    {
      "anonymous": false,
      "inputs": [
        {
          "indexed": true,
          "internalType": "uint256",
          "name": "dragonId",
          "type": "uint256"
        },
        {
          "indexed": false,
          "internalType": "uint256",
          "name": "farmingResult",
          "type": "uint256"
        },
        {
          "indexed": false,
          "internalType": "uint256",
          "name": "farmingReward",
          "type": "uint256"
        }
      ],
      "name": "FarmingResultEvent",
      "type": "event"
    },
    {
      "anonymous": false,
      "inputs": [
        {
          "indexed": true,
          "internalType": "address",
          "name": "user",
          "type": "address"
        },
        {
          "indexed": true,
          "internalType": "address",
          "name": "newOwner",
          "type": "address"
        }
      ],
      "name": "OwnershipTransferred",
      "type": "event"
    },
    {
      "anonymous": false,
      "inputs": [
        {
          "indexed": true,
          "internalType": "uint256",
          "name": "_dragonId",
          "type": "uint256"
        },
        {
          "indexed": false,
          "internalType": "address",
          "name": "user",
          "type": "address"
        }
      ],
      "name": "RedeemDragonResult",
      "type": "event"
    },
    {
      "anonymous": false,
      "inputs": [
        {
          "indexed": true,
          "internalType": "uint256",
          "name": "_dragonId",
          "type": "uint256"
        },
        {
          "indexed": false,
          "internalType": "uint256",
          "name": "reduceTime",
          "type": "uint256"
        }
      ],
      "name": "ReduceSleepingTimeResult",
      "type": "event"
    },
    {
      "inputs": [],
      "name": "bigDragonSleepTime",
      "outputs": [
        {
          "internalType": "uint256",
          "name": "",
          "type": "uint256"
        }
      ],
      "stateMutability": "view",
      "type": "function"
    },
    {
      "inputs": [],
      "name": "claimEthBlindBox",
      "outputs": [],
      "stateMutability": "nonpayable",
      "type": "function"
    },
    {
      "inputs": [],
      "name": "claimLongTokenBlindBox",
      "outputs": [],
      "stateMutability": "nonpayable",
      "type": "function"
    },
    {
      "inputs": [
        {
          "internalType": "uint256",
          "name": "",
          "type": "uint256"
        },
        {
          "internalType": "uint256",
          "name": "",
          "type": "uint256"
        }
      ],
      "name": "dragonFarmings",
      "outputs": [
        {
          "internalType": "uint256",
          "name": "dragonId",
          "type": "uint256"
        },
        {
          "internalType": "uint256",
          "name": "farmingEndTime",
          "type": "uint256"
        },
        {
          "internalType": "uint256",
          "name": "farmingReward",
          "type": "uint256"
        },
        {
          "internalType": "uint256",
          "name": "farmingResult",
          "type": "uint256"
        }
      ],
      "stateMutability": "view",
      "type": "function"
    },
    {
      "inputs": [
        {
          "internalType": "uint256",
          "name": "_dragonId",
          "type": "uint256"
        }
      ],
      "name": "dragonFraming",
      "outputs": [],
      "stateMutability": "nonpayable",
      "type": "function"
    },
    {
      "inputs": [
        {
          "internalType": "uint256",
          "name": "",
          "type": "uint256"
        }
      ],
      "name": "dragons",
      "outputs": [
        {
          "internalType": "uint256",
          "name": "dragonId",
          "type": "uint256"
        },
        {
          "internalType": "address",
          "name": "dragonOwner",
          "type": "address"
        },
        {
          "internalType": "uint256",
          "name": "lastFarmingTime",
          "type": "uint256"
        },
        {
          "internalType": "uint256",
          "name": "farmingEndTime",
          "type": "uint256"
        },
        {
          "internalType": "uint256",
          "name": "sleepEndTime",
          "type": "uint256"
        },
        {
          "internalType": "bool",
          "name": "farmingStatus",
          "type": "bool"
        }
      ],
      "stateMutability": "view",
      "type": "function"
    },
    {
      "inputs": [],
      "name": "encounterEvilSpiritsProbability",
      "outputs": [
        {
          "internalType": "uint256",
          "name": "",
          "type": "uint256"
        }
      ],
      "stateMutability": "view",
      "type": "function"
    },
    {
      "inputs": [],
      "name": "extractFarmingEthAmount",
      "outputs": [],
      "stateMutability": "nonpayable",
      "type": "function"
    },
    {
      "inputs": [
        {
          "internalType": "uint256",
          "name": "_amount",
          "type": "uint256"
        }
      ],
      "name": "extractFarmingTokenAmount",
      "outputs": [],
      "stateMutability": "nonpayable",
      "type": "function"
    },
    {
      "inputs": [],
      "name": "fDStrongInstance",
      "outputs": [
        {
          "internalType": "contract FarmingDataStrong",
          "name": "",
          "type": "address"
        }
      ],
      "stateMutability": "view",
      "type": "function"
    },
    {
      "inputs": [
        {
          "internalType": "uint256",
          "name": "_dragonId",
          "type": "uint256"
        }
      ],
      "name": "getDragonFarmingResult",
      "outputs": [],
      "stateMutability": "nonpayable",
      "type": "function"
    },
    {
      "inputs": [],
      "name": "getDragonFramingList",
      "outputs": [
        {
          "components": [
            {
              "internalType": "uint256",
              "name": "dragonId",
              "type": "uint256"
            },
            {
              "internalType": "uint256",
              "name": "farmingEndTime",
              "type": "uint256"
            },
            {
              "internalType": "uint256",
              "name": "sleepEndTime",
              "type": "uint256"
            },
            {
              "internalType": "bool",
              "name": "farmingStatus",
              "type": "bool"
            }
          ],
          "internalType": "struct IFarming.DragonInfo[]",
          "name": "",
          "type": "tuple[]"
        }
      ],
      "stateMutability": "view",
      "type": "function"
    },
    {
      "inputs": [],
      "name": "getFarmingEthAmount",
      "outputs": [
        {
          "components": [
            {
              "internalType": "uint256",
              "name": "ethAmount",
              "type": "uint256"
            },
            {
              "internalType": "uint256",
              "name": "ethExtractAmount",
              "type": "uint256"
            },
            {
              "internalType": "uint256",
              "name": "ethToBeExtractedAmount",
              "type": "uint256"
            }
          ],
          "internalType": "struct IFarming.FarmingEthStatistics",
          "name": "",
          "type": "tuple"
        }
      ],
      "stateMutability": "view",
      "type": "function"
    },
    {
      "inputs": [],
      "name": "getFarmingTokenAmount",
      "outputs": [
        {
          "components": [
            {
              "internalType": "uint256",
              "name": "farmingTokenAmount",
              "type": "uint256"
            },
            {
              "internalType": "uint256",
              "name": "extractAmount",
              "type": "uint256"
            },
            {
              "internalType": "uint256",
              "name": "toBeExtractedAmount",
              "type": "uint256"
            },
            {
              "internalType": "uint256",
              "name": "toBeExtractedUnlockingAmount",
              "type": "uint256"
            },
            {
              "internalType": "uint256",
              "name": "taxationAmount",
              "type": "uint256"
            }
          ],
          "internalType": "struct IFarming.FarmingTokenStatistics",
          "name": "",
          "type": "tuple"
        }
      ],
      "stateMutability": "view",
      "type": "function"
    },
    {
      "inputs": [],
      "name": "getTalismanNum",
      "outputs": [
        {
          "internalType": "uint256",
          "name": "",
          "type": "uint256"
        }
      ],
      "stateMutability": "view",
      "type": "function"
    },
    {
      "inputs": [],
      "name": "getTimeReductionCardNum",
      "outputs": [
        {
          "internalType": "uint256",
          "name": "",
          "type": "uint256"
        }
      ],
      "stateMutability": "view",
      "type": "function"
    },
    {
      "inputs": [],
      "name": "getUserDragons",
      "outputs": [
        {
          "internalType": "uint256[]",
          "name": "",
          "type": "uint256[]"
        }
      ],
      "stateMutability": "view",
      "type": "function"
    },
    {
      "inputs": [],
      "name": "getUserUnopenedBlindBox",
      "outputs": [
        {
          "components": [
            {
              "internalType": "uint256",
              "name": "ethBlindBox",
              "type": "uint256"
            },
            {
              "internalType": "uint256",
              "name": "longTokenBlindBox",
              "type": "uint256"
            },
            {
              "internalType": "uint256",
              "name": "equipBlindBox",
              "type": "uint256"
            },
            {
              "internalType": "uint256",
              "name": "aUBlindBox",
              "type": "uint256"
            }
          ],
          "internalType": "struct IFarming.UnopenedBlindBox",
          "name": "",
          "type": "tuple"
        }
      ],
      "stateMutability": "view",
      "type": "function"
    },
    {
      "inputs": [],
      "name": "greatLFarmingMaxEth",
      "outputs": [
        {
          "internalType": "uint256",
          "name": "",
          "type": "uint256"
        }
      ],
      "stateMutability": "view",
      "type": "function"
    },
    {
      "inputs": [],
      "name": "greatLFarmingMaxToken",
      "outputs": [
        {
          "internalType": "uint256",
          "name": "",
          "type": "uint256"
        }
      ],
      "stateMutability": "view",
      "type": "function"
    },
    {
      "inputs": [],
      "name": "greatLFarmingMinEth",
      "outputs": [
        {
          "internalType": "uint256",
          "name": "",
          "type": "uint256"
        }
      ],
      "stateMutability": "view",
      "type": "function"
    },
    {
      "inputs": [],
      "name": "greatLFarmingMinToken",
      "outputs": [
        {
          "internalType": "uint256",
          "name": "",
          "type": "uint256"
        }
      ],
      "stateMutability": "view",
      "type": "function"
    },
    {
      "inputs": [],
      "name": "greatLFarmingTime",
      "outputs": [
        {
          "internalType": "uint256",
          "name": "",
          "type": "uint256"
        }
      ],
      "stateMutability": "view",
      "type": "function"
    },
    {
      "inputs": [],
      "name": "greatLGetEquipmentProbability",
      "outputs": [
        {
          "internalType": "uint256",
          "name": "",
          "type": "uint256"
        }
      ],
      "stateMutability": "view",
      "type": "function"
    },
    {
      "inputs": [],
      "name": "greatLGetEthProbability",
      "outputs": [
        {
          "internalType": "uint256",
          "name": "",
          "type": "uint256"
        }
      ],
      "stateMutability": "view",
      "type": "function"
    },
    {
      "inputs": [],
      "name": "greatLGetTalismanProbability",
      "outputs": [
        {
          "internalType": "uint256",
          "name": "",
          "type": "uint256"
        }
      ],
      "stateMutability": "view",
      "type": "function"
    },
    {
      "inputs": [],
      "name": "greatLGetTokenProbability",
      "outputs": [
        {
          "internalType": "uint256",
          "name": "",
          "type": "uint256"
        }
      ],
      "stateMutability": "view",
      "type": "function"
    },
    {
      "inputs": [],
      "name": "owner",
      "outputs": [
        {
          "internalType": "address",
          "name": "",
          "type": "address"
        }
      ],
      "stateMutability": "view",
      "type": "function"
    },
    {
      "inputs": [
        {
          "internalType": "uint256",
          "name": "_dragonId",
          "type": "uint256"
        }
      ],
      "name": "redeemDragon",
      "outputs": [],
      "stateMutability": "nonpayable",
      "type": "function"
    },
    {
      "inputs": [
        {
          "internalType": "uint256",
          "name": "_dragonId",
          "type": "uint256"
        }
      ],
      "name": "reduceSleepingTime",
      "outputs": [],
      "stateMutability": "nonpayable",
      "type": "function"
    },
    {
      "inputs": [],
      "name": "releasePercentage",
      "outputs": [
        {
          "internalType": "uint256",
          "name": "",
          "type": "uint256"
        }
      ],
      "stateMutability": "view",
      "type": "function"
    },
    {
      "inputs": [],
      "name": "revokeOwnership",
      "outputs": [],
      "stateMutability": "nonpayable",
      "type": "function"
    },
    {
      "inputs": [
        {
          "internalType": "address",
          "name": "_farmingDataStrongAddr",
          "type": "address"
        }
      ],
      "name": "setFarmingDataStrongAddr",
      "outputs": [],
      "stateMutability": "nonpayable",
      "type": "function"
    },
    {
      "inputs": [],
      "name": "sleepTimeReductionPerInvite",
      "outputs": [
        {
          "internalType": "uint256",
          "name": "",
          "type": "uint256"
        }
      ],
      "stateMutability": "view",
      "type": "function"
    },
    {
      "inputs": [],
      "name": "taxReductionPerDay",
      "outputs": [
        {
          "internalType": "uint256",
          "name": "",
          "type": "uint256"
        }
      ],
      "stateMutability": "view",
      "type": "function"
    },
    {
      "inputs": [
        {
          "internalType": "address",
          "name": "_owner",
          "type": "address"
        }
      ],
      "name": "transferOwnership",
      "outputs": [],
      "stateMutability": "nonpayable",
      "type": "function"
    },
    {
      "inputs": [
        {
          "internalType": "address",
          "name": "",
          "type": "address"
        }
      ],
      "name": "useTalisman",
      "outputs": [
        {
          "internalType": "uint256",
          "name": "",
          "type": "uint256"
        }
      ],
      "stateMutability": "view",
      "type": "function"
    },
    {
      "inputs": [
        {
          "internalType": "address",
          "name": "",
          "type": "address"
        }
      ],
      "name": "userEquipBlindBox",
      "outputs": [
        {
          "internalType": "uint256",
          "name": "",
          "type": "uint256"
        }
      ],
      "stateMutability": "view",
      "type": "function"
    },
    {
      "inputs": [
        {
          "internalType": "address",
          "name": "",
          "type": "address"
        }
      ],
      "name": "userEthAmount",
      "outputs": [
        {
          "internalType": "uint256",
          "name": "",
          "type": "uint256"
        }
      ],
      "stateMutability": "view",
      "type": "function"
    },
    {
      "inputs": [
        {
          "internalType": "address",
          "name": "",
          "type": "address"
        }
      ],
      "name": "userEthBlindBox",
      "outputs": [
        {
          "internalType": "uint256",
          "name": "",
          "type": "uint256"
        }
      ],
      "stateMutability": "view",
      "type": "function"
    },
    {
      "inputs": [
        {
          "internalType": "address",
          "name": "",
          "type": "address"
        }
      ],
      "name": "userEthExtractAmount",
      "outputs": [
        {
          "internalType": "uint256",
          "name": "",
          "type": "uint256"
        }
      ],
      "stateMutability": "view",
      "type": "function"
    },
    {
      "inputs": [
        {
          "internalType": "address",
          "name": "",
          "type": "address"
        },
        {
          "internalType": "uint256",
          "name": "",
          "type": "uint256"
        }
      ],
      "name": "userEthRewards",
      "outputs": [
        {
          "internalType": "uint256",
          "name": "ethAmount",
          "type": "uint256"
        },
        {
          "internalType": "bool",
          "name": "claimed",
          "type": "bool"
        }
      ],
      "stateMutability": "view",
      "type": "function"
    },
    {
      "inputs": [
        {
          "internalType": "address",
          "name": "",
          "type": "address"
        }
      ],
      "name": "userExtractAmount",
      "outputs": [
        {
          "internalType": "uint256",
          "name": "",
          "type": "uint256"
        }
      ],
      "stateMutability": "view",
      "type": "function"
    },
    {
      "inputs": [
        {
          "internalType": "address",
          "name": "",
          "type": "address"
        }
      ],
      "name": "userFarmingAmount",
      "outputs": [
        {
          "internalType": "uint256",
          "name": "",
          "type": "uint256"
        }
      ],
      "stateMutability": "view",
      "type": "function"
    },
    {
      "inputs": [
        {
          "internalType": "address",
          "name": "",
          "type": "address"
        },
        {
          "internalType": "uint256",
          "name": "",
          "type": "uint256"
        }
      ],
      "name": "userFarmings",
      "outputs": [
        {
          "internalType": "uint256",
          "name": "dragonId",
          "type": "uint256"
        },
        {
          "internalType": "uint256",
          "name": "farmingEndTime",
          "type": "uint256"
        },
        {
          "internalType": "uint256",
          "name": "farmingReward",
          "type": "uint256"
        },
        {
          "internalType": "uint256",
          "name": "farmingResult",
          "type": "uint256"
        }
      ],
      "stateMutability": "view",
      "type": "function"
    },
    {
      "inputs": [
        {
          "internalType": "address",
          "name": "",
          "type": "address"
        },
        {
          "internalType": "uint256",
          "name": "",
          "type": "uint256"
        }
      ],
      "name": "userLFarmingTokens",
      "outputs": [
        {
          "internalType": "uint256",
          "name": "getTime",
          "type": "uint256"
        },
        {
          "internalType": "uint256",
          "name": "farmingTokenReward",
          "type": "uint256"
        },
        {
          "internalType": "uint256",
          "name": "extractAmount",
          "type": "uint256"
        },
        {
          "internalType": "bool",
          "name": "extractFlag",
          "type": "bool"
        }
      ],
      "stateMutability": "view",
      "type": "function"
    },
    {
      "inputs": [
        {
          "internalType": "address",
          "name": "",
          "type": "address"
        }
      ],
      "name": "userSleepCardUsage",
      "outputs": [
        {
          "internalType": "uint256",
          "name": "",
          "type": "uint256"
        }
      ],
      "stateMutability": "view",
      "type": "function"
    },
    {
      "inputs": [
        {
          "internalType": "address",
          "name": "",
          "type": "address"
        }
      ],
      "name": "userTaxationAmount",
      "outputs": [
        {
          "internalType": "uint256",
          "name": "",
          "type": "uint256"
        }
      ],
      "stateMutability": "view",
      "type": "function"
    },
    {
      "inputs": [
        {
          "internalType": "address",
          "name": "",
          "type": "address"
        }
      ],
      "name": "userTokenBlindBox",
      "outputs": [
        {
          "internalType": "uint256",
          "name": "",
          "type": "uint256"
        }
      ],
      "stateMutability": "view",
      "type": "function"
    }
  ],
  "bytecode": "0x608060405261012c601155611388601255614e206013556003601455600a601555600c60165560056017556001601855612710601955613a98601a55600a601b556023601c5562278d00601d556203f480601e553480156200006057600080fd5b5060405162005fdb38038062005fdb83398181016040528101906200008691906200023d565b80600073ffffffffffffffffffffffffffffffffffffffff168173ffffffffffffffffffffffffffffffffffffffff1603620000ee576040517f49e27cff00000000000000000000000000000000000000000000000000000000815260040160405180910390fd5b806000806101000a81548173ffffffffffffffffffffffffffffffffffffffff021916908373ffffffffffffffffffffffffffffffffffffffff1602179055508073ffffffffffffffffffffffffffffffffffffffff16600073ffffffffffffffffffffffffffffffffffffffff167f8be0079c531659141344cd1fd0a4f28419497f9722a3daafe3b4186f6b6457e060405160405180910390a35081600160006101000a81548173ffffffffffffffffffffffffffffffffffffffff021916908373ffffffffffffffffffffffffffffffffffffffff160217905550505062000284565b600080fd5b600073ffffffffffffffffffffffffffffffffffffffff82169050919050565b60006200020582620001d8565b9050919050565b6200021781620001f8565b81146200022357600080fd5b50565b60008151905062000237816200020c565b92915050565b60008060408385031215620002575762000256620001d3565b5b6000620002678582860162000226565b92505060206200027a8582860162000226565b9150509250929050565b615d4780620002946000396000f3fe608060405234801561001057600080fd5b50600436106102bb5760003560e01c8063905a6e7511610182578063d077f791116100e9578063f2fde38b116100a2578063f508ab8b1161007c578063f508ab8b146108b5578063f5f85ea5146108e5578063f6ee6d4014610903578063fee4383e14610921576102bb565b8063f2fde38b1461084b578063f449681e14610867578063f48e3c6114610885576102bb565b8063d077f79114610770578063d2a59d691461078c578063d8fd8f0d146107c1578063e0901932146107df578063e60a3c731461080f578063ed228acf1461082d576102bb565b8063bcec89c31161013b578063bcec89c314610685578063c14f8aad146106b5578063cc64c7e4146106d3578063cd4b72ba146106f1578063cdf6866714610724578063cfb3975414610754576102bb565b8063905a6e75146105ae5780639d8b95d1146105cc578063a48cbb32146105fc578063a4d650e91461062c578063b22d88cb14610648578063b467ce4a14610652576102bb565b80634eb2a765116102265780636c36546c116101df5780636c36546c146104e85780636ea2f4c31461050657806377c0b17e146105245780637ef88a861461054257806383fb54c5146105725780638da5cb5b14610590576102bb565b80634eb2a76514610438578063532143c71461046857806356fbc2ef1461048657806360c50d6c146104a4578063651640fd146104ae578063685a038f146104ca576102bb565b806318537ca41161027857806318537ca4146103845780632b9689581461038e57806331b5f3f91461039857806346aa1f90146103c957806349684da4146103e75780634b2cc00414610405576102bb565b806301edee4f146102c05780630c3924d4146102dc5780630d4a346a146102fa5780630f1609071461031857806312656fe414610336578063165e593414610366575b600080fd5b6102da60048036038101906102d591906148da565b61093d565b005b6102e461152e565b6040516102f1919061497e565b60405180910390f35b6103026118df565b60405161030f91906149a8565b60405180910390f35b6103206118e5565b60405161032d91906149a8565b60405180910390f35b610350600480360381019061034b9190614a21565b6118eb565b60405161035d91906149a8565b60405180910390f35b61036e611903565b60405161037b91906149a8565b60405180910390f35b61038c611909565b005b610396611c43565b005b6103b260048036038101906103ad9190614a4e565b611d66565b6040516103c0929190614aa9565b60405180910390f35b6103d1611db4565b6040516103de9190614b81565b60405180910390f35b6103ef611e62565b6040516103fc9190614c02565b60405180910390f35b61041f600480360381019061041a9190614c1d565b611e88565b60405161042f9493929190614c5d565b60405180910390f35b610452600480360381019061044d9190614a21565b611ed5565b60405161045f91906149a8565b60405180910390f35b610470611eed565b60405161047d9190614ce4565b60405180910390f35b61048e611fbc565b60405161049b91906149a8565b60405180910390f35b6104ac611fc2565b005b6104c860048036038101906104c391906148da565b6122e6565b005b6104d26125dc565b6040516104df91906149a8565b60405180910390f35b6104f06125e2565b6040516104fd91906149a8565b60405180910390f35b61050e6125e8565b60405161051b91906149a8565b60405180910390f35b61052c6125ee565b60405161053991906149a8565b60405180910390f35b61055c60048036038101906105579190614a21565b61263a565b60405161056991906149a8565b60405180910390f35b61057a612652565b60405161058791906149a8565b60405180910390f35b610598612658565b6040516105a59190614d0e565b60405180910390f35b6105b661267c565b6040516105c391906149a8565b60405180910390f35b6105e660048036038101906105e19190614a21565b612682565b6040516105f391906149a8565b60405180910390f35b61061660048036038101906106119190614a21565b61269a565b60405161062391906149a8565b60405180910390f35b61064660048036038101906106419190614a21565b6126b2565b005b61065061277b565b005b61066c60048036038101906106679190614a4e565b612afc565b60405161067c9493929190614c5d565b60405180910390f35b61069f600480360381019061069a9190614a21565b612b49565b6040516106ac91906149a8565b60405180910390f35b6106bd612b61565b6040516106ca91906149a8565b60405180910390f35b6106db612b67565b6040516106e891906149a8565b60405180910390f35b61070b60048036038101906107069190614a4e565b612b6d565b60405161071b9493929190614d29565b60405180910390f35b61073e60048036038101906107399190614a21565b612bc7565b60405161074b91906149a8565b60405180910390f35b61076e600480360381019061076991906148da565b612bdf565b005b61078a600480360381019061078591906148da565b612f93565b005b6107a660048036038101906107a191906148da565b613ca9565b6040516107b896959493929190614d6e565b60405180910390f35b6107c9613d12565b6040516107d691906149a8565b60405180910390f35b6107f960048036038101906107f49190614a21565b613d18565b60405161080691906149a8565b60405180910390f35b610817613d30565b6040516108249190614ee2565b60405180910390f35b610835613f91565b6040516108429190614f59565b60405180910390f35b61086560048036038101906108609190614a21565b614089565b005b61086f614211565b60405161087c91906149a8565b60405180910390f35b61089f600480360381019061089a9190614a21565b614217565b6040516108ac91906149a8565b60405180910390f35b6108cf60048036038101906108ca9190614a21565b61422f565b6040516108dc91906149a8565b60405180910390f35b6108ed614247565b6040516108fa91906149a8565b60405180910390f35b61090b61424d565b60405161091891906149a8565b60405180910390f35b61093b600480360381019061093691906148da565b61434b565b005b6000339050600042905060008390506000600260008573ffffffffffffffffffffffffffffffffffffffff1673ffffffffffffffffffffffffffffffffffffffff1681526020019081526020016000205490506000600360008673ffffffffffffffffffffffffffffffffffffffff1673ffffffffffffffffffffffffffffffffffffffff1681526020019081526020016000205490506000600460008773ffffffffffffffffffffffffffffffffffffffff1673ffffffffffffffffffffffffffffffffffffffff1681526020019081526020016000205490506000818385610a279190614fa3565b610a319190614fa3565b905087811015610a76576040517f08c379a0000000000000000000000000000000000000000000000000000000008152600401610a6d90615034565b60405180910390fd5b6000600f60008973ffffffffffffffffffffffffffffffffffffffff1673ffffffffffffffffffffffffffffffffffffffff168152602001908152602001600020905060005b8180549050811015610e4f5760008a1115610e4f5787828281548110610ae557610ae4615054565b5b906000526020600020906004020160000154108015610b335750818181548110610b1257610b11615054565b5b906000526020600020906004020160030160009054906101000a900460ff16155b15610e3c576000600160009054906101000a900473ffffffffffffffffffffffffffffffffffffffff1673ffffffffffffffffffffffffffffffffffffffff1663f0eebe478a858581548110610b8c57610b8b615054565b5b9060005260206000209060040201600001546040518363ffffffff1660e01b8152600401610bbb929190615083565b602060405180830381865afa158015610bd8573d6000803e3d6000fd5b505050506040513d601f19601f82011682018060405250810190610bfc91906150c1565b9050600080600a8310610c3557848481548110610c1c57610c1b615054565b5b9060005260206000209060040201600101549150610c81565b606483601b54878781548110610c4e57610c4d615054565b5b906000526020600020906004020160010154610c6a91906150ee565b610c7491906150ee565b610c7e919061515f565b91505b6000858581548110610c9657610c95615054565b5b90600052602060002090600402016002015483610cb39190614fa3565b90508d8111610cd257808e610cc89190614fa3565b9d50809150610cda565b8d915060009d505b6000868681548110610cef57610cee615054565b5b90600052602060002090600402016002015483610d0c9190615190565b9050868681548110610d2157610d20615054565b5b906000526020600020906004020160010154811115610d75576040517f08c379a0000000000000000000000000000000000000000000000000000000008152600401610d6c90615210565b60405180910390fd5b868681548110610d8857610d87615054565b5b906000526020600020906004020160010154811015610dcf5780878781548110610db557610db4615054565b5b906000526020600020906004020160020181905550610e36565b80878781548110610de357610de2615054565b5b9060005260206000209060040201600201819055506001878781548110610e0d57610e0c615054565b5b906000526020600020906004020160030160006101000a81548160ff0219169083151502179055505b50505050505b8080610e4790615230565b915050610abc565b506000808a106111e15760005b82805490508110156111df5760008b11156111df5788838281548110610e8557610e84615054565b5b906000526020600020906004020160000154108015610ed35750828181548110610eb257610eb1615054565b5b906000526020600020906004020160030160009054906101000a900460ff16155b156111cc576000600160009054906101000a900473ffffffffffffffffffffffffffffffffffffffff1673ffffffffffffffffffffffffffffffffffffffff1663f0eebe478b868581548110610f2c57610f2b615054565b5b9060005260206000209060040201600001546040518363ffffffff1660e01b8152600401610f5b929190615083565b602060405180830381865afa158015610f78573d6000803e3d6000fd5b505050506040513d601f19601f82011682018060405250810190610f9c91906150c1565b9050600080600a831015610fba5782600a610fb79190614fa3565b90505b6000868581548110610fcf57610fce615054565b5b906000526020600020906004020160020154878681548110610ff457610ff3615054565b5b9060005260206000209060040201600101546110109190614fa3565b90508e811161102f57808f6110259190614fa3565b9e50809250611037565b8e925060009e505b600087868154811061104c5761104b615054565b5b906000526020600020906004020160020154846110699190615190565b905087868154811061107e5761107d615054565b5b9060005260206000209060040201600101548111156110d2576040517f08c379a00000000000000000000000000000000000000000000000000000000081526004016110c990615210565b60405180910390fd5b8786815481106110e5576110e4615054565b5b90600052602060002090600402016001015481101561112c578088878154811061111257611111615054565b5b906000526020600020906004020160020181905550611193565b808887815481106111405761113f615054565b5b906000526020600020906004020160020181905550600188878154811061116a57611169615054565b5b906000526020600020906004020160030160006101000a81548160ff0219169083151502179055505b6103e883601c54866111a591906150ee565b6111af91906150ee565b6111b9919061515f565b876111c49190615190565b965050505050505b80806111d790615230565b915050610e5c565b505b86600360008b73ffffffffffffffffffffffffffffffffffffffff1673ffffffffffffffffffffffffffffffffffffffff16815260200190815260200160002060008282546112309190615190565b9250508190555080600460008b73ffffffffffffffffffffffffffffffffffffffff1673ffffffffffffffffffffffffffffffffffffffff16815260200190815260200160002060008282546112869190615190565b925050819055506000818861129b9190614fa3565b9050600160009054906101000a900473ffffffffffffffffffffffffffffffffffffffff1673ffffffffffffffffffffffffffffffffffffffff1663192feb688b836040518363ffffffff1660e01b81526004016112fa929190615278565b600060405180830381600087803b15801561131457600080fd5b505af1925050508015611325575060015b611399576113316152ae565b806308c379a00361138d5750611345615341565b80611350575061138f565b806040517f08c379a0000000000000000000000000000000000000000000000000000000008152600401611384919061543f565b60405180910390fd5b505b3d6000803e3d6000fd5b8973ffffffffffffffffffffffffffffffffffffffff167fa3f98d5dc6b06ac2bb075b43a9b4e6435b6014d1119ee56239152469cdd0d04e43600160009054906101000a900473ffffffffffffffffffffffffffffffffffffffff1673ffffffffffffffffffffffffffffffffffffffff166319af2823856040518263ffffffff1660e01b815260040161142d91906149a8565b602060405180830381865afa15801561144a573d6000803e3d6000fd5b505050506040513d601f19601f8201168201806040525081019061146e91906150c1565b600160009054906101000a900473ffffffffffffffffffffffffffffffffffffffff1673ffffffffffffffffffffffffffffffffffffffff166319af2823876040518263ffffffff1660e01b81526004016114c991906149a8565b602060405180830381865afa1580156114e6573d6000803e3d6000fd5b505050506040513d601f19601f8201168201806040525081019061150a91906150c1565b60405161151993929190615461565b60405180910390a25050505050505050505050565b61153661479c565b600033905060004290506000600260008473ffffffffffffffffffffffffffffffffffffffff1673ffffffffffffffffffffffffffffffffffffffff1681526020019081526020016000205490506000600360008573ffffffffffffffffffffffffffffffffffffffff1673ffffffffffffffffffffffffffffffffffffffff1681526020019081526020016000205490506000600460008673ffffffffffffffffffffffffffffffffffffffff1673ffffffffffffffffffffffffffffffffffffffff168152602001908152602001600020549050600081838561161b9190614fa3565b6116259190614fa3565b90506000600f60008873ffffffffffffffffffffffffffffffffffffffff1673ffffffffffffffffffffffffffffffffffffffff168152602001908152602001600020805480602002602001604051908101604052809291908181526020016000905b828210156116f357838290600052602060002090600402016040518060800160405290816000820154815260200160018201548152602001600282015481526020016003820160009054906101000a900460ff16151515158152505081526020019060010190611688565b5050505090506000805b825181101561188b578783828151811061171a57611719615054565b5b6020026020010151600001511015611878576000600160009054906101000a900473ffffffffffffffffffffffffffffffffffffffff1673ffffffffffffffffffffffffffffffffffffffff1663f0eebe478a8685815181106117805761177f615054565b5b6020026020010151600001516040518363ffffffff1660e01b81526004016117a9929190615083565b602060405180830381865afa1580156117c6573d6000803e3d6000fd5b505050506040513d601f19601f820116820180604052508101906117ea91906150c1565b9050600a81106118255783828151811061180757611806615054565b5b6020026020010151602001518361181e9190615190565b9250611876565b606481601b5486858151811061183e5761183d615054565b5b60200260200101516020015161185491906150ee565b61185e91906150ee565b611868919061515f565b836118739190615190565b92505b505b808061188390615230565b9150506116fd565b508385826118999190614fa3565b6118a39190614fa3565b905060006040518060a0016040528088815260200187815260200185815260200183815260200186815250905080995050505050505050505090565b601a5481565b60115481565b60076020528060005260406000206000915090505481565b601b5481565b600033905060004290506000600c60008473ffffffffffffffffffffffffffffffffffffffff1673ffffffffffffffffffffffffffffffffffffffff1681526020019081526020016000205490506000811161199a576040517f08c379a00000000000000000000000000000000000000000000000000000000081526004016119919061550a565b60405180910390fd5b6000600160009054906101000a900473ffffffffffffffffffffffffffffffffffffffff1673ffffffffffffffffffffffffffffffffffffffff1663773a11546040518163ffffffff1660e01b8152600401602060405180830381865afa158015611a09573d6000803e3d6000fd5b505050506040513d601f19601f82011682018060405250810190611a2d91906150c1565b905060006012546001601254601354611a469190614fa3565b611a509190615190565b83611a5b919061552a565b611a659190615190565b9050611a6f6147cb565b84816000018181525050818160200181815250506000816060019015159081151581525050600f60008773ffffffffffffffffffffffffffffffffffffffff1673ffffffffffffffffffffffffffffffffffffffff16815260200190815260200160002081908060018154018082558091505060019003906000526020600020906004020160009091909190915060008201518160000155602082015181600101556040820151816002015560608201518160030160006101000a81548160ff021916908315150217905550505081600260008873ffffffffffffffffffffffffffffffffffffffff1673ffffffffffffffffffffffffffffffffffffffff1681526020019081526020016000206000828254611b8c9190615190565b925050819055506001600c60008873ffffffffffffffffffffffffffffffffffffffff1673ffffffffffffffffffffffffffffffffffffffff1681526020019081526020016000206000828254611be39190614fa3565b925050819055508573ffffffffffffffffffffffffffffffffffffffff167f1a54beab22fb3cc70097401e86eb6ddcf6fca3c13a11db2da8f8475ef83676dd836000604051611c33929190615596565b60405180910390a2505050505050565b60008054906101000a900473ffffffffffffffffffffffffffffffffffffffff1673ffffffffffffffffffffffffffffffffffffffff163373ffffffffffffffffffffffffffffffffffffffff1614611cc8576040517f82b4290000000000000000000000000000000000000000000000000000000000815260040160405180910390fd5b60008060006101000a81548173ffffffffffffffffffffffffffffffffffffffff021916908373ffffffffffffffffffffffffffffffffffffffff160217905550600073ffffffffffffffffffffffffffffffffffffffff163373ffffffffffffffffffffffffffffffffffffffff167f8be0079c531659141344cd1fd0a4f28419497f9722a3daafe3b4186f6b6457e060405160405180910390a3565b60066020528160005260406000208181548110611d8257600080fd5b9060005260206000209060020201600091509150508060000154908060010160009054906101000a900460ff16905082565b60606000339050600160009054906101000a900473ffffffffffffffffffffffffffffffffffffffff1673ffffffffffffffffffffffffffffffffffffffff16639ab02a8d826040518263ffffffff1660e01b8152600401611e169190614d0e565b600060405180830381865afa158015611e33573d6000803e3d6000fd5b505050506040513d6000823e3d601f19601f82011682018060405250810190611e5c91906156a7565b91505090565b600160009054906101000a900473ffffffffffffffffffffffffffffffffffffffff1681565b60096020528160005260406000208181548110611ea457600080fd5b9060005260206000209060040201600091509150508060000154908060010154908060020154908060030154905084565b60036020528060005260406000206000915090505481565b611ef56147f5565b60003390506000600760008373ffffffffffffffffffffffffffffffffffffffff1673ffffffffffffffffffffffffffffffffffffffff1681526020019081526020016000205490506000600860008473ffffffffffffffffffffffffffffffffffffffff1673ffffffffffffffffffffffffffffffffffffffff16815260200190815260200160002054905060008183611f909190614fa3565b905060006040518060600160405280858152602001848152602001838152509050809550505050505090565b60195481565b60003390506000600b60008373ffffffffffffffffffffffffffffffffffffffff1673ffffffffffffffffffffffffffffffffffffffff1681526020019081526020016000205490506000811161204e576040517f08c379a00000000000000000000000000000000000000000000000000000000081526004016120459061550a565b60405180910390fd5b6000600160009054906101000a900473ffffffffffffffffffffffffffffffffffffffff1673ffffffffffffffffffffffffffffffffffffffff1663773a11546040518163ffffffff1660e01b8152600401602060405180830381865afa1580156120bd573d6000803e3d6000fd5b505050506040513d601f19601f820116820180604052508101906120e191906150c1565b9050600060145460016014546015546120fa9190614fa3565b6121049190615190565b8361210f919061552a565b6121199190615190565b90506000662386f26fc100008261213091906150ee565b905060006040518060400160405280838152602001600015158152509050600660008773ffffffffffffffffffffffffffffffffffffffff1673ffffffffffffffffffffffffffffffffffffffff1681526020019081526020016000208190806001815401808255809150506001900390600052602060002090600202016000909190919091506000820151816000015560208201518160010160006101000a81548160ff021916908315150217905550505081600760008873ffffffffffffffffffffffffffffffffffffffff1673ffffffffffffffffffffffffffffffffffffffff16815260200190815260200160002060008282546122329190615190565b925050819055506001600b60008873ffffffffffffffffffffffffffffffffffffffff1673ffffffffffffffffffffffffffffffffffffffff16815260200190815260200160002060008282546122899190614fa3565b925050819055508573ffffffffffffffffffffffffffffffffffffffff167f5697f682c1684e1d64a54fd01d8c022f3ed09788c93844d633c2d4b1b43ea0ca836040516122d691906149a8565b60405180910390a2505050505050565b6000339050600042905060006010600085815260200190815260200160002090508273ffffffffffffffffffffffffffffffffffffffff168160010160009054906101000a900473ffffffffffffffffffffffffffffffffffffffff1673ffffffffffffffffffffffffffffffffffffffff1614612399576040517f08c379a000000000000000000000000000000000000000000000000000000000815260040161239090615762565b60405180910390fd5b8060050160009054906101000a900460ff16156123eb576040517f08c379a00000000000000000000000000000000000000000000000000000000081526004016123e2906157f4565b60405180910390fd5b81816004015410612431576040517f08c379a000000000000000000000000000000000000000000000000000000000815260040161242890615886565b60405180910390fd5b600160009054906101000a900473ffffffffffffffffffffffffffffffffffffffff1673ffffffffffffffffffffffffffffffffffffffff1663c0adecc984866040518363ffffffff1660e01b815260040161248e929190615278565b600060405180830381600087803b1580156124a857600080fd5b505af19250505080156124b9575060015b61252d576124c56152ae565b806308c379a00361252157506124d9615341565b806124e45750612523565b806040517f08c379a0000000000000000000000000000000000000000000000000000000008152600401612518919061543f565b60405180910390fd5b505b3d6000803e3d6000fd5b601060008581526020019081526020016000206000808201600090556001820160006101000a81549073ffffffffffffffffffffffffffffffffffffffff02191690556002820160009055600382016000905560048201600090556005820160006101000a81549060ff02191690555050837f04d5de10c5fe7611da7ca95c1692517b7d1a8b45d22053338fe087c1f95978b7846040516125ce9190614d0e565b60405180910390a250505050565b60185481565b60175481565b60165481565b600080339050600e60008273ffffffffffffffffffffffffffffffffffffffff1673ffffffffffffffffffffffffffffffffffffffff1681526020019081526020016000205491505090565b600b6020528060005260406000206000915090505481565b60145481565b60008054906101000a900473ffffffffffffffffffffffffffffffffffffffff1681565b601c5481565b60026020528060005260406000206000915090505481565b600d6020528060005260406000206000915090505481565b60008054906101000a900473ffffffffffffffffffffffffffffffffffffffff1673ffffffffffffffffffffffffffffffffffffffff163373ffffffffffffffffffffffffffffffffffffffff1614612737576040517f82b4290000000000000000000000000000000000000000000000000000000000815260040160405180910390fd5b80600160006101000a81548173ffffffffffffffffffffffffffffffffffffffff021916908373ffffffffffffffffffffffffffffffffffffffff16021790555050565b60003390506000600760008373ffffffffffffffffffffffffffffffffffffffff1673ffffffffffffffffffffffffffffffffffffffff1681526020019081526020016000205490506000600860008473ffffffffffffffffffffffffffffffffffffffff1673ffffffffffffffffffffffffffffffffffffffff168152602001908152602001600020549050600081836128169190614fa3565b90506000600660008673ffffffffffffffffffffffffffffffffffffffff1673ffffffffffffffffffffffffffffffffffffffff16815260200190815260200160002090506000805b82805490508110156129245782818154811061287e5761287d615054565b5b906000526020600020906002020160010160009054906101000a900460ff16612911578281815481106128b4576128b3615054565b5b906000526020600020906002020160000154826128d19190615190565b915060018382815481106128e8576128e7615054565b5b906000526020600020906002020160010160006101000a81548160ff0219169083151502179055505b808061291c90615230565b91505061285f565b50828114612967576040517f08c379a000000000000000000000000000000000000000000000000000000000815260040161295e906158f2565b60405180910390fd5b804710156129aa576040517f08c379a00000000000000000000000000000000000000000000000000000000081526004016129a19061595e565b60405180910390fd5b600160009054906101000a900473ffffffffffffffffffffffffffffffffffffffff1673ffffffffffffffffffffffffffffffffffffffff16634f95a04b87836040518363ffffffff1660e01b8152600401612a0792919061599f565b600060405180830381600087803b158015612a2157600080fd5b505af1925050508015612a32575060015b612aa657612a3e6152ae565b806308c379a003612a9a5750612a52615341565b80612a5d5750612a9c565b806040517f08c379a0000000000000000000000000000000000000000000000000000000008152600401612a91919061543f565b60405180910390fd5b505b3d6000803e3d6000fd5b8573ffffffffffffffffffffffffffffffffffffffff167f471b21baba9e243965b6fb2ea26a8e65d29d03406aec7b95ec9ad494ae7f82fb82604051612aec91906149a8565b60405180910390a2505050505050565b600a6020528160005260406000208181548110612b1857600080fd5b9060005260206000209060040201600091509150508060000154908060010154908060020154908060030154905084565b600e6020528060005260406000206000915090505481565b601e5481565b60125481565b600f6020528160005260406000208181548110612b8957600080fd5b9060005260206000209060040201600091509150508060000154908060010154908060020154908060030160009054906101000a900460ff16905084565b600c6020528060005260406000206000915090505481565b60003390506000600160009054906101000a900473ffffffffffffffffffffffffffffffffffffffff1673ffffffffffffffffffffffffffffffffffffffff166371d16cd7836040518263ffffffff1660e01b8152600401612c419190614d0e565b602060405180830381865afa158015612c5e573d6000803e3d6000fd5b505050506040513d601f19601f82011682018060405250810190612c8291906150c1565b90506000600560008473ffffffffffffffffffffffffffffffffffffffff1673ffffffffffffffffffffffffffffffffffffffff1681526020019081526020016000205482612cd19190614fa3565b905060008111612d16576040517f08c379a0000000000000000000000000000000000000000000000000000000008152600401612d0d90615a14565b60405180910390fd5b60006010600086815260200190815260200160002090508373ffffffffffffffffffffffffffffffffffffffff168160010160009054906101000a900473ffffffffffffffffffffffffffffffffffffffff1673ffffffffffffffffffffffffffffffffffffffff1614612dbf576040517f08c379a0000000000000000000000000000000000000000000000000000000008152600401612db690615a80565b60405180910390fd5b600042905080826004015411612e0a576040517f08c379a0000000000000000000000000000000000000000000000000000000008152600401612e0190615b12565b60405180910390fd5b601e54826004016000828254612e209190614fa3565b925050819055506001600560008773ffffffffffffffffffffffffffffffffffffffff1673ffffffffffffffffffffffffffffffffffffffff1681526020019081526020016000206000828254612e779190615190565b925050819055508160106000888152602001908152602001600020600082015481600001556001820160009054906101000a900473ffffffffffffffffffffffffffffffffffffffff168160010160006101000a81548173ffffffffffffffffffffffffffffffffffffffff021916908373ffffffffffffffffffffffffffffffffffffffff1602179055506002820154816002015560038201548160030155600482015481600401556005820160009054906101000a900460ff168160050160006101000a81548160ff021916908315150217905550905050857f8ee2087cb07bba967083d109af9bc795250912ab6e8ea1469cde6c49b80045e2601e54604051612f8391906149a8565b60405180910390a2505050505050565b6000339050600042905060006010600085815260200190815260200160002090506000816000015414158015612fcc5750838160000154145b61300b576040517f08c379a000000000000000000000000000000000000000000000000000000000815260040161300290615b7e565b60405180910390fd5b6000601154826002015461301f9190615190565b90508160050160009054906101000a900460ff16801561303f5750828111155b61307e576040517f08c379a000000000000000000000000000000000000000000000000000000000815260040161307590615bea565b60405180910390fd5b613086614816565b858160000181815250508381602001818152505060006064600160009054906101000a900473ffffffffffffffffffffffffffffffffffffffff1673ffffffffffffffffffffffffffffffffffffffff1663773a11546040518163ffffffff1660e01b8152600401602060405180830381865afa15801561310b573d6000803e3d6000fd5b505050506040513d601f19601f8201168201806040525081019061312f91906150c1565b613139919061552a565b90506016548110156133b35760038081111561315857613157615c0a565b5b82606001818152505060096000888152602001908152602001600020829080600181540180825580915050600190039060005260206000209060040201600090919091909150600082015181600001556020820151816001015560408201518160020155606082015181600301555050600a60008773ffffffffffffffffffffffffffffffffffffffff1673ffffffffffffffffffffffffffffffffffffffff168152602001908152602001600020829080600181540180825580915050600190039060005260206000209060040201600090919091909150600082015181600001556020820151816001015560408201518160020155606082015181600301555050601d54856132699190615190565b846004018190555060008460050160006101000a81548160ff0219169083151502179055508360106000898152602001908152602001600020600082015481600001556001820160009054906101000a900473ffffffffffffffffffffffffffffffffffffffff168160010160006101000a81548173ffffffffffffffffffffffffffffffffffffffff021916908373ffffffffffffffffffffffffffffffffffffffff1602179055506002820154816002015560038201548160030155600482015481600401556005820160009054906101000a900460ff168160050160006101000a81548160ff021916908315150217905550905050867fec506780a0336f02b9731f0e8752c1ff5d4099e2935bdfa72839c29be1b482f083606001516000600581111561339c5761339b615c0a565b5b6040516133aa929190615083565b60405180910390a25b60006064600160009054906101000a900473ffffffffffffffffffffffffffffffffffffffff1673ffffffffffffffffffffffffffffffffffffffff1663773a11546040518163ffffffff1660e01b8152600401602060405180830381865afa158015613424573d6000803e3d6000fd5b505050506040513d601f19601f8201168201806040525081019061344891906150c1565b613452919061552a565b9050601754811080156134a457506001600e60008973ffffffffffffffffffffffffffffffffffffffff1673ffffffffffffffffffffffffffffffffffffffff16815260200190815260200160002054105b1561375e57600160058111156134bd576134bc615c0a565b5b836040018181525050600160038111156134da576134d9615c0a565b5b83606001818152505060096000898152602001908152602001600020839080600181540180825580915050600190039060005260206000209060040201600090919091909150600082015181600001556020820151816001015560408201518160020155606082015181600301555050600a60008873ffffffffffffffffffffffffffffffffffffffff1673ffffffffffffffffffffffffffffffffffffffff16815260200190815260200160002083908060018154018082558091505060019003906000526020600020906004020160009091909190915060008201518160000155602082015181600101556040820151816002015560608201518160030155505060008560050160006101000a81548160ff02191690831515021790555085856002018190555084601060008a8152602001908152602001600020600082015481600001556001820160009054906101000a900473ffffffffffffffffffffffffffffffffffffffff168160010160006101000a81548173ffffffffffffffffffffffffffffffffffffffff021916908373ffffffffffffffffffffffffffffffffffffffff1602179055506002820154816002015560038201548160030155600482015481600401556005820160009054906101000a900460ff168160050160006101000a81548160ff0219169083151502179055509050506001600e60008973ffffffffffffffffffffffffffffffffffffffff1673ffffffffffffffffffffffffffffffffffffffff16815260200190815260200160002081905550877fec506780a0336f02b9731f0e8752c1ff5d4099e2935bdfa72839c29be1b482f084606001518560400151604051613755929190615083565b60405180910390a25b600080600381111561377357613772615c0a565b5b9050600080600581111561378a57613789615c0a565b5b90506000620186a0600160009054906101000a900473ffffffffffffffffffffffffffffffffffffffff1673ffffffffffffffffffffffffffffffffffffffff1663773a11546040518163ffffffff1660e01b8152600401602060405180830381865afa1580156137ff573d6000803e3d6000fd5b505050506040513d601f19601f8201168201806040525081019061382391906150c1565b61382d919061552a565b905060008111801561384157506018548111155b156138ce576001600381111561385a57613859615c0a565b5b9250600260058111156138705761386f615c0a565b5b91506001600b60008c73ffffffffffffffffffffffffffffffffffffffff1673ffffffffffffffffffffffffffffffffffffffff16815260200190815260200160002060008282546138c29190615190565b92505081905550613a5b565b601854811180156138ee57506019546018546138ea9190615190565b8111155b1561397b576001600381111561390757613906615c0a565b5b92506004600581111561391d5761391c615c0a565b5b91506001600d60008c73ffffffffffffffffffffffffffffffffffffffff1673ffffffffffffffffffffffffffffffffffffffff168152602001908152602001600020600082825461396f9190615190565b92505081905550613a5a565b60195460185461398b9190615190565b811180156139b55750601a546019546018546139a79190615190565b6139b19190615190565b8111155b15613a4257600160038111156139ce576139cd615c0a565b5b9250600360058111156139e4576139e3615c0a565b5b91506001600c60008c73ffffffffffffffffffffffffffffffffffffffff1673ffffffffffffffffffffffffffffffffffffffff1681526020019081526020016000206000828254613a369190615190565b92505081905550613a59565b60026003811115613a5657613a55615c0a565b5b92505b5b5b8286606001818152505081866040018181525050600960008c8152602001908152602001600020869080600181540180825580915050600190039060005260206000209060040201600090919091909150600082015181600001556020820151816001015560408201518160020155606082015181600301555050600a60008b73ffffffffffffffffffffffffffffffffffffffff1673ffffffffffffffffffffffffffffffffffffffff16815260200190815260200160002086908060018154018082558091505060019003906000526020600020906004020160009091909190915060008201518160000155602082015181600101556040820151816002015560608201518160030155505060008860050160006101000a81548160ff02191690831515021790555088886002018190555087601060008d8152602001908152602001600020600082015481600001556001820160009054906101000a900473ffffffffffffffffffffffffffffffffffffffff168160010160006101000a81548173ffffffffffffffffffffffffffffffffffffffff021916908373ffffffffffffffffffffffffffffffffffffffff1602179055506002820154816002015560038201548160030155600482015481600401556005820160009054906101000a900460ff168160050160006101000a81548160ff0219169083151502179055509050508a7fec506780a0336f02b9731f0e8752c1ff5d4099e2935bdfa72839c29be1b482f08484604051613c94929190615083565b60405180910390a25050505050505050505050565b60106020528060005260406000206000915090508060000154908060010160009054906101000a900473ffffffffffffffffffffffffffffffffffffffff16908060020154908060030154908060040154908060050160009054906101000a900460ff16905086565b60135481565b60086020528060005260406000206000915090505481565b606060003390506000600160009054906101000a900473ffffffffffffffffffffffffffffffffffffffff1673ffffffffffffffffffffffffffffffffffffffff1663698273cd836040518263ffffffff1660e01b8152600401613d949190614d0e565b600060405180830381865afa158015613db1573d6000803e3d6000fd5b505050506040513d6000823e3d601f19601f82011682018060405250810190613dda91906156a7565b90506000815167ffffffffffffffff811115613df957613df86152e1565b5b604051908082528060200260200182016040528015613e3257816020015b613e1f61483e565b815260200190600190039081613e175790505b50905060005b8251811015613f87576000838281518110613e5657613e55615054565b5b602002602001015190506000601060008381526020019081526020016000206040518060c0016040529081600082015481526020016001820160009054906101000a900473ffffffffffffffffffffffffffffffffffffffff1673ffffffffffffffffffffffffffffffffffffffff1673ffffffffffffffffffffffffffffffffffffffff1681526020016002820154815260200160038201548152602001600482015481526020016005820160009054906101000a900460ff1615151515815250509050600060405180608001604052808360000151815260200183606001518152602001836080015181526020018360a001511515815250905080858581518110613f6657613f65615054565b5b60200260200101819052505050508080613f7f90615230565b915050613e38565b5080935050505090565b613f99614868565b600033905060006040518060800160405280600b60008573ffffffffffffffffffffffffffffffffffffffff1673ffffffffffffffffffffffffffffffffffffffff168152602001908152602001600020548152602001600c60008573ffffffffffffffffffffffffffffffffffffffff1673ffffffffffffffffffffffffffffffffffffffff168152602001908152602001600020548152602001600d60008573ffffffffffffffffffffffffffffffffffffffff1673ffffffffffffffffffffffffffffffffffffffff16815260200190815260200160002054815260200160008152509050809250505090565b60008054906101000a900473ffffffffffffffffffffffffffffffffffffffff1673ffffffffffffffffffffffffffffffffffffffff163373ffffffffffffffffffffffffffffffffffffffff161461410e576040517f82b4290000000000000000000000000000000000000000000000000000000000815260040160405180910390fd5b600073ffffffffffffffffffffffffffffffffffffffff168173ffffffffffffffffffffffffffffffffffffffff1603614174576040517f49e27cff00000000000000000000000000000000000000000000000000000000815260040160405180910390fd5b806000806101000a81548173ffffffffffffffffffffffffffffffffffffffff021916908373ffffffffffffffffffffffffffffffffffffffff1602179055508073ffffffffffffffffffffffffffffffffffffffff163373ffffffffffffffffffffffffffffffffffffffff167f8be0079c531659141344cd1fd0a4f28419497f9722a3daafe3b4186f6b6457e060405160405180910390a350565b60155481565b60056020528060005260406000206000915090505481565b60046020528060005260406000206000915090505481565b601d5481565b6000803390506000600160009054906101000a900473ffffffffffffffffffffffffffffffffffffffff1673ffffffffffffffffffffffffffffffffffffffff166371d16cd7836040518263ffffffff1660e01b81526004016142b09190614d0e565b602060405180830381865afa1580156142cd573d6000803e3d6000fd5b505050506040513d601f19601f820116820180604052508101906142f191906150c1565b90506000600560008473ffffffffffffffffffffffffffffffffffffffff1673ffffffffffffffffffffffffffffffffffffffff16815260200190815260200160002054826143409190614fa3565b905080935050505090565b6000339050600060106000848152602001908152602001600020905060008160000154036145ac57600160009054906101000a900473ffffffffffffffffffffffffffffffffffffffff1673ffffffffffffffffffffffffffffffffffffffff1663dca7171a83856040518363ffffffff1660e01b81526004016143d0929190615278565b600060405180830381600087803b1580156143ea57600080fd5b505af19250505080156143fb575060015b61446f576144076152ae565b806308c379a003614463575061441b615341565b806144265750614465565b806040517f08c379a000000000000000000000000000000000000000000000000000000000815260040161445a919061543f565b60405180910390fd5b505b3d6000803e3d6000fd5b828160000181905550818160010160006101000a81548173ffffffffffffffffffffffffffffffffffffffff021916908373ffffffffffffffffffffffffffffffffffffffff16021790555060008160050160006101000a81548160ff0219169083151502179055508060106000858152602001908152602001600020600082015481600001556001820160009054906101000a900473ffffffffffffffffffffffffffffffffffffffff168160010160006101000a81548173ffffffffffffffffffffffffffffffffffffffff021916908373ffffffffffffffffffffffffffffffffffffffff1602179055506002820154816002015560038201548160030155600482015481600401556005820160009054906101000a900460ff168160050160006101000a81548160ff0219169083151502179055509050505b60004290508160050160009054906101000a900460ff1615614603576040517f08c379a00000000000000000000000000000000000000000000000000000000081526004016145fa90615c85565b60405180910390fd5b808260040154111561464a576040517f08c379a000000000000000000000000000000000000000000000000000000000815260040161464190615cf1565b60405180910390fd5b80826002018190555060018260050160006101000a81548160ff0219169083151502179055506011548161467e9190615190565b82600301819055508160106000868152602001908152602001600020600082015481600001556001820160009054906101000a900473ffffffffffffffffffffffffffffffffffffffff168160010160006101000a81548173ffffffffffffffffffffffffffffffffffffffff021916908373ffffffffffffffffffffffffffffffffffffffff1602179055506002820154816002015560038201548160030155600482015481600401556005820160009054906101000a900460ff168160050160006101000a81548160ff0219169083151502179055509050507f61c069f0d3725169cbfddaf1a5389632f551f2a7aeb84e785c4b94043e53ec2384836003015460405161478e929190615083565b60405180910390a150505050565b6040518060a0016040528060008152602001600081526020016000815260200160008152602001600081525090565b60405180608001604052806000815260200160008152602001600081526020016000151581525090565b60405180606001604052806000815260200160008152602001600081525090565b6040518060800160405280600081526020016000815260200160008152602001600081525090565b60405180608001604052806000815260200160008152602001600081526020016000151581525090565b6040518060800160405280600081526020016000815260200160008152602001600081525090565b6000604051905090565b600080fd5b600080fd5b6000819050919050565b6148b7816148a4565b81146148c257600080fd5b50565b6000813590506148d4816148ae565b92915050565b6000602082840312156148f0576148ef61489a565b5b60006148fe848285016148c5565b91505092915050565b614910816148a4565b82525050565b60a08201600082015161492c6000850182614907565b50602082015161493f6020850182614907565b5060408201516149526040850182614907565b5060608201516149656060850182614907565b5060808201516149786080850182614907565b50505050565b600060a0820190506149936000830184614916565b92915050565b6149a2816148a4565b82525050565b60006020820190506149bd6000830184614999565b92915050565b600073ffffffffffffffffffffffffffffffffffffffff82169050919050565b60006149ee826149c3565b9050919050565b6149fe816149e3565b8114614a0957600080fd5b50565b600081359050614a1b816149f5565b92915050565b600060208284031215614a3757614a3661489a565b5b6000614a4584828501614a0c565b91505092915050565b60008060408385031215614a6557614a6461489a565b5b6000614a7385828601614a0c565b9250506020614a84858286016148c5565b9150509250929050565b60008115159050919050565b614aa381614a8e565b82525050565b6000604082019050614abe6000830185614999565b614acb6020830184614a9a565b9392505050565b600081519050919050565b600082825260208201905092915050565b6000819050602082019050919050565b6000614b0a8383614907565b60208301905092915050565b6000602082019050919050565b6000614b2e82614ad2565b614b388185614add565b9350614b4383614aee565b8060005b83811015614b74578151614b5b8882614afe565b9750614b6683614b16565b925050600181019050614b47565b5085935050505092915050565b60006020820190508181036000830152614b9b8184614b23565b905092915050565b6000819050919050565b6000614bc8614bc3614bbe846149c3565b614ba3565b6149c3565b9050919050565b6000614bda82614bad565b9050919050565b6000614bec82614bcf565b9050919050565b614bfc81614be1565b82525050565b6000602082019050614c176000830184614bf3565b92915050565b60008060408385031215614c3457614c3361489a565b5b6000614c42858286016148c5565b9250506020614c53858286016148c5565b9150509250929050565b6000608082019050614c726000830187614999565b614c7f6020830186614999565b614c8c6040830185614999565b614c996060830184614999565b95945050505050565b606082016000820151614cb86000850182614907565b506020820151614ccb6020850182614907565b506040820151614cde6040850182614907565b50505050565b6000606082019050614cf96000830184614ca2565b92915050565b614d08816149e3565b82525050565b6000602082019050614d236000830184614cff565b92915050565b6000608082019050614d3e6000830187614999565b614d4b6020830186614999565b614d586040830185614999565b614d656060830184614a9a565b95945050505050565b600060c082019050614d836000830189614999565b614d906020830188614cff565b614d9d6040830187614999565b614daa6060830186614999565b614db76080830185614999565b614dc460a0830184614a9a565b979650505050505050565b600081519050919050565b600082825260208201905092915050565b6000819050602082019050919050565b614e0481614a8e565b82525050565b608082016000820151614e206000850182614907565b506020820151614e336020850182614907565b506040820151614e466040850182614907565b506060820151614e596060850182614dfb565b50505050565b6000614e6b8383614e0a565b60808301905092915050565b6000602082019050919050565b6000614e8f82614dcf565b614e998185614dda565b9350614ea483614deb565b8060005b83811015614ed5578151614ebc8882614e5f565b9750614ec783614e77565b925050600181019050614ea8565b5085935050505092915050565b60006020820190508181036000830152614efc8184614e84565b905092915050565b608082016000820151614f1a6000850182614907565b506020820151614f2d6020850182614907565b506040820151614f406040850182614907565b506060820151614f536060850182614907565b50505050565b6000608082019050614f6e6000830184614f04565b92915050565b7f4e487b7100000000000000000000000000000000000000000000000000000000600052601160045260246000fd5b6000614fae826148a4565b9150614fb9836148a4565b9250828203905081811115614fd157614fd0614f74565b5b92915050565b600082825260208201905092915050565b7f596f75722062616c616e636520697320696e73756666696369656e7400000000600082015250565b600061501e601c83614fd7565b915061502982614fe8565b602082019050919050565b6000602082019050818103600083015261504d81615011565b9050919050565b7f4e487b7100000000000000000000000000000000000000000000000000000000600052603260045260246000fd5b60006040820190506150986000830185614999565b6150a56020830184614999565b9392505050565b6000815190506150bb816148ae565b92915050565b6000602082840312156150d7576150d661489a565b5b60006150e5848285016150ac565b91505092915050565b60006150f9826148a4565b9150615104836148a4565b9250828202615112816148a4565b9150828204841483151761512957615128614f74565b5b5092915050565b7f4e487b7100000000000000000000000000000000000000000000000000000000600052601260045260246000fd5b600061516a826148a4565b9150615175836148a4565b92508261518557615184615130565b5b828204905092915050565b600061519b826148a4565b91506151a6836148a4565b92508282019050808211156151be576151bd614f74565b5b92915050565b7f436f6d7075746174696f6e206572726f72730000000000000000000000000000600082015250565b60006151fa601283614fd7565b9150615205826151c4565b602082019050919050565b60006020820190508181036000830152615229816151ed565b9050919050565b600061523b826148a4565b91507fffffffffffffffffffffffffffffffffffffffffffffffffffffffffffffffff820361526d5761526c614f74565b5b600182019050919050565b600060408201905061528d6000830185614cff565b61529a6020830184614999565b9392505050565b60008160e01c9050919050565b600060033d11156152cd5760046000803e6152ca6000516152a1565b90505b90565b6000601f19601f8301169050919050565b7f4e487b7100000000000000000000000000000000000000000000000000000000600052604160045260246000fd5b615319826152d0565b810181811067ffffffffffffffff82111715615338576153376152e1565b5b80604052505050565b600060443d106153ce57615353614890565b60043d036004823e80513d602482011167ffffffffffffffff8211171561537b5750506153ce565b808201805167ffffffffffffffff81111561539957505050506153ce565b80602083010160043d0385018111156153b65750505050506153ce565b6153c582602001850186615310565b82955050505050505b90565b600081519050919050565b60005b838110156153fa5780820151818401526020810190506153df565b60008484015250505050565b6000615411826153d1565b61541b8185614fd7565b935061542b8185602086016153dc565b615434816152d0565b840191505092915050565b600060208201905081810360008301526154598184615406565b905092915050565b60006060820190506154766000830186614999565b6154836020830185614999565b6154906040830184614999565b949350505050565b7f596f757220626c696e6420626f78207175616e7469747920697320696e73756660008201527f66696369656e7400000000000000000000000000000000000000000000000000602082015250565b60006154f4602783614fd7565b91506154ff82615498565b604082019050919050565b60006020820190508181036000830152615523816154e7565b9050919050565b6000615535826148a4565b9150615540836148a4565b9250826155505761554f615130565b5b828206905092915050565b6000819050919050565b600061558061557b6155768461555b565b614ba3565b6148a4565b9050919050565b61559081615565565b82525050565b60006040820190506155ab6000830185614999565b6155b86020830184615587565b9392505050565b600080fd5b60006155ce614890565b90506155da8282615310565b919050565b600067ffffffffffffffff8211156155fa576155f96152e1565b5b602082029050602081019050919050565b600080fd5b600061562361561e846155df565b6155c4565b905080838252602082019050602084028301858111156156465761564561560b565b5b835b8181101561566f578061565b88826150ac565b845260208401935050602081019050615648565b5050509392505050565b600082601f83011261568e5761568d6155bf565b5b815161569e848260208601615610565b91505092915050565b6000602082840312156156bd576156bc61489a565b5b600082015167ffffffffffffffff8111156156db576156da61489f565b5b6156e784828501615679565b91505092915050565b7f54686973206973206e6f7420796f757220647261676f6e20616e642063616e6e60008201527f6f742062652072656465656d6564000000000000000000000000000000000000602082015250565b600061574c602e83614fd7565b9150615757826156f0565b604082019050919050565b6000602082019050818103600083015261577b8161573f565b9050919050565b7f596f757220647261676f6e206973206f6e20616e20616476656e74757265206160008201527f6e642063616e6e6f742062652072656465656d65640000000000000000000000602082015250565b60006157de603583614fd7565b91506157e982615782565b604082019050919050565b6000602082019050818103600083015261580d816157d1565b9050919050565b7f596f757220647261676f6e20697320736c656570696e6720616e642063616e6e60008201527f6f742062652072656465656d6564000000000000000000000000000000000000602082015250565b6000615870602e83614fd7565b915061587b82615814565b604082019050919050565b6000602082019050818103600083015261589f81615863565b9050919050565b7f4572726f7220696e2063616c63756c6174696e67204554482062616c616e6365600082015250565b60006158dc602083614fd7565b91506158e7826158a6565b602082019050919050565b6000602082019050818103600083015261590b816158cf565b9050919050565b7f496e73756666696369656e742062616c616e6365000000000000000000000000600082015250565b6000615948601483614fd7565b915061595382615912565b602082019050919050565b600060208201905081810360008301526159778161593b565b9050919050565b6000615989826149c3565b9050919050565b6159998161597e565b82525050565b60006040820190506159b46000830185615990565b6159c16020830184614999565b9392505050565b7f496e73756666696369656e74206d696e74207175616e74697479000000000000600082015250565b60006159fe601a83614fd7565b9150615a09826159c8565b602082019050919050565b60006020820190508181036000830152615a2d816159f1565b9050919050565b7f5468697320647261676f6e206973206e6f7420796f7572730000000000000000600082015250565b6000615a6a601883614fd7565b9150615a7582615a34565b602082019050919050565b60006020820190508181036000830152615a9981615a5d565b9050919050565b7f5468697320647261676f6e20646f6573206e6f7420726571756972652074686560008201527f20757365206f66206120736c6565702063617264000000000000000000000000602082015250565b6000615afc603483614fd7565b9150615b0782615aa0565b604082019050919050565b60006020820190508181036000830152615b2b81615aef565b9050919050565b7f647261676f6e206e6f7420657869737400000000000000000000000000000000600082015250565b6000615b68601083614fd7565b9150615b7382615b32565b602082019050919050565b60006020820190508181036000830152615b9781615b5b565b9050919050565b7f647261676f6e20646964206e6f742066696e697368206661726d696e67000000600082015250565b6000615bd4601d83614fd7565b9150615bdf82615b9e565b602082019050919050565b60006020820190508181036000830152615c0381615bc7565b9050919050565b7f4e487b7100000000000000000000000000000000000000000000000000000000600052602160045260246000fd5b7f447261676f6e206973206661726d696e67000000000000000000000000000000600082015250565b6000615c6f601183614fd7565b9150615c7a82615c39565b602082019050919050565b60006020820190508181036000830152615c9e81615c62565b9050919050565b7f447261676f6e206973207374696c6c20736c656570696e670000000000000000600082015250565b6000615cdb601883614fd7565b9150615ce682615ca5565b602082019050919050565b60006020820190508181036000830152615d0a81615cce565b905091905056fea2646970667358221220bdc4df0d22e2c540ddf3aa97b9fcb75dbd9389a1529af2d13897185148fd723164736f6c63430008140033",
  "linkReferences": {},
  "deployedLinkReferences": {}
}